:020000022000DC
:1060000000000120396202009162020093620200E6
:10601000956202009762020099620200000000008F
:106020000000000000000000000000009B62020071
:106030009D620200000000009F620200A162020057
:1060400031720200A762020069760200AB620200B0
:10605000AD620200AF620200E9740200B3620200A6
:10606000B5620200B7620200B9620200BB620200C0
:10607000BD620200BF620200C1620200C362020090
:10608000C562020079660200C9620200CB620200AA
:1060900015670200CF62020085830200D36202000E
:1060A000D5620200D7620200D9620200DB62020000
:1060B000DD620200DF620200A3620200A36202004E
:1060C000E1620200E3620200E5620200E7620200B0
:0C60D000E9620200EB620200ED620200D7
:1060DC00354936480A1A02D0072291438D46344975
:1060EC0034480A1A06D00722914381F30988022208
:1060FC0082F3148830483149314A00F044F8314871
:10610C003149324A00F03FF831483249324A00F006
:10611C003AF832483249334A00F035F832483349BC
:10612C00334A00F030F833483349344A00F02BF846
:10613C0033483449344A00F026F8344834490022B4
:10614C0000F02CF833483449002200F027F833488B
:10615C003349091A082902DB002202604160314AE6
:10616C0090471F481F49884205D00268043003B489
:10617C00904703BCF7E700208646EC460020002140
:10618C00294A9047FEE7884207D0521A05D0037877
:10619C0001300B700131013AF9D17047884202D0BD
:1061AC0002700130FAE770470000012000E0002087
:1061BC0000000120000001202C870200A8180020FC
:1061CC00BD180020F0620200F06202006E86020030
:1061DC002C870200A8180020A81800209086020026
:1061EC009086020090860200908602009086020043
:1061FC009086020090860200908602002C87020096
:10620C0044870200C0180020C0180020C0180020CD
:10621C00CA1B0020CC1B0020CC1B0020CC1B002058
:10622C00CC3B00205D620200E57C02000F484FF081
:10623C000701884385460E4880470E48016841F4A3
:10624C0070010160BFF34F8FBFF36F8FFFF740BF3B
:10625C0009480A490A4A884207D0521A05D00378DD
:10626C0001300B700131013AF9D170470000012067
:10627C008D6C020088ED00E090860200A8180020CA
:10628C00A8180020FEE7FEE7FEE7FEE7FEE7FEE7C4
:10629C00FEE7FEE7FEE7FEE7FEE7FEE7FEE7FEE7CA
:1062AC00FEE7FEE7FEE7FEE7FEE7FEE7FEE7FEE7BA
:1062BC00FEE7FEE7FEE7FEE7FEE7FEE7FEE7FEE7AA
:1062CC00FEE7FEE7FEE7FEE7FEE7FEE7FEE7FEE79A
:1062DC00FEE7FEE7FEE7FEE7FEE7FEE7FEE7FEE78A
:0462EC00FEE700BF0A
:1062F0002DE9F04F394E87B04FF00009384B1B782D
:106300005FFA89F5AB4202D807B0BDE8F08F354B94
:10631000D3F800A01AF835000124D6E9001EA0F138
:106320002002C0F1200304FA02F224FA03F313431B
:1063300004FA00FC009301EA0C030293009B0EEAAE
:1063400003030393DDE9022313430AEBC50B41D09A
:10635000009B21EA0C012EEA0303C6E9001301F0B9
:10636000B9F81AF835502049A5F12002C5F12003EB
:1063700004FA02F224FA03F31343D1E900C2AC4059
:10638000134004EA0C0105930024C3B2CDE90034A4
:10639000009A0491C5F12003A5F1200122FA03F32C
:1063A00002FA01F848EA03081346AB401F46DDE94C
:1063B0000434444508BFBB420CD1DBF804304BB178
:1063C0009BF801104A1E51425141081A4142414175
:1063D0002846984709F1010990E700BFF01800200E
:1063E000C0180020F8180020E81800202DE9F0411E
:1063F0008046204800F072FBD0BB0125A8F12004A4
:10640000C8F1200325FA03F305FA04F41C431A4BE0
:10641000D3E9001205FA08F501EA050602EA0407C5
:1064200056EA07001E461DD1404601F053F8134BB3
:10643000D3E9001288B129432243C3E90012D6E907
:1064400000231C430E4B0B4819681543C6E9005442
:106450000022BDE8F04100F0FBBA21EA050122EA82
:106460000402EAE721EA050522EA0404C3E900542C
:10647000BDE8F081C8180020F0180020E8180020BE
:10648000C4180020042A2DE9F34105460C4616469F
:106490003AD900F05DFFD8B11C4B1D491D601D4B62
:1064A000DFF884801C701C4B00221E600023C1E9B1
:1064B00000231A49C1E90023013CE4B20026032766
:1064C000FF2C0CD1164A1748002100F0AFFA03E068
:1064D00000F004FF0028DFD002B0BDE8F08123B255
:1064E00005EBC30201A992788DF8052015F8330059
:1064F0008DF8066042468DF8047000F033FF013CD1
:10650000E4B20028DCD0E7E70720E5E7F818002030
:10651000E8180020C0180020C4180020F01800203F
:10652000F162020090860200ED63020070B5084D32
:10653000084E00242B789C4201D3002070BD3368A4
:10654000012113F8340000F081FF0134F2E700BFAD
:10655000C0180020F81800201FB50021039001AAE0
:1065600044F20100CDE9011100F004F805B05DF836
:1065700004FB000072B6094B1B68DB0700D500BEA8
:10658000BFF34F8F0649074BCA6802F4E06213431A
:10659000CB60BFF34F8F00BFFDE700BFF0ED00E021
:1065A00000ED00E00400FA05094A537891780133C0
:1065B000DBB2994208BF0023117899421FBF0370D4
:1065C0005078182303FB002014BF043000207047CC
:1065D000FC18002073B5054600240DF107000E4697
:1065E0008DF8074000F08AFA0DF10600FFF7DCFF96
:1065F00090B10670094B9DF8062045605A709DF8D1
:10660000070000F09FFA24B9054B4FF48012C3F83D
:106610000021204602B070BD0424F0E7FC180020E1
:1066200000E100E0024B4FF43C6043F001031847E7
:10663000A086020038B50C4B0C4C4FF40032C3F866
:10664000802001254FF48033C4F84833C4F8083360
:106650006560FFF7E7FF064BA56000241C60FFF7AD
:10666000E1FF044B1C7038BD00E100E00010014068
:10667000181A0020091A0020F8B51F4B1F491B6883
:106680000025C1F84051C1F84451C1F84851C1F842
:106690004C51C1F80051C1F804514BB3D1F8044535
:1066A00017490968641A24F07F442F461A68A242E9
:1066B00009D8A41A15441A7CDE691AB11F74D3E9EB
:1066C00005209047AEB90F4A0F4B11781B788B42CB
:1066D00005D10133DBB2022B08BF002313701278FF
:1066E0000A4B43F822500A4B4FF48012C3F80021A2
:1066F000F8BD3346DAE700BF1C1A00200010014045
:10670000181A0020151A0020141A00200C1A002054
:1067100000E100E02DE9F04FA14AA2491378097881
:10672000A14D994285B03CD00133DBB2022B08BFAA
:10673000002313709D4912789D4B0F6853F8220077
:106740003B1823F07F4300220B602B68164614464B
:10675000944613B942B12B6006E0196881420ED904
:1067600002B12B60091A196001272B68DFF848A2D3
:1067700001934FF00008BEB9DFF844B266E0401A5A
:106780000C44D968C3F800C0D3F81CE031B13A1901
:1067900022F07F42C3E90121DE611E4601227346D9
:1067A000D7E700263746E0E73446F6697F4A636854
:1067B0001268DFF810C2A068991A21F07F41614584
:1067C00000F2A68001442160012222742A6800237D
:1067D000C4E90133E361002A40F0A3802C60CAE7DA
:1067E0005A1C9BF80210D2B291428BF8002004BFD1
:1067F00000228BF80020182202FB03B31A799C6850
:10680000022A1CD0032A12D0012A1FD1207CE8B909
:10681000D3E90312A2605A69E2609A69654BA261EA
:106820001B78002B0CBF0B4603466360BEE70022BB
:106830002B681146002B67D142B12B6006E0296816
:106840000A468946002A5AD1002323749BF8003057
:106850009BF801209A42C3D12B68B8F1000F04D1F4
:10686000019A9A4201D1002F43D0002B73D0D3F864
:1068700000A0514D4D4BD5F804751C68DFF84881D8
:106880003E1B98F8003026F07F4603369BB94FF444
:106890008033C5F84433C5F80433484B4FF4003215
:1068A0004FF00109C3F880211A60C5F80090FFF786
:1068B000B9FE88F80090B2452CBF5444A41924F0C6
:1068C0007F44C5F84045D5F80435DB1B23F07F43F2
:1068D000E41B033324F07F44A3420AD9D5F80435DE
:1068E000C5F84035FFF79EFE344B4FF40032C3F835
:1068F0000021304B00221A7005B0BDE8F08F9442A1
:106900002CD09146D2699DE719740122DB6991E789
:10691000D31A23F07F43834234BFC31A002323607A
:1069200052E721681368994213D8591A1160E2613D
:1069300054E7091AD8691A4638B1034618688842DC
:10694000F7D3401A1860184613462160E061DC61F5
:1069500011E71346F2E7FFF76DFECAE74C4511D188
:10696000CB692B6073B9DFF844E00120CDE9021256
:10697000CAF80800CEF800300E4B1870FFF752FE30
:10698000DDE902121368D269C9F81C2012B110683F
:10699000034413602B68994218BF4FF0010853E776
:1069A000141A0020151A00201C1A0020181A0020A2
:1069B0000C1A0020081A00200010014000E100E03D
:1069C000FC180020FEFF7F00091A002008B5FFF721
:1069D00031FE104B00200B2218809A700E4B18606D
:1069E0000E4B18700E4B18700E4B4FF48012E021B6
:1069F000C3F8802183F814131A6002F18042A2F5D3
:106A00006F22C2F8080583F81113074BD2F804254A
:106A10001A6008BDFC1800201C1A0020141A00205F
:106A2000151A002000E100E0181A0020074B9B789F
:106A30004BB132B128B10368187C20B959745A613E
:106A40007047072070470820704700BFFC180020DF
:106A50002DE9F7431E4FBB7805460E469046A3B37B
:106A600098B304292FD943697BB3437C0024012BBD
:106A70000DF107000CBF8946A1468DF8074000F0D4
:106A80003DF80DF10600FFF78FFDD0B10123037033
:106A9000104B4560D3F80435C0E90498C0E90236CC
:106AA0009DF806307B709DF8070000F04BF824B984
:106AB000094B4FF48012C3F80021204603B0BDE813
:106AC000F0830424EFE70724F7E70824F5E700BF85
:106AD000FC1800200010014000E100E0064A927816
:106AE0003AB130B1426922B1002202740221FFF7AB
:106AF00071BD0820704700BFFC18002070B5EFF38F
:106B0000108672B60C4A946801239CB993600B4BB3
:106B10000B4DD3F8801029401160C3F88050D3F892
:106B2000841051604FF0FF32C3F88420047006B91E
:106B300062B670BD0370FAE7201A002000E100E0A1
:106B4000FC06FFBD084B9A6810B55AB150B9EFF377
:106B5000108172B6054A1C6814605C6854609860C5
:106B600001B962B610BD00BF201A002000E100E0AC
:106B700041DF7047064B10B500241C70054B1C60AC
:106B8000BFF35F8F0449054800F030F8204610BD80
:106B9000341A0020381A0020A88602002C1A00207F
:106BA00007B500230DF107008DF80730FFF7A6FFAA
:106BB000F1EE103A23F09F03E1EE103ABFF35F8F3E
:106BC000094B4022C3F884219DF80700FFF7BAFF64
:106BD00001F0BEFB20B1FFF7CBFF03B05DF804FB73
:106BE00020BF40BF20BFF8E700E100E00B684A6823
:106BF0004360934208BF0023016008BF43607047B1
:106C0000436843B10268916852680B449342436001
:106C100004BF0023436070470C4B1B78062B10D138
:106C20000B4B1B681A070CD10A4B186800F0F003D5
:106C3000302B08D000F0E000A0F14003584258414A
:106C40007047002070470120704700BFE00F00F040
:106C5000E40F00F0E80F00F0094B1B78062B0CD175
:106C6000084B1B681A0708D1074B186800F0F000A2
:106C7000A0F130035842584170470020704700BFD0
:106C8000E00F00F0E40F00F0E80F00F008B5FFF7A8
:106C9000C3FF28B17D4B7E4A1B68C3F304231360F6
:106CA000FFF7DAFF10B17B4B7B4A1A60FFF7B4FFA6
:106CB00028B17A4B7A4A1B68C3F342331360FFF75B
:106CC000CBFF20B1774AD36823F08073D360FFF7FE
:106CD000A3FF40B14FF080430022C3F80C21C3F85A
:106CE0001021C3F83825FFF7B7FF10B16E4B032210
:106CF0001A60FFF7B1FF40B16C4B05221A60012208
:106D00009A6700229A603F225A60694B1B78062BD3
:106D100050D1684B1B6819074CD1674B1B6803F0B7
:106D2000F003502B46D14FF08052644BD2F804143C
:106D3000C3F82015D2F80814C3F82415D2F80C149F
:106D4000C3F82815D2F81014C3F82C15D2F814146F
:106D5000C3F83015D2F81814C3F83415D2F81C143F
:106D6000C3F84015D2F82014C3F84415D2F82414FF
:106D7000C3F84815D2F82814C3F84C15D2F82C14CF
:106D8000C3F85015D2F83014C3F85415D2F834149F
:106D9000C3F86015D2F83814C3F86415D2F83C145F
:106DA000C3F86815D2F84014C3F86C15D2F844241F
:106DB000C3F87025FFF730FF28B1414B414A1B68EB
:106DC00003F04F031360FFF727FF48B14FF08043F4
:106DD000D3F80024D20744BF6FF00102C3F80024A7
:106DE000394B1B68062B08D1384B1B68062B01BF9B
:106DF000374A136843F480631360364AD2F8883008
:106E000043F47003C2F88830BFF34F8FBFF36F8F26
:106E10004FF01023D3F80022002A03DBD3F804320A
:106E2000002B2FDA2C4B0122C3F80425D3F80024C1
:106E3000002AFBD04FF010221521C2F80012D3F81F
:106E40000024002AFBD04FF010231522C3F804229F
:106E5000214B1A46D3F800140029FBD00021C3F8B7
:106E60000415D2F80034002BFBD0BFF34F8F194923
:106E70001A4BCA6802F4E0621343CB60BFF34F8F32
:106E800000BFFDE7164B174A1A6008BD2403001027
:106E90004035014074C007400DF0ADBA4402001007
:106EA0003C050040F0ED00E0A00500401056004019
:106EB000E00F00F0E40F00F0E80F00F000C0004029
:106EC00058020010E40E00403001001034010010A0
:106ED0003C17004000ED00E000E001400400FA052E
:106EE000A81800200090D003054A4FF0A043105C82
:106EF000D3F8043523FA00F0C04300F001007047D6
:106F0000B4860200044B1A5C012393404FF0A04268
:106F1000C2F80C35704700BFB4860200044B1A5CFF
:106F2000012393404FF0A042C2F80835704700BFDC
:106F3000B486020008B50020FFF7F0FF0120FFF73C
:106F4000EDFF0220FFF7EAFF0320BDE80840FFF74E
:106F5000E5BF08B50020FFF7D5FF0120FFF7D2FFFE
:106F60000220FFF7CFFF0320BDE80840FFF7CABFAC
:106F7000074A4FF0A041105CD1F80435012282404D
:106F800022EA03001340C1F80805C1F80C35704728
:106F9000B4860200192809D00E2809D00F2809D07C
:106FA00010280CBF03204FF0FF30704700207047BF
:106FB0000120704702207047C20708B501460CD572
:106FC0004FF0A0430322C3F86827C3F84827C3F84B
:106FD0004C27C3F85027FFF7ADFF8B070AD54FF0BA
:106FE000A0430C22C3F86427C3F83827C3F83C2712
:106FF000C3F8402708BD000038B5074C051E04F152
:10700000080318BF1C4623682BB11A6822605B680E
:1070100028469847F7E738BD441A002020B9054BA9
:1070200001225A70FFF7E8BF012802D1014A90708F
:10703000F8E770473C1A002020B9034B01225A7030
:10704000FFF7DABF704700BF3C1A002038B50B4C81
:10705000237883B90A486360A3602361E36000F08A
:1070600095F8054601F074F908B900F09BF8012382
:107070002370284638BD8525FBE700BF3C1A002059
:107080001D70020037B5184CA378054603F0FF02C7
:107090009BB110B143680120984700230DF1070010
:1070A0008DF80730FFF72AFDE3689DF807000133EC
:1070B000E360FFF747FD03B030BD0DF107008DF829
:1070C0000720FFF71BFD25B1226913463BB92A6053
:1070D0002561E368002BE7D100F078F8E4E79D42F2
:1070E000F7D01B68F2E700BF3C1A002037B50B4C05
:1070F00000230DF107008DF80730FFF7FFFCE36870
:10710000013BE360E56815B900F086F8A5709DF8CD
:107110000700FFF717FD03B030BD00BF3C1A002089
:10712000012813B509D018B103281CD002B010BD36
:107130000F4B0122C3F88020F8E70E4C00230DF11D
:1071400007008DF80730FFF7D9FC23780BB9FFF75C
:107150007DFFE3689DF807000133E3600123A3701E
:10716000FFF7F0FCE2E700F01DF8FFF7BFFFDDE7F7
:1071700000E100E03C1A002000F18040002382B0D2
:10718000036003680193019B02B07047044A1379BE
:1071900023B90121106091801846704785207047FF
:1071A000501A0020084B1A68D20706D4E02283F850
:1071B00000230122C3F880211A604FF0804301228E
:1071C000C3F81825704700BF00E100E038B54FF460
:1071D0008270FFF7D1FF4FF080430222C3F80423EF
:1071E0000A4AD06840F08073D360094B1C6844F0B1
:1071F000010119605D685968491BB1F50A5FFAD34E
:107200001C60044BD06001221A6038BDF0ED00E034
:10721000001000E008000040044B01221A604FF00B
:107220008042D2F81834DB03FBD470470C000040D6
:10723000124B1B6810B573B14FF48070FFF79CFFC1
:107240004FF080430122C3F808230D4B587910B941
:107250005A711B6898470B4B1B6873B14FF48270CF
:10726000FFF78AFF4FF080430222C3F80823044B44
:1072700001201B68BDE81040184710BD0001004008
:10728000501A00200401004000F1804000F5C04089
:10729000002382B0036003680193019B02B0704732
:1072A000800000F1A040D0F8003723F44033C0F84C
:1072B0000037D0F8003743EA0141C0F800177047A3
:1072C000054B4FF0FF32072843F8202084BF1B18DE
:1072D00083F84820704700BF581A002010B5184C9A
:1072E00094F8583053BB04F130032021FF220139B8
:1072F00011F0FF0103F8012BF9D1C8B2FFF7E0FF4D
:1073000001310C29F9D1042200210E4801F07CF949
:107310000D4BE02283F806234022C3F880214FF46E
:10732000BE701A60FFF7B0FF084B4FF00042C3F881
:107330000423012384F85830002010BD0820FCE706
:10734000581A0020AC1A002000E100E00060004064
:10735000034B93F85800003018BF0120704700BF5E
:10736000581A0020F0B5374B1C1894F93040002C07
:107370001C4664DA8D78C5F34005002D0BBF082349
:1073800000230C260826B34201D10420F0BD54F896
:10739000237001373FD1261844F8232086F8303077
:1073A00015B9E21882F848008A78550713D4D60731
:1073B00033D5820002F1A042D2F8005725F0020531
:1073C000C2F80057204EC50800F007070122BA4056
:1073D000775D3A4372558A780D7812F0020225D013
:1073E0009B0003F1804303F5C0430202D3F810155C
:1073F00021F4473121F44071C3F810152D04D3F85E
:10740000101502F4F85205F440352A430A43C3F834
:1074100010250020BAE70133B5E74D7800F5E0729A
:107420004FF0A046AD0046F82250CBE7083B23447E
:1074300093F8501041EA851583F85050E9E7082089
:10744000A4E700BF581A0020AC1A002038B51F4C22
:10745000251895F93020072A17DD224492F84810A4
:10746000890903290CD14FF0A043D3F81035C3404C
:1074700013F0010F08BF0221BDE83840FFF710BF2D
:10748000012914BF03210221F6E7D3B2072B1CD830
:10749000930003F1804303F5C043D3F8100540F097
:1074A0000100C3F8100502F14000800080B2FFF730
:1074B000EBFE51B195F9303054F823302BB1012354
:1074C00003FA02F2024BC3F8042338BD581A002015
:1074D000006000404FF0A043D3F8103523FA00F0CD
:1074E00000F00100704700002DE9F04F85B0002446
:1074F000594D01944FF48072012102F1804303F54C
:10750000C04390B21B68012B06D1D5F804330B425F
:1075100002D0FFF7B9FE0C430432B2F5907F4FEA78
:107520004101EAD14D4B1B68012B0AD14FF4BE70CB
:10753000FFF7AAFE4FF0A04344F00044D3F8103503
:10754000019314F0FF0F1AD0454F01260025344255
:1075500010D0AB0003F1804303F5C043D3F810050E
:10756000D3F8101557F8253023B1C1F30141C0F30A
:10757000042098470135082D4FEA4606E7D1002C34
:1075800063DA00224FF0FF33CDE90223344D354E4C
:107590000024A24601274FF0A04816F9012B531CE6
:1075A00046D0D2B222F0C0094FEAD90104A808445B
:1075B00002F0070310F804CC07FA03F31CEA030FE8
:1075C00036D005EB090C92099CF930C055F82CB067
:1075D000BBF1000F0AD1032A2AD10DF1080E1EF8C3
:1075E00001C04CEA030C0EF801C001E0032AF4D0FC
:1075F00009F5E07110F80C0C58F821101842C1F38D
:10760000014105D0022913D1032A0BD1114604E010
:1076100003290DD1032A05D102214846FFF740FE78
:107620000134E4B2BBF1000F02D011464846D847FE
:107630000AF1010ABAF1040FAFD134B14FF0A043FF
:10764000019AD3F81035934202D105B0BDE8F08F0E
:107650000193029B03939AE7006000407C61004025
:10766000581A0020A81A0020014B1B68184700BFB9
:10767000B41A00200220FFF77BBC00002DE9F04780
:1076800081460D46FFF786FC0328044604D8012DE9
:1076900004D025B3022D2FD0BDE8F087194D470047
:1076A0003A18A918AE5C4A7852B1DFF868801648DB
:1076B00042464FF40041FFF7CBF908B988F8009033
:1076C0003B192B449A78114B1A55002EE4D0104BDD
:1076D0001B68002BE0D03046BDE8F04718470A4849
:1076E000FFF7FCF9074B04EB440213449E78074B69
:1076F0001B5DB342D0D1E8E7024B00EB40041C44D1
:107700006678E2E7201B0020E01A0020391B0020E9
:10771000341B0020BC1A002002210078FFF7AEBF06
:1077200008B5094B1B7853B10020FFF7F7FB012088
:10773000FFF7F4FB0320BDE80840FFF7EFBBBDE80F
:107740000840FFF7F7BB00BFBD1A0020F8B5794C21
:10775000237805461BB100232370FFF7E1FF172DA7
:1077600000F28480DFE805F00C13133F5061727C57
:1077700084898489919696969696C0C5CDD5E0E089
:10778000FFF7CEFF6C4B00241C702046F8BD002094
:10779000FFF7AAFBF8B10020FFF7C0FB022D0CBFDA
:1077A0004FF4E1614FF47A61634B1D704FF4004078
:1077B0004FF4FA740025E0FB01454FF47A72002380
:1077C0002046294600F090FE002201465B48BDE8B5
:1077D000F840FFF73DB9FFF795FB022D0CBFC8211C
:1077E0004FF4C871E0E70020FFF77EFB40B10020B6
:1077F000FFF794FB4FF448714F4B03221A70D5E703
:10780000FFF780FBC821F7E70020FFF76DFB38B1D9
:107810000020FFF783FB4FF47A61474B0422EDE72A
:10782000FFF770FB4FF4C871F7E70020FFF75CFB30
:1078300048B10020FFF772FB3F4B05221A7041F65A
:107840009A110022C2E7FFF75DFBF5E70020FFF782
:107850008FFB394B06221A70002240F6CD41B5E766
:107860000020FFF74FFB344B07221A7000248CE7EF
:1078700001202070FFF77CFBEEE701202070FFF76E
:1078800077FB00224FF48041A0E7FFF762FB2A4B11
:107890000C22EAE72A482B4EFFF720F9D5F1110513
:1078A00004461CD0D8B9012D13D0C8235D434FF432
:1078B00000474FF4FA7000214FF47A720023C7FB9F
:1078C000050100F011FE224601461D48FFF7C0F8F1
:1078D00004460220FFF716FB0123337055E7022010
:1078E000FFF71CFB0023F8E7FFF71AFF124B1222E9
:1078F000BBE7FFF715FF0020FFF704FB0E4B132239
:10790000B3E7FFF70DFF0120FFF7FCFA0A4B142243
:10791000ABE7FFF705FF0020FFF7F4FA0120FFF7C0
:10792000F1FA054B1522A0E7FFF713FB024B1D7080
:107930009CE700BF301B0020381B0020001B0020EC
:10794000C01A0020BD1A0020044B1B68DB0703D5BA
:10795000034B1878FFF7FABE704700BF2C1B0020BE
:10796000381B0020044B1B6813F0010301D0FFF704
:10797000EDBE1846704700BF2C1B002038B51C4BCD
:1079800018601C4B10F00204054619601AD01A4BFF
:107990001A480E221A700F22DA7010229A711122E0
:1079A0005A72042140F26662FEF76CFD044648B943
:1079B000FEF7BCFD044628B90146114A1148FFF7FD
:1079C00035F80446EB0711D50120FFF7F5FA6CB93D
:1079D00021460D4A0D48FFF729F8044630B90C4AF4
:1079E0000C480121BDE83840FFF720B8204638BDDB
:1079F0002C1B0020341B0020201B0020B886020016
:107A000019770200DC86020049790200E086020054
:107A100075760200D88602006CDF70476DDF704714
:107A200072DF704773DF704774DF704777DF70472E
:107A3000324B00200922C3F81805C3F81025032291
:107A4000C3F814050121C3F8F0252D4AC3F83016F8
:107A5000C3F82C26C3F8F805C3F80015D960D3F88D
:107A600010110029FBD00021C3F81011D3F8001425
:107A70000129FBD001211960204B1946D3F80001E0
:107A80000028FBD00020C3F8000101205860D1F885
:107A90000431002BFBD00023C1F804311388DFED43
:107AA000196A194A1BB207EE903AF8EEE77A174BBB
:107AB00087EEA67A83ED007AD3ED007AB2EE047AEF
:107AC00067EE877AFCEEE77A17EE903A137001239F
:107AD0008B600A4BD3F81421002AFBD00022C3F894
:107AE0001421C3F800250222C3F80823084B802282
:107AF000C3F88020C3F88021704700BF00700040A9
:107B0000C41B0020CD388E45431B0020C01B002025
:107B100000E100E007B504220DEB0200002100F0B7
:107B200073FD02220021684600F06EFD4CF20563F1
:107B30006946022201A8ADF8003000F03CFD0122A8
:107B400009490DF1060000F036FD012207490DF14B
:107B5000070000F030FD04220DEB0201044800F0A4
:107B60002AFD03B05DF804FB3E1B00203D1B0020F6
:107B70003F1B002070B52C4D2B7892B023B1002014
:107B8000FFF752FF00232B7059230424ADF8003077
:107B9000FFF7C0FF254B02933C22002103A8ADF85C
:107BA000044000F031FD8DF80F40214CCDF830D06D
:107BB00000261822314620468DF80C6000F024FD86
:107BC0001C4A66600523237052F8041B26754FF487
:107BD000C86303A8A360A68100F06AF908B1FEF7A4
:107BE000BBFC134A13491448FFF71AFF08B1FEF70C
:107BF000B3FC002211460120FFF718FF08B1FEF781
:107C0000ABFC0D4B01211878FFF70CFF08B1FEF714
:107C1000A3FC0220FFF7A6FE08B1FEF79DFC01239E
:107C20002B7012B070BD00BF441B00203F1B002012
:107C3000881B0020AC180020BC18002008B5FFF7F6
:107C4000F7FE064B1A78064B1978914204D01A7049
:107C5000BDE80840FFF78EBF08BD00BF431B0020F2
:107C60003D1B0020024B00221A70FFF783BF00BFAC
:107C70003E1B00200E2808B50FD1084B01221A70B8
:107C8000FFF778FF00224FF420310548FEF7E0FEB1
:107C900018B1BDE80840FEF75FBC08BD3E1B0020E0
:107CA000681B002007B5009B03F001020C4B134337
:107CB00000934FF42F43ADF804306846C1238DF88C
:107CC0000630FFF7A9FE08B1FEF746FC6846FFF74D
:107CD000A5FE08B1FEF740FC03B05DF804FB00BF51
:107CE0000264000107B5FFF7B1F908B1FEF734FCF3
:107CF0000020FFF7C7F9FEF769FE08B1FEF72CFC7C
:107D0000264A27480021FEF791FE08B1FEF724FC21
:107D1000244A25480121FEF789FE08B1FEF71CFC24
:107D200000224FF4B4012148FEF792FE08B1FEF79D
:107D300013FCFFF77DFE1E4B1E491A781E4B0220D6
:107D40001A70FFF71BFE08B1FEF706FC4FF08043E8
:107D50000122DA67C3F87825FEF70CFF08B1FEF7B9
:107D6000FBFB00F0AFFA08B1FEF7F6FB002301A918
:107D70000120019300F036FB08B1FEF7EDFB01A8EE
:107D800000F088FB08B1FEF7E7FB0120FFF78AFF50
:107D9000FFF7F0FEFEF704FFFCE700BF657C020082
:107DA000E88602003D7C0200E4860200481B0020B9
:107DB000431B0020757C02003D1B00206DDF7047D7
:107DC00079DF70477DDF704764DF70472DE9F04F42
:107DD00085B000250E9CBDF83CB0278801918046F7
:107DE00091469A462E46B8F80020B2420CDC3DB1CE
:107DF0002288013AD21B92B2FF2A3BD80AF8072008
:107E0000002005B0BDE8F08FD8F8042052F8260015
:107E1000039000220DF10B0103A8FFF7D5FF002806
:107E2000EFD19DF80B204A4522D12288002D14BFA6
:107E30000020022002EB0901014459451ADC45B932
:107E4000013292B2019B22800AF80230228801326C
:107E5000228022880DF10B01524403A8FFF7B4FFE2
:107E60000028CED121889DF80B200A4422800125CC
:107E70000136B8E70C20C4E72DE9F341089CBDF8B2
:107E800024501746CDE90045022206469846FFF7E2
:107E90009DFF50B94346102239463046CDE908458A
:107EA00002B0BDE8F041FFF791BF02B0BDE8F0813C
:107EB0002DE9F04F00231688138090F82D3085B0FF
:107EC00007460D46144653B3082E01D80C2007E18F
:107ED00002A8FFF773FF002840F0028123880822E0
:107EE000EA54238801339BB21B222380EA54208862
:107EF000013080B2208006220DF10901284400F0F3
:107F00005AFB23889DF8082006339BB212F0FE022C
:107F100018BF01222380EA54238801332380BB78D1
:107F2000FBB123880433B342D0D802A8FFF748FF3F
:107F3000002840F0D58023880322EA5423880133A7
:107F40009BB219222380EA542388BDF8082001330C
:107F50009BB2E9182380EA54120A4A70238802333C
:107F60002380FA789AB12388D91CB142AED8022175
:107F7000E954238801339BB201212380E9542388EB
:107F80000B449BB22380EA5423880B4423807A68F5
:107F9000AAB12388D91CB14298D8022192F90020B5
:107FA000E954238801339BB20A212380E9542388B2
:107FB00001339BB22380EA542388013323803B8919
:107FC000002B40F081803B8A53B1CDE900462B461F
:107FD0000722032107F11000FFF74EFF00287FD191
:107FE0003B8B53B1CDE900462B461522142107F1F6
:107FF0001800FFF741FF002872D13A6A002A72D1B7
:10800000D7F82480B8F1000F30D0B8F804302188B8
:10801000981C8A1C0244B2423FF658AFFE283FF635
:1080200055AF03336B54238801339BB2FF22238067
:10803000EA54238801339BB22380B8F80020EA5425
:10804000E918120A4A702088023080B22080B8F8FD
:1080500004205AB1D8F8081000294ED0284400F066
:10806000AAFA2388B8F804201344238097F82C3008
:10807000002B7DD1387898B33B88012B3DD02288E6
:1080800002F1020CB4453FF621AF012805D17B78FF
:10809000023313449E42FFF419AF023EB61AB6B241
:1080A00002A905EB0C00ADF80860FFF78BFEB8B92C
:1080B0003B78022B40F09F80BDF80830B34240F27D
:1080C000B580ADF808609FE0CDE900462B4606225A
:1080D000022107F10800FFF7CFFE00283FF473AF3D
:1080E00005B0BDE8F08FB4F800C00CF10603B34250
:1080F0003FF6ECAE1188052901D80720F0E76FF4B0
:10810000486E01EB0E039BB24FF27D3E7345F4D9EE
:108110005388052BF1D96FF44860181880B2704568
:10812000EBD94FF6FF70814203D0834201D09942D0
:10813000E3D8052305F80C30238801339BB21221C4
:108140002380E954238801339BB223801188E954AA
:10815000E818090A4170238802339BB223805288B1
:10816000EA54E918120A4A7023880233238047E749
:10817000BB6A002BC1D04FF000094FF00C0A4FF042
:10818000160B97F82C305FFA89F293427FF672AFA4
:10819000B96A0AFB02F201EB0208B8F80430981C35
:1081A000FE283FF693AE208803332B5423880133F7
:1081B0009BB2238005F803B0238801339BB2238050
:1081C0008A5AEA54E918120A4A702088023080B2AA
:1081D0002080B8F804205AB1D8F8081000298CD0B3
:1081E000284400F0E8F92388B8F8042013442380D9
:1081F00009F10109C5E7012B7FF463AF7B789E424B
:10820000FFF45FAFADF808300821BDF80830FE2B51
:108210003FF65CAE22880133AB542288013292B221
:108220002280A95422881344238059E70921ECE7CE
:1082300010DF704713B5044609496846FEF7D6FCBF
:10824000019808B902B010BDD0E900312046984726
:1082500018B16846FEF7D4FCF2E71120F2E700BF40
:10826000F086020013B5044607496846FEF7BEFCD7
:10827000019B0BB902B010BD2046D3E90021904705
:108280006846FEF7BDFCF3E7088702000B4A92F848
:1082900016335B09012B0DD9042B0BD0084B9968C1
:1082A00021B11A6842F480021A6070474FF48003CB
:1082B0001360704742F20200FEF74EB900E100E0A1
:1082C000201A0020F7B51C4F3C7894BB1B4E0125AB
:1082D00020463570FFF7AEFF112827D02046FFF764
:1082E000C1FF174B8DF80340186801900DF1030092
:1082F000FEF704FC134901A8FFF79AFF0446B0FA01
:1083000080F0400938709DF80300FEF71BFC6CB943
:108310000D4B34701C700D4BE02283F8162383F84C
:108320001523FFF7B3FF2846FFF79CFF204603B055
:10833000F0BD0824FAE700BFC71B0020C61B0020C1
:10834000EC86020075650200C81B002000E100E019
:10835000014B1878704700BFC71B002007B50849BC
:108360006846FEF743FC019B13B903B05DF804FBBC
:10837000D3E9002090476846FEF742FCF3E700BFD0
:10838000FC860200FFF7EABF60DF704769DF7047D5
:1083900061DF704730B5114B1B7891B0E3B1104DE0
:1083A00034240DF1020103A8ADF80240FFF7F0FFFD
:1083B00070B9294601A8FEF719FC029B002BF0D0EA
:1083C00003A8D3E90021904701A8FEF719FCF4E7C0
:1083D000052801D0FEF7C0F811B030BDC91B002040
:1083E000148702007FB504460D4600294DD0284B66
:1083F0000B600C22002101A800F006F901260623DB
:108400002A68ADF8083001A920208DF804408DF8C5
:108410000660FFF7BBFF0C22002101A8002400F03A
:10842000F3F82A688DF8054001A94020ADF8064010
:10843000FFF7ACFF0C22214601A800F0E5F82A68FE
:108440008DF8044001A93046FFF7A0FF0C22214619
:1084500001A800F0D9F8F8232A68019301A9A12006
:10846000FFF794FF0C22214601A800F0CDF89DF8FB
:1084700004302A6864F3000301A9A0208DF80430B9
:10848000FFF784FF204604B070BD0E20FBE700BF5D
:10849000A818002008B5FFF777FF10B9014B01229B
:1084A0001A7008BDC91B00204BDF70471FB50D4C6B
:1084B00001A8FFF7F9FF70B9214602A8FEF796FB65
:1084C000039B002BF4D00198D3E90021904702A828
:1084D000FEF796FBF4E7052801D0FEF73DF804B05F
:1084E00010BD00BF2087020053EA020C61D02DE9C5
:1084F000F04BB3FA83F51E0007BFB2FA82F502FA19
:1085000005F403FA05F41646C5F120051EBF22FA4C
:1085100005F73C43203556EA044C4FEA144418BF93
:108520000134A3464FF00009C846904271EB030C9A
:1085300039D3094207BFB0FA80F700FA07F6B1FA5B
:1085400081F701FA07F6C7F120071EBF20FA07FCE2
:1085500046EA0C062037B6FBFBFC7F1B103F07F0FA
:108560001F04C4F120060CFA04F42CFA06F644BFEA
:1085700034460026202FA4BF2646002454EA060CC9
:1085800008BF012418EB040849EB0609A4FB027C90
:10859000C01B06FB02CC04FB03CC71EB0C01904228
:1085A00071EB030CC5D20B46024649464046BDE876
:1085B000F08BB2FBF3F2844640EA010313F0030FA1
:1085C00018D18446202A0BD32DE9F007B1E8F8072B
:1085D000A0E8F807A2F12002202AF7D2BDE8F007B0
:1085E000042A07D351F8043B40F8043BA2F10402EB
:1085F000042AF7D2002A05D011F8013B00F8013B0C
:10860000013AF9D1604670478446002A2DD010F017
:10861000030F04D000F8011B013A26D0F7E7C9B2D6
:1086200041EA012141EA0141202A12D3A2F12002AC
:108630002DE9F0030B460C460D460E460F468846C4
:108640008946A0E8FA03203AFBD2BDE8F0032032C5
:108650000BD0042A05D340F8041B043A05D0042AA1
:0E866000F9D200F8011B013AFBD160467047C9
:08867000397002000000000057
:08867800217102000000000066
:108680009583020000000000AD840200000000009D
:10869000C8180020000000000000000000000000DA
:1086A0000338FDD870470000788602007886020003
:1086B000040000001A121314190003007D76020052
:1086C0000E0003007D7602000F0003007D7602009D
:1086D000100003007D760200C01A0020E01A00207E
:1086E000001B0020481B0020681B00200100000721
:1086F000908602009086020008000000808602003A
:108700009086020008000000788602008086020041
:108710000800000078860200788602000800000049
:0C8720007086020078860200080000004D
:10872C000090D003A01B00201F00000000000000E0
:05873C0000000000FF39
:04000003200062393E
:00000001FF
