:020000040002F8
:10600000E0640020F9620200016302000363020001
:10601000056302000763020009630200000000003C
:106020000000000000000000000000000B63020000
:106030000D630200000000000F6302001163020004
:106040009566020013630200956A02001363020062
:106050001363020013630200CD64020013630200A5
:106060001363020013630200136302001363020050
:106070001363020013630200136302001363020040
:1060800013630200ED660200136302001363020053
:106090007167020013630200756702001363020058
:1060A0001363020013630200136302001363020010
:1060B00013630200136302000000000000000000F0
:1060C00013630200136302001363020013630200F0
:1060D0001363020013630200136302000000000058
:1060E00000000000000000000000000000000000B0
:1060F00000000000000000000000000000000000A0
:10610000000000000000000000000000000000008F
:10611000000000000000000000000000000000007F
:10612000000000000000000000000000000000006F
:10613000000000000000000000000000000000005F
:10614000000000000000000000000000000000004F
:10615000000000000000000000000000000000003F
:10616000000000000000000000000000000000002F
:10617000000000000000000000000000000000001F
:10618000000000000000000000000000000000000F
:1061900000000000000000000000000000000000FF
:1061A00000000000000000000000000000000000EF
:1061B00000000000000000000000000000000000DF
:1061C00000000000000000000000000000000000CF
:1061D00000000000000000000000000000000000BF
:1061E00000000000000000000000000000000000AF
:1061F000000000000000000000000000000000009F
:10620000DFF80CD000F024F9004800477980020044
:10621000E064002030B4044654E8000F0D4644E822
:106220000053002BF8D1156030BC704730B40446E1
:1062300054E8000F40EA010544E80053002BF7D171
:10624000156030BC704730B4044654E8000F00EAD3
:10625000010544E80053002BF7D1156030BC7047AE
:1062600030B4044654E8000F80EA010544E80053C6
:10627000002BF7D1156030BC704730B4044654E8A9
:10628000000F00EB010544E80053002BF7D1156027
:1062900030BC704730B4044654E8000FA0EB010551
:1062A00044E80053002BF7D1156030BC704770B440
:1062B00004464FF0000054E8006F0D68AE4207BF7F
:1062C00044E80023012044E800630E60002B1CBF5B
:1062D0000020F0E770BC704730B4044654E8000F6B
:1062E00088422CBF451A054644E80053002BF5D1DF
:1062F000156030BC704700000648804706480047DC
:10630000FEE7FEE7FEE7FEE7FEE7FEE7FEE7FEE765
:10631000FEE7FEE779670200016202002DE9F05F07
:106320000546002092469B46884606468146402404
:106330001BE0284641464746224600F079F853467E
:106340005A46C01A914110D311461846224600F011
:1063500016F82D1A67EB01084F462246012000214E
:1063600000F00DF817EB00094E41201EA4F10104C6
:10637000DFDC484631462A464346BDE8F09F202AE6
:1063800004DB203A00FA02F1002070479140C2F18C
:10639000200320FA03F319439040704700487047E8
:1063A000CCAB02000649074A0868504343F2390261
:1063B00010440860400870470149086070470000B9
:1063C000C01900206D4EC64140EA01039B0703D06F
:1063D00009E008C9121F08C0042AFAD203E011F824
:1063E000013B00F8013B521EF9D27047D2B201E0E6
:1063F00000F8012B491EFBD270470022F6E710B5CA
:1064000013460A4604461946FFF7F0FF204610BD22
:10641000421C10F8011B0029FBD1801A704703466B
:1064200011F8012B00F8012B002AF9D1184670470A
:10643000202A04DB203A21FA02F00021704721FAD9
:1064400002F3D040C2F12002914008431946704740
:10645000064C074D06E0E06840F0010394E80700B1
:1064600098471034AC42F6D3FFF7CEFE1CB20200C0
:106470003CB2020070B58C1810F8015B15F00703F0
:1064800001D110F8013B2A1106D110F8012B03E0CD
:1064900010F8016B01F8016B5B1EF9D12B0705D4D5
:1064A0000023521E0DD401F8013BFAE710F8013B1E
:1064B000CB1A921C03E013F8015B01F8015B521E3A
:1064C000F9D5A142D8D3002070BD00002DE9F047D6
:1064D00000268AB0DFF85091B0464FF48075012451
:1064E00037460696284602F05FFA38B1D9F8040319
:1064F000204203D0284602F04DFA26432D1D6400A9
:106500007F1CADB2082FEDD34FF4BE74204602F0CD
:106510004BFA48B1204602F03DFA46F0004606AA82
:106520000121002002F022FA404D16F0FF0F15D095
:106530000127002437420DD009EB8401D1F8100562
:10654000D1F81015C0F3042055F82420C1F30141FF
:1065500002B190477F00641C082CEBD3002E5FDA59
:106560004FF0FF30CDF8108054E0281910F8507F1C
:1065700090F9000027F0C008401C3BD007A9404616
:1065800001F0C8FF10B34FEA9719404601F0F0F947
:1065900055F820701FB1B9F1030F03D006E0B9F12F
:1065A000030F27D104A9404601F0BCFF4FF0A041E2
:1065B00001EB8800D0F8000706A9C0F3014A404665
:1065C00001F0A8FF18B1BAF1020F03D012E0BAF13E
:1065D000030F0FD1B9F1030F08D1BAF1020F1DD08B
:1065E0000221404602F0A6F9761CF6B217B14946E0
:1065F0004046B847641C042CB7D3002E10D06A461E
:106600000121002002F0B2F906990098884207D0D3
:1066100006900498002634460790A6E70321E0E799
:106620000AB0BDE8F087000000600040001B0020B9
:1066300000F01F02012191404009800000F1E0209C
:10664000C0F88012704700F01F02012191404009FC
:10665000800000F1E020C0F80011704700F01F0238
:10666000012191404009800000F1E020C0F80012B3
:1066700070474907090E002806DA00F00F0000F104
:10668000E02080F8141D704700F1E02080F800142D
:106690007047000070B54FF48076304601F04CFF33
:1066A000114CB50560B1304601F04DFF0120C5F831
:1066B0000803607920B901206071216800208847B3
:1066C0004FF48276304601F037FF00280AD030467A
:1066D00001F039FF0220C5F808032168BDE87040C9
:1066E0000120084770BD0000E8180020074800217D
:1066F000C0F84011C0F84411C0F84811C0F84C115E
:10670000C0F80011C0F8041103F018BE00100140D9
:1067100000F0C6B970B50E46144900EB400001EB1D
:10672000C0051446E86A183520B101280FD00228A8
:1067300005D113E0284600F0E7F9A04201D2002479
:1067400011E022463146284600F016FA0BE02846B2
:1067500000F0DAF9A042F4D20446F2E731462846C6
:1067600000F0DDF90446204670BD000054220020F0
:1067700003F032BD02F084BEF0B5B5480023021D1F
:106780000178101D01254FF0805406290BD1167891
:10679000360708D10678C6F30316032E06D0042E5A
:1067A00004D0052E02D0062907D00EE0B4F82463E9
:1067B000A84FC6F304263E6002E01678360704D1DF
:1067C0000678C6F30316032E02D0062904D00FE084
:1067D000A24FA14E7E670EE01678360708D10678E4
:1067E000C6F30316032E06D0042E04D0052E02D0C5
:1067F000062907D00EE0D4F84462994FC6F342361A
:106800003E6002E01678360704D10678C6F3031618
:10681000032E02D0062906D011E0924E376827F0E9
:10682000807737600EE01678360708D10678C6F311
:106830000316032E06D0042E04D0052E02D00629FE
:106840000AD011E04FF08046C6F80C31C6F810317E
:10685000834E361F336002E01678360704D106787F
:10686000C6F30316032E02D0062905D00CE07C4F98
:10687000032664373E600AE01678360704D10678AE
:10688000C6F30316032E02D006290DD014E0764F6E
:1068900005263E60744E78363560734E0836336098
:1068A0003F263F1D3E6002E01678360704D1067889
:1068B000C6F30316052E02D0062957D062E06B4EB0
:1068C00036686B4F3E60694E361D36683F1D3E6030
:1068D000664E083636683F1D3E60644E0C3636689C
:1068E0003F1D3E60614E103636683F1D3E605F4E74
:1068F000143636683F1D3E605C4E183636685C4F75
:1069000020373E60594E1C3636683F1D3E60574E5C
:10691000203636683F1D3E60544E243636683F1D93
:106920003E60524E283636683F1D3E604F4E2C3634
:1069300036683F1D3E604D4E303636684C4F40370E
:106940003E604A4E343636683F1D3E60474E38360C
:1069500036683F1D3E60454E3C3636683F1D3E6002
:10696000424E403636683F1D3E6002E016783607DC
:1069700008D10678C6F30316032E06D0042E04D0E1
:10698000052E02D0062907D019E0D4F85812394A4A
:1069900001F04F01116002E0117809070FD1007872
:1069A000C0F30310032803D0042801D0052806D122
:1069B00031480168C90702D06FF001010160D4F8C5
:1069C0003001062808D1D4F83401062804D12B4818
:1069D000016841F48061016022487438016841F423
:1069E00070010160BFF34F8FBFF36F8F4FF0102125
:1069F000D1F80002002803DBD1F80402002822DAD3
:106A00001F4A15601F480468002CFCD01524C1F8EB
:106A100000420568002DFCD0C1F80442016800293D
:106A2000FCD0136001680029FCD0BFF34F8F0D48E4
:106A3000F0380168144A01F4E06111430160BFF3CA
:106A40004F8F00BFFDE7124910480860F0BD0000FD
:106A5000E00F00F0403501400DF0ADBA00C0074036
:106A60003C050040FCED00E010560040040400101E
:106A700020C50040E40E0040000400403C170040E8
:106A800004E5014000E401400400FA050090D00351
:106A9000BC1900200148006800470000F0180020E1
:106AA00010B5124C02202061606111A0A06104F1B8
:106AB0007800E0614FF4007020620020A062606204
:106AC0000BA1A164E06204F51E71E1641021A065D0
:106AD000C4E91410E06509A1E01DFFF7A0FC08A1BE
:106AE0002046FFF79CFC2020A07110BD54220020FE
:106AF0005465726D696E616C000000005254540060
:106B000053454747455200000269C1688A4203D88D
:106B10008068401A104400E0501A401E70472DE96A
:106B2000F047C4681746894606464FF000083069AA
:106B3000A04201D9051B02E0B168201A0D1AB06805
:106B40006D1E001BA84200D80546BD4200D33D463D
:106B500070682A4620444946FFF736FCB0687F1B20
:106B60002C44A844A944A04200D10024F460002F82
:106B7000DDD14046BDE8F0872DE9F0410446884666
:106B8000D4E90207C51BE168606816460844B542AF
:106B900006D94146FFF718FCB819E060BDE8F0815E
:106BA0002A464146FFF710FC761B08EB05013246EA
:106BB0006068FFF709FCE660F0E702E008C8121F12
:106BC00008C1002AFAD170477047002001E001C1D6
:106BD000121F002AFBD170470121202803DA8140CF
:106BE0000548014003E0402802DA2038814009B11D
:106BF0000120704700207047FC06FFBD082806D220
:106C000028B1012803D0042801D0012070470020BA
:106C10007047000030B593B059200425ADF83C0012
:106C200000F06AFF194811900D20ADF840003C219A
:106C30006846FFF7E2FB0FA80990002413488DF87F
:106C400000408DF8035018211838FFF7D6FB0F4885
:106C5000052118380E4A0170446004754FF44071E4
:106C60008160848102CA684600F01CFA08B100F015
:106C7000B5F8064A0649183AA1F1140072DF002857
:106C800001D000F0ABF813B030BD0000541A002062
:106C9000BC180020084810B50121007873DF08B146
:106CA00000F09CF8022000F07FFC002803D0BDE833
:106CB000104000F093B810BDA8180020022000F08A
:106CC00089BB000070B50024064D06E0686801210C
:106CD00010F8340002F0B0FC641C28788442F5D32C
:106CE000002070BDF8180020F8B515460C46064681
:106CF000052A01D20720F8BD02F09AFD18B902F06A
:106D00005FFD0028F7D1124900224E600C708D60A3
:106D1000C1E90422C1E906220E4D0DE006EBC400D4
:106D20002968009181788DF8011000780A4A694637
:106D300002F0D4FC0028DED1641EE4B2EED2BDE83D
:106D4000F84004480021054A001D00F053B8000037
:106D5000F8180020CCA80200A97C02006D7B02007C
:106D600072B602F0E7F800BF01F018FF0028FBD16F
:106D7000104C0121208801EB00400FA102F01EF809
:106D800010480068C00700D000BE2088022101EB37
:106D900000400DA102F012F8BFF34F8F0948E4380C
:106DA00001680D4A01F4E06111430160BFF34F8FA8
:106DB00000BFFDE7EC190020466174616C2065722C
:106DC000726F7200F0ED00E053797374656D20729C
:106DD00065736574000000000400FA050EB500211B
:106DE0000091CDE901106A4644F20100FFF7B8FFB7
:106DF0000EBD0000084B9B7823B12AB120B100687A
:106E0000037C1BB1082070470720704700230374E0
:106E10004174426118467047CC1B002070B503F0E6
:106E20000FF8104800240B21047044700E4D81703F
:106E300014206C602C706C70FFF7FAFB0721142093
:106E4000FFF717FC1420FFF7FEFB0848046007213A
:106E50001120FFF70EFC0548001F0068A860002005
:106E600070BD0000CC1B002018190020081501403F
:106E70002DE9FC47DFF8789099F8023073B368B3D6
:106E8000052902D20720BDE8FC87436933B3437C60
:106E9000012B25D0002704460025884616468DF88C
:106EA0000050684600F038F801A803F06BFCC8B148
:106EB000012101700F4944600968C0E90218C0E966
:106EC00004769DF8040089F801009DF8000000F0A8
:106ED00047F81420FFF7C2FB2846D4E70820D2E782
:106EE0000F46D8E704259DF8000000F039F8F3E7D5
:106EF000CC1B0020041501400649897839B130B116
:106F0000416921B100210174022103F0F3B9082085
:106F100070470000CC1B002030B5EFF3108172B633
:106F20000D4A9468012324B10370002900D162B690
:106F300030BD93604FF0E023D3F88051074C2540DB
:106F40001560C3F88041D3F8844154605A17C3F8E0
:106F5000842100220270E8E7D81C0020FC06FFBD57
:106F60000B498A68002A11D000280FD1EFF3108056
:106F700072B60B684FF0E022C2F800314B68C2F8DD
:106F8000043100228A60002800D162B670470000F8
:106F9000D81C00202DE9F041064608680C46411C2B
:106FA0004FF0A0474FF0010506D005FA00F1C7F8F1
:106FB0000815206801F0AAFC6068411C02D000217D
:106FC00001F092FC3168A069C1F82405607D227D42
:106FD00031681043C1F86C05D4E900123068C0F87C
:106FE0001425C0F80C15207D012815D1A068411C7E
:106FF00002D0002101F078FCE068411C05D08540FA
:10700000C7F80855E06801F081FCD4E90212306845
:10701000C0F80825C0F81015BDE8F0812DE9F04151
:10702000064608680C46411C4FF0A0474FF001058A
:1070300006D005FA00F1C7F80815206801F070FCC9
:107040006068411C02D0002101F057FC3168A06942
:10705000C1F82405607D217D32680843C2F86C05C3
:10706000D4E900123068C0F80C15C0F81425207D52
:10707000012815D1A068411C02D0002101F03DFC7F
:10708000E068411C05D08540C7F80855E06801F06C
:1070900047FCD4E902123068C0F80825C0F8101582
:1070A000BDE8F0812DE9FC470025178806461580CC
:1070B00090F82D001446894630B13A46214648469C
:1070C00000F0B1F8051E09D1B0784FF00C0A18B3E2
:1070D0002088C846001DB84202D95046BDE8FC874A
:1070E000684679DF0028F9D12088032108F80010CC
:1070F00020881921401C80B2208008F800102088C8
:10710000401C80B2208000EB0801BDF8000003F0B5
:10711000D9FA218808442080F0780222C8B1218859
:1071200096F9033001F1030C4846BC45D5D84254CA
:1071300021884FF0010C491C89B2218000F801C060
:107140002188491C89B2218009F801302088401C1F
:1071500020807068B8B1218890F9003001F1030CEB
:107160004846BC45B9D8425421880A22491C89B2F4
:10717000218042542188491C89B2218009F80130BC
:107180002088401C2080308950B1CDE900474B4613
:107190000622022106F1080003F00CFB051E9DD11A
:1071A000308A50B1CDE900474B460722032106F152
:1071B000100003F0FFFA051E90D1308B50B1CDE9DD
:1071C00000474B461522142106F1180003F0F2FA8D
:1071D000051E83D1306A30B13B462246494600F055
:1071E00047FC051EDBD1706A30B13B46224649465A
:1071F00001F048F8051ED2D196F82C0038B13B4674
:1072000022464946304602F029FF051EC7D1307894
:1072100038B13B4622464946304601F0B9F8051ED2
:10722000BDD128465AE77CB5054608880C4609308A
:10723000904201D90C207CBD68466DDF0028FAD150
:1072400021880820685420881B21401C80B220809F
:1072500029542088401C80B220802844DDF8011089
:107260000160BDF8051081802088801D80B22080DB
:107270009DF80010490800D0012129542088401CA5
:10728000208000207CBD70B5FFF78CF80B2190FBAF
:10729000F1F201FB12054635FFF784F8152190FB4A
:1072A000F1F201FB12046434FFF77CF8C11700EB24
:1072B000917121F00301461A2846463600F028F85D
:1072C000204600F041F8304602F092FDBDE87040E3
:1072D00040F26D10AFF30080642190FBF1F108B52E
:1072E0008DF800100A2190FBF1F292FBF1F301FB03
:1072F00013228DF8012090FBF1F201FB12000349EB
:10730000BDF80020CA81087408BD0000A81800203C
:10731000642190FBF1F108B58DF800100A2190FB73
:10732000F1F292FBF1F301FB13228DF8012090FBA7
:10733000F1F201FB12000349BDF80020A1F805207D
:10734000C87108BDA8180020642190FBF1F108B5B0
:107350008DF800100A2190FBF1F292FBF1F301FB92
:1073600013228DF8012090FBF1F201FB120003497A
:10737000BDF800200A81887208BD0000A81800200E
:107380002DE9FC410646C0074FF000050ED0104F16
:1073900000240122385D009500231146019501F07B
:1073A00049FA641C042CF4D300F046F8B0070DD55C
:1073B000074E0024361D0022305D03230095114640
:1073C000019501F037FA641C042CF4D3BDE8FC816C
:1073D0008CA8020007490B5C4FF0A041D1F80425AE
:1073E0000120984020EA0203C1F808351040C1F896
:1073F0000C0570478CA802000249085C012101F0CD
:10740000AABA00008CA802000249085C002101F021
:10741000A2BA00008CA802000649095C4FF0A04007
:10742000D0F80405C84010F0010000D0012080F021
:10743000010070478CA8020010B500242046FFF719
:10744000DBFF641C042CF9D310BD10B500242046CA
:10745000FFF7DAFF641C042CF9D310BD10B5024607
:10746000064B4FF0FF3000215C5C944201D108468E
:1074700010BD491C0429F7D310BD000090A80200DC
:107480002DE9F0470D468146FFF7E8FF0446042842
:1074900036D2DFF874801B481C4EA8F10C0725B3C8
:1074A000012D0ED0022D2BD104EB44003044457841
:1074B000002D25D0B968002922D02846BDE8F04724
:1074C000084704EB4401755C0E44717849B10E4ADB
:1074D0004FF40041093A8068FFF7CAFC08B987F801
:1074E0000390B17808F80410E2E78068FFF704FD24
:1074F00004EB4401314418F804008D78A842D7D039
:10750000BDE8F08794A80200D8180020C01A002017
:1075100010B50E2821D1114800684FF400210F4A00
:107520008143121D1160111D00F40020086001202C
:1075300000F080F9002074DFFFF76CFBFFF7AAFB77
:10754000074800224FF420314068FFF791FC0028E3
:1075500003D0BDE81040FFF741BC10BD040500504A
:1075600084A8020070B50023042810D20D4D00EB52
:107570004004012A02D101290CD00022094E00EB5F
:107580004000304461B1012906D0022906D007230A
:10759000184670BD0E30C2B22A55F9E74270F7E7BF
:1075A0008270F5E7C01A0020044A014600201279D3
:1075B000D20702D0084600F04DB87047CC18002022
:1075C00070B506461E480024C0E90161B00720D509
:1075D0000025012211462846FFF7C4FF6D1C044612
:1075E000042D02D2002CF4D013E094B940F266626C
:1075F00004211448FFF778FB04000AD1FFF762FB6F
:10760000040006D10F48104A0021001FFFF7F2FBCB
:107610000446F00712D00120FFF7B2FE74B9094802
:107620000A4A00210C38FFF7E5FB040006D10548A3
:10763000074A01210838FFF7DDFB0446204670BDEC
:10764000CC180020A0A8020005790200D17E02001B
:10765000BD6C02002DE9F05F6A4C0546002660789B
:10766000B34618B184F801B000F01AFC664F4FF42D
:107670007A694FF4C87A4FF00108182D62D2DFE81A
:1076800005F0AC0C0C31404D62676B746B74BE7DC1
:107690007D7D7D7DACAFB2B5BEBE0020FFF7BCFEE8
:1076A00000284FF0000008D0FFF7A6FE022D02D1FF
:1076B0004FF4E16008E0484606E0FFF7A5FE022D22
:1076C00001D1C82000E05046410CC0034FF4FA72CB
:1076D000801841F10001257052000023FEF71EFEC4
:1076E00001462AE00020FFF797FE00284FF0000037
:1076F00004D0FFF781FE4FF44870E5E7FFF784FE02
:10770000DFE70020FFF788FE00284FF0000002D0DE
:10771000FFF772FECFE7FFF777FED4E70020FFF711
:107720007BFE00284FF0000002D0FFF765FE01E06D
:10773000FFF76AFE257041F69A1100223868FFF7BC
:1077400097FB064646E00020FFF744FE257008E060
:10775000002051E025703DE084F801800120FFF712
:1077600039FE002240F6CD41E8E784F8018001208F
:10777000FFF730FE00224FF48041DFE77868FFF723
:10778000BBFB0646D5F1110000D02EB10220FFF759
:1077900033FE84F802B01DE0012816D980B2C8215A
:1077A0004843C117C90341EA5041C0034FF4FA727C
:1077B000801841F1000152000023FEF7AFFD0146A1
:1077C00000227868FFF754FB06460220FFF71CFEF4
:1077D00084F802803046BDE8F09F00F061FBB9E715
:1077E00000F05EFBB4E700F05BFB04E000F058FB48
:1077F0000020FFF709FE0120FFF706FEAAE7FFF7CA
:1078000024FEA7E7CC18002094A8020000B50020B1
:1078100000F010F8064800684FF40021044A814344
:10782000121D1160111D00F40020086000BD000051
:10783000040500500149487070470000A818002056
:107840002DE9F8430546861C00208DF8000090467F
:107850000F464FF001096846FFF75EFB1B4C20689E
:107860003860D4E90001401AA16804F21C47081AE4
:107870000EE00121384600F0DFFD00F0AFFB0146CD
:10788000384600F0D9FDD4E90001401AA168081A71
:10789000401C8642EDD8B8F1000F03D0052065F3F7
:1078A000891002E0062065F39F50A268216811400C
:1078B00004EB8101C8602068304420609DF800001E
:1078C000FFF74EFB4846BDE8F8830000301E00205D
:1078D00030B482680468531C8360A154D0E901125B
:1078E0008A4202D330BC00F0ACBE30BC704700000E
:1078F000034803C8814201D101207047002070472E
:10790000301E002000780221FFF7BABD05494FF074
:10791000FF32082841F8202002D3084480F848208C
:1079200070470000001B0020F0B54FF0FF3512B18A
:107930000023082601E008230C260C4C05E000BFBC
:1079400054F823707F1C04D05B1CB342F8D3284644
:10795000F0BD26185DB286F8305044F82310002A96
:10796000F5D1E11881F84800F1E70000001B002084
:107970000249084490F9300070470000001B0020C5
:1079800070B5084C050009D010342168002907D0D3
:1079900008682060496828468847F6E70834F4E715
:1079A00070BD0000EC1A0020054A012120B1012819
:1079B00005D19170FFF7E4BF51700020FAE77047DE
:1079C000EC1A00202DE9F05F26484168F1B3DFF89A
:1079D00098B00E688146DBF8004087688078E11B2C
:1079E00021F07F45ED1CB0B9DFF880804FF4803086
:1079F000C8F84403C8F804031120FEF719FE11204B
:107A0000FEF721FE4FF0010AC8F800A02F2001F078
:107A10000BFE89F802A0B54200D23546124BE81998
:107A20003C3320F07F401860DBF800105A46091BF9
:107A300021F07F41001B20F07F40C91C81420FD9FB
:107A4000106818602F2001F0EFFD00E004E0BDE8B1
:107A5000F05F1120FEF702BEBDE8F05F02F0F0B962
:107A6000BDE8F09F181900200415014000100140E6
:107A70002DE9F04117880646B81D14460D46984278
:107A800002D90C20BDE8F0813188072206290AD3EB
:107A90004FF4486C4FF6FF73614501D9994202D10A
:107AA0007088062801D21046ECE7604501D998425B
:107AB000F9D1994203D0984201D08142F3D80520F0
:107AC000E85520881221401C80B22080295420884B
:107AD000401C80B220804119308802F0F3FD2188DB
:107AE000084480B220804119708802F0EBFD2188A3
:107AF000084420800020C5E710B50D2000F08CFB65
:107B0000184904460D22D1F805002060D1F809007B
:107B10006060487B20728868C4F80300C868C4F8B5
:107B20000700087CE072D1F80B00C4F80600D1F819
:107B30000F00C4F80A00C87CA073D1F80E00C4F886
:107B40000900D1F81200C4F80D00887D60744878EF
:107B5000207321460448FEF737FC2046BDE810405C
:107B600000F07AB8A8180020541A00202DE9F04738
:107B70000025DFF88C803CE06068002100EBC50642
:107B8000012032789146FEF7FAFBD4E9062300EA99
:107B9000020701EA030C57EA0C0728D082438B4303
:107BA0004846C4E9062301F001FE32788246914638
:107BB00001200021FEF7E3FBD4E9042300EA0204DC
:107BC00001EA03074A4650460021FEF7D8FB44402D
:107BD0004F403C430BD17078012801D0012100E0D7
:107BE0000021726881EA0A010AB1484690476D1C7B
:107BF000EDB298F8000044468542BDD3BDE8F08759
:107C0000F818002010B50021024800F020FC80F395
:107C1000100010BD4C2200200E4910B50A784C7897
:107C20000023A24212D0521CD2B20A70022A00D102
:107C30000B70084A0B780C3252F8232002608868D7
:107C4000104420F07F408860012010BD03600020B8
:107C500010BD00001819002010B5002821D0114BCC
:107C60000022001F196803E0814203D80A464968D0
:107C70000029F9D152B11368841A9C4204D10068DA
:107C800018441060104602E0506000E0186039B1FE
:107C900002680B1A934203D10B681A4402604968C8
:107CA000416010BDC41900202DE9F0418046024614
:107CB00001200021FEF763FB1A4F05460E46786847
:107CC000FFF71AF900280CD1174CD4E90621104609
:107CD0002A4001EA06031A4305D0A843B143C4E988
:107CE0000601BDE8F081404601F060FD30B1D4E905
:107CF000040128433143C4E9040105E0D4E9041038
:107D0000A943B043C4E90410D4E906012843314330
:107D1000C4E90601A1687868BDE8F0410022FFF7D8
:107D2000A7B80000CCA80200F81800202DE9FC5FDD
:107D30000E008346DDE90C47C6F1000098469246E6
:107D4000814600D40846012503E000BF90FBFAF00D
:107D50006D1C5045FADAA84500D9454624B1002EDD
:107D600001DB780700D5641EB80702D5B8F1000F13
:107D70000AD0F80708D13CB1A54205D220215846C7
:107D8000641EFFF7A5FDF6E7002E02DA4E462D2110
:107D900002E0780703D52B215846FFF799FD07F03D
:107DA000030002280BD1B8F1000F08D13CB1A54265
:107DB00005D230215846641EFFF78AFDF6E7CDE96B
:107DC0000047434652463146584602F081FCBDE822
:107DD000FC9F000070B50D46044600684FF48871A2
:107DE00001F0E8FB4FF49071206801F0E3FB4FF4E1
:107DF0009271206801F0DEFB4FF4A271206801F05F
:107E0000D9FB20681249C0F8041320686907000BE9
:107E100040B2090E002806DA00F00F0000F1E02061
:107E200080F8141D03E000F1E02080F800142068C1
:107E30000121000B40B200F01F0291404009800078
:107E400000F1E020C0F88012C0F8001170BD000001
:107E500010030200024600201268930702D0530765
:107E600002D47047500714D502F00300012802D055
:107E700002280CD105E0C2F383100B68801C184463
:107E800004E00223086803EB9252104408600120CA
:107E90007047086800EB9253C2F38910401CEEE76C
:107EA0000A4810B5807860B1002401E0022C06D0A9
:107EB0002046FFF7A1FA641C042CF7D310BD03245D
:107EC000F6E7BDE81040FFF7B7BA0000CC18002075
:107ED00003480179C90702D00078FFF7BBBB7047A0
:107EE000CC1800202DE9F047394E002780463D464A
:107EF000DFF8E090D6F804A057E003D00446D0F8AD
:107F00001C8035E099F8002002EB4201521CD2B2ED
:107F100089F8002009EBC10199F80230091D9A4245
:107F200001D189F8005048680A780446012A12D025
:107F3000022A02D0032A3BD108E002F0ABF900B1DB
:107F40000127257434E00574C06900E070680028DA
:107F5000F9D170602CE0207C50BB88686060C868F4
:107F6000A0600869E0604869A061F07800B16560D0
:107F70006268B168184B501A20F07F40984202D2D4
:107F8000A168084406E0881AA16820F07F40814279
:107F900002D9081A206000E0256065600120A56014
:107FA00020742046E56102F057F9B8F10000A4D131
:107FB00099F8001099F801008142A3D117B97168AE
:107FC000514502D00120BDE8F0870020FBE700000A
:107FD00018190020CC1B0020FFFF7F002DE9FF4176
:107FE0000026234800F025FA2148001F074600F02C
:107FF00020FA204C60680090A56800E0009869466F
:10800000284004EB80000C30FFF724FF0028F5D156
:1080100001AA009901EA050304EB8303491CDB680C
:1080200042F82030401C00910228F2D3019800F061
:10803000030001280BD0022810D10198032101EB85
:1080400090500099BDF80A6001EB900005E001989E
:10805000BDF80A60C0F3831008440090384600F071
:10806000E5F908B10098606004B03046BDE8F081E1
:1080700048220020301E00204FF4004686B03146D2
:10808000002000F013FF08B1FEF7A8FE00F06EFD1F
:10809000FEF7C4FE08B1FEF7A1FE4C4A01214C4890
:1080A000FEF7A8FE08B1FEF799FE4948494A0021AB
:1080B000001DFEF79FFE08B1FEF790FE4649032023
:1080C000FFF77EFA08B1FEF789FE01F00DF808B15E
:1080D000FEF784FE01F08CF908B1FEF77FFE002068
:1080E00000906946012001F03FF808B1FEF776FEE6
:1080F000684601F0B9F808B1FEF770FE04A86DDF1C
:1081000008B1FEF76BFE9DF814009DF811309DF844
:1081100012209DF813108DE80F00304C03259DF8B8
:10812000153020889DF8162005EB00402CA100F0AA
:1081300058FE4FF4E421088891F82010020A8DF8C7
:1081400014208DF813008DF81510C1208DF816003D
:1081500004A86CDF08B1FEF741FE9DF814009DF8FD
:1081600011309DF812209DF813108DE80F00208823
:108170009DF815309DF8162005EB004018A100F081
:1081800030FEFFF780F8FEF745FD00221146012082
:1081900077DF08B1FEF722FE208819A105EB004029
:1081A00000F00CFE0A48002231460068FEF760FE2F
:1081B00008B1FEF713FEFEF76DFD00BF00F0EEFC08
:1081C0000028FBD100F0A4FFF8E70000299E020080
:1081D00084A802000D78020011750200EC1900203D
:1081E000253032583A253032583A253032583A251F
:1081F0003032583A253032583A2530325800000093
:10820000426561636F6E206578616D706C65207387
:108210007461727465642E00F0B50B30154D20F05A
:1082200007010024144A0FE003688B420BD38B42F2
:1082300005D95E1A43184768C3E9006700E0436840
:10824000136002C004E0021D10680028ECD1204633
:10825000002802D1286808B10020F0BD064A07486E
:108260001060074A121A22F00702C0E90024012018
:108270002860D7E7C8190020C4190020E424002092
:10828000E044002070B5144682880E4605462088DA
:10829000111D0144921C994201D8FE2A01D90C20DB
:1082A00070BD521C32542088FF21401C80B22080B7
:1082B00031542088401C80B220808119288802F027
:1082C00001FA2188084480B22080AA8842B1A968B6
:1082D00041B13044FEF778F82088A988084420800E
:1082E000002070BD072070BD2DE9F047C788044607
:1082F000181D16468946B0FBF7F1B0FBF7F207FBF5
:1083000012009A193A44D21CB2FBF7F2DDF820A011
:1083100001E02468491E0029FBD13D1A8846B54278
:1083200016D818E0BAF1000F05D0211809EB0800A3
:108330002A46091D04E0204409EB08012A46001DD5
:10834000FEF742F800202468761BA844B74201D902
:10835000354600E03D46002EE4D1BDE8F087000040
:1083600030B5024659B100F0CDFD0021074C09E0BF
:1083700004EB810315685B88AB4202D111600020D9
:1083800030BD491C8142F3D3052030BDCC190020FB
:10839000F8B50F46017814460546012901D16878E1
:1083A00030B12088821C9A422DD8012902D006E0E3
:1083B0000720F8BD69780144891C994223D8181A0E
:1083C000801E86B2ADF800602188B81C084469465A
:1083D0007DDF0028EDD12878022805D1BDF80010F6
:1083E000B14201D809210AE00821012805D16878A5
:1083F000B04202D8ADF8000001E0ADF80060BDF871
:108400000000FE2801D90C20F8BD2288401CB85479
:108410002088401C80B2208039542088401C208055
:10842000BDF80010084420800020F8BD002100F0B5
:1084300009B8012100F010B808B56A46FDF71DFF24
:10844000009808BD08B56A46FDF7FDFE08BD08B5F1
:108450006A46FDF7DFFE08BD08B56A46FDF7E6FE91
:10846000009808BD08B56A46FDF714FF009808BDDE
:1084700038B5044600258DF800506846FEF74CFDDF
:1084800021686268086890420ED9401E0860017831
:10849000A38AE26801FB0325227A2168101AC0B280
:1084A0000A79824200D208719DF80000FEF758FD5B
:1084B000284638BD38B5054600208DF800000C462A
:1084C0006846FEF729FDE868A98A201AB0FBF1F199
:1084D0002A681068431C136001709DF80000FEF7C5
:1084E0003FFD38BD10B530B1017A42680368891A82
:1084F000C9B21A6006E00E2010BD03681A68541C49
:108500001C601170491EC9B2F7D2006800210171C8
:10851000084610BDC20800F007030120895C98409E
:108520000840704710B5C20800F00703885C0124BA
:108530009C402043885410BD00F180400068002812
:1085400000D00120704708B500F180400021016093
:108550000068009008BD000070B50B4C207808B191
:1085600085250FE00020A06060602061E060074882
:1085700001F03CF8054600F095FF08B901F020F83D
:1085800001202070284670BDEC1A0020A979020055
:1085900038B500258DF800506846FEF7BDFC074C45
:1085A000E068401EE060E06810B901F02FF8A570A7
:1085B0009DF80000FEF7D4FC38BD0000EC1A002046
:1085C000F0B505460478154889B0164640F82420D1
:1085D000124A0869121DA2F1080742F82400487FD8
:1085E000385520226846FDF7EFFE04942878385C61
:1085F00048B10EB10A4A00E000226946281D01F088
:1086000085FA09B0F0BD0EB1064A00E000226946C5
:1086100005F10C0001F04CF9F3E70000E018002030
:10862000A1A50200EDA302000FB408B5039900292B
:1086300004D004AA00926A4600F00FF801B05DF879
:1086400014FB10B582680446002A05D0D4E904035F
:10865000216898470020A06010BD2DE9FC47914695
:108660000C00804676D014F8011B39B125290ED0B4
:108670004046FFF72DF920780028F4D198F80C0037
:10868000002867D04046BDE8FC47FFF7DABF00206E
:10869000012221782B291BD02D2902D0302908D185
:1086A00002E040F0010001E040F00200641C002AFA
:1086B000EFD100252A290ED02178A1F130020A2A13
:1086C00011D205EB850201EB4205641C303DF1E758
:1086D00040F00400EAE7D9F800100B1DC9F800309B
:1086E0000968641C0D44217800232E290BD114F84D
:1086F000011FA1F130020A2A05D203EB830201EB2C
:108700004203303BF3E76C290DD068290BD069296F
:1087100021D00BDC252918D0582931D063290ED05F
:10872000642915D117E014F8011FECE7702969D00E
:10873000732932D075291BD0782909D120E0D9F8C6
:108740000000011DC9F8001001784046FFF7C0F88D
:10875000641C90E76CE0D9F800100A1DC9F80020ED
:108760000968CDE900500A224046FFF7DFFAEFE73B
:10877000D9F800100A1DC9F8002009680A2206E08D
:10878000D9F800100A1DC9F8002009681022CDE9A7
:108790000050404601F09CFFDAE7D9F800100027AE
:1087A0000A1DC9F800200E68C00705D112E0404636
:1087B000761C7F1CFFF78CF831780029F7D104E094
:1087C000202140466D1EFFF783F8BD42C0D9002D21
:1087D000F6D1BDE74EB13046FDF71AFE074604E07C
:1087E000202140466D1EFFF773F8BD4206D9002DCB
:1087F000F6D103E04046761CFFF76AF8317800298D
:10880000F8D1A5E7D9F80000011DC9F800100568E6
:1088100030214046FFF75CF878214046FFF758F8D2
:1088200008200021CDE90001034610222946B0E7C7
:10883000BDE8FC8770B541EA4201DDE904564FF01E
:10884000A04441EA830141EA052104EB800041EAAA
:108850000641C0F8001770BD70B541EA4201DDE97C
:1088600004564FF0A04441EA830141EA052104EB9C
:10887000800041EA0641C0F8001770BD70B541EABA
:108880004201DDE904564FF0A04441EA830141EA88
:10889000052104EB800041EA0641C0F8001770BDD5
:1088A00070B541EA4201DDE904564FF0A04441EAC7
:1088B000830141EA052104EB800041EA0641C0F84A
:1088C000001770BD1CB5002100910B4601220191DB
:1088D000FFF7D4FF1CBD1CB5002100910B460122FF
:1088E0000191FFF7DDFF1CBD1CB500220B46009275
:1088F00011460192FFF7C2FF1CBD1CB500220B46BA
:10890000009211460192FFF7CBFF1CBD1CB5002160
:1089100000910B46012201911146FFF7AFFF1CBDEC
:108920001CB5002100910B46012201911146FFF771
:10893000B7FF1CBD4FF0A04202EB8000D0F800272B
:1089400022F44032C0F80027D0F8002742EA014163
:10895000C0F80017704701224FF0A043824011B1C8
:10896000C3F808257047C3F80C25704718B5084BA5
:108970006C4601441B68009306E000BF54F82030A9
:10898000D3F81035401C08C28142F7D818BD00004A
:10899000C0A80200034908B508440021016000682E
:1089A000009008BD0060004002494058012800D0F6
:1089B000002070470060004030B5124B0146002097
:1089C000D3F81044224609E0157A854205D1401CAF
:1089D0000A28F7DB4FF0FF3030BD5268002AF3D190
:1089E000421CF9D00872D3F810242AB152684A60A8
:1089F000D3F81024516030BD0022C3F810144A602F
:108A000030BD0000301E00207047FDF781BE70476A
:108A100008B5034A00924023024A00F005F808BD59
:108A2000CD9F0200F01C0020F0B595B01C46154605
:108A30000F4608461A9E00F035FB182109A8FDF7DD
:108A4000DCFC0E96CDE909540023082203A9384620
:108A500000F03DFB05980690BDF81000ADF81C0035
:108A6000BDF81200ADF81E0000208DF8210003981B
:108A7000082600F00300012802D0022818D032E0B6
:108A800003983346850AC0F3C2008DF8200003988E
:108A90000FA9C0F38314A200384600F018FB09A800
:108AA000009006AB22460FA9284600F057FA1AE0BC
:108AB0000398840DC0F3C2008DF82000082C01D269
:108AC000254600E0082533462A460FA9384600F01F
:108AD000FEFA2E44641B09AB06AA29460FA800F033
:108AE0008FF9002CEAD1384600F0E2FA15B0F0BD5B
:108AF0007047012001F098BC084810B50178084A79
:108B0000515C19B1001D01F08DF802E00C3000F04D
:108B10009BFFBDE81040002001F086BC3C190020FE
:108B2000DC18002008B5034A00924023024AFFF7F0
:108B30007BFF08BD1DA00200301D00200A4A01294C
:108B400002EBC00007D0022907D0032907D004296F
:108B500007D000207047022070470420704700793A
:108B600070474079704700003CB2020010B5FFF733
:108B70004CFF04210848FFF71FFF074801244472F7
:108B8000FFF7B7FF044804210C30FFF715FF024838
:108B90000C30447210BD0000501900202DE9F04F38
:108BA0008DB0FEF7A5FE18B100200DB0BDE8F08F26
:108BB0007A4C4FF0000BC4F818B4BFF34F8F6068C5
:108BC0000290A568D846284004EB800008E02168A0
:108BD0000298814201D86160E6E7284004EB8000FA
:108BE0000C3002A9FFF736F90028F0D105AA029946
:108BF00001EA050304EB8303491CDB6842F82030DB
:108C0000401C02910228F2D3059800F003000228CC
:108C100002D001284ED0A9E005985022810D894646
:108C2000B2EB905F00D850210E4666F39F5005903E
:108C300008315B4800F0EDF9070079D000F032FA16
:108C40004346082205A9384600F047FA029908F180
:108C5000080A2940681A8000001D864223D94F4D1A
:108C60000C3530B1C2B204EB8101301A90460C31A0
:108C700004E02946F2B2002590462846C6B2534683
:108C8000384600F02AFA0AEB08032DB1324629468D
:108C90004FEA070000F021FA029909F1030001EB05
:108CA000900002903BE004EB810153463246384687
:108CB0000C31EFE70598C0F38310062800D3062097
:108CC000059960F38911C1F38310801C059181001F
:108CD000334800F09EF9070048D000F0E3F943461E
:108CE000082205A9384600F0F8F908F1080800261E
:108CF0000FE00298434600EA0501401C04EB8101A5
:108D00000290042238460C3100F0E7F908F104081B
:108D1000761C0598C0F38310B042EAD847B1D4F866
:108D20001054D4F8180468B1384600F0C1F92FE0A7
:108D30001CE0687A012804D12A682846394612685E
:108D400090476D68002DF4D1384600F0B1F98DF8E8
:108D500000B06846FEF7E0F8D4F8180408B90298A5
:108D600060609DF80000FEF7FBF811E0D4F81044B5
:108D700004E021682046896888476468002CF8D19F
:108D800008480221008801EB004007A100F016F816
:108D9000FEF7AEFD80F0010007E70000301E002066
:108DA0009CB20200EC1900204261636B656E647333
:108DB00020666C75736865640000000000231A4625
:108DC00001F0C4B908B5012300926A4601F0BEF96A
:108DD00008BD1CB5CDE9002302236A4601F0B6F9AF
:108DE0001CBDF0B587B00DF1300C9CE8F0008DE8AB
:108DF000FC0006236A4601F0A9F907B0F0BD0000A7
:108E00002DE9F0470E4680461C46924608293ED87A
:108E100094F80C90002020731946104600F090FF43
:108E20000025B54206D218F805201AA12046FFF702
:108E3000FBFB03E019A12046FFF7F6FB6D1C082D94
:108E4000EFD317A12046FFF7EFFB0025B54210D264
:108E500018F80570FDF7A2FA0068C05D10F03E0F2B
:108E600001D03A4600E02E220EA12046FFF7DCFB9F
:108E700003E00DA12046FFF7D7FB6D1C082DE5D3BD
:108E800001222146504600F03DFF84F80C90BDE8D9
:108E9000F0870000202530327800000020202000DC
:108EA0007C0000002563000020000000104810B581
:108EB000FF218160002101604160C0F81814C0F8F2
:108EC000141480F820140B4800F0F0F800280DD19D
:108ED00009480A490A4B401AC108002003E000BFB4
:108EE00023F82000401C8842FAD3002010BD000067
:108EF000301E00209CB202009CB202003CB2020074
:108F0000CC19002002480349401AC00870470000ED
:108F10009CB202003CB2020013B56846FFF720FA8B
:108F200008B100201CBD0248009950F831001CBD5A
:108F30003CB2020070B508480125D0F8104480F812
:108F4000205405E0657221682046496888476468B6
:108F5000002CF7D170BD0000301E00202DE9FF4726
:108F600081460C9D00200C462F7B287398461646A0
:108F70002946184600F0E4FE072E42D2DFE806F04C
:108F800004090F161F2A360049462846FFF74CFBF6
:108F900037E0494628462268FFF746FB31E0D4E92E
:108FA000002349462846FFF73FFB2AE0A0680090CF
:108FB000D4E9002349462846FFF736FB21E0D4E9EF
:108FC0000201CDE90001D4E9002349462846FFF714
:108FD0002BFB16E004F1080007C88DE80700D4E970
:108FE000002349462846FFF71FFB0AE004F108006A
:108FF0000FC88DE80F00D4E9002349462846FFF743
:1090000013FB00222946404600F07CFE2F73BDE88A
:10901000FF872DE9F041858A80462D1F4819C01C25
:10902000B0FBF5F0C6B24046FFF722FA041E19D095
:109030000020207101206071E58000272546761E02
:10904000C4F800800BE04046FFF712FA60B1617986
:10905000491C6171286005467F1CC0F80080B7423A
:10906000F1D32046BDE8F081204600F002F8002050
:10907000F8E72DE9F041457901466B1E002201E039
:109080000968521C9A42FBD30F680146002605E08E
:1090900038460C68FFF70EFA2146761CAE42F7D32D
:1090A000BDE8F0810121001DFFF7C6B9FFF71ABA2C
:1090B00010B504460121001DFFF7D4F910F0FF0F91
:1090C00004D12046BDE81040FFF7D3BF10BD38B52E
:1090D00001240094FFF708F938BD38B50024009446
:1090E000FFF702F938BD0000064910B500204870AE
:1090F000091D0860BFF35F8F0349044800F0F6F9CB
:10910000002010BD2C19002010A90200E41C002032
:1091100008B500208DF800006846FDF7FDFEF1EE71
:10912000100A20F09F00E1EE100ABFF35F8F08499C
:109130004020C1F880029DF80000FDF711FF00F00B
:10914000B1F908B141DF08BD20BF40BF20BF08BD55
:1091500004E000E020B10349096801600020704785
:109160000E2070471CAB0200FEB502460D460846B5
:10917000FFF7F0FF00286AD1002400940194012633
:1091800006208DF80020ADF8040002948DF80260EE
:10919000694620202A6869DF2D4F40B100F0EAF9C6
:1091A000024638882B4906EB0040FFF70BFE00947F
:1091B0008DF801408DF80240019402948DF803402F
:1091C000694640202A6869DF40B100F0D3F90246C1
:1091D0003888214906EB0040FFF7F4FD0094019424
:1091E00002948DF80040694601202A6869DF40B189
:1091F00000F0C0F902463888184906EB0040FFF736
:10920000E1FDF8200090019402946946A1202A68AB
:1092100069DF40B100F0AEF902463888104906EB2C
:109220000040FFF7CFFD0094019402948DF80040B8
:109230006946A0202A6869DF40B100F09BF9024628
:109240003888084906EB0040FFF7BCFD0020FEBD52
:10925000F419002018B1020060B1020078B00200D9
:10926000C4B0020024B002002DE9F0410446D0F859
:10927000008060DF2168194D074641451CD92888C8
:10928000022606EB004016A1FFF798FD288842460B
:1092900006EB00401EA12368FFF79BFDF006D0F807
:1092A0000C012168800200F10050421A288825A193
:1092B00006EB0040FFF786FD012467B1384600F059
:1092C00059F9024628882AA104EB0040FFF77AFDED
:1092D0003846BDE8F0812E480470F9E7F419002003
:1092E000496E73756666696369656E742052414D97
:1092F00020616C6C6F636174656420666F722074AA
:10930000686520536F66744465766963652E000056
:109310004368616E6765207468652052414D207313
:1093200074617274206C6F636174696F6E20667211
:109330006F6D203078257820746F20307825782E56
:10934000000000004D6178696D756D2052414D201F
:1093500073697A6520666F72206170706C696361F1
:1093600074696F6E20697320307825782E000000B4
:1093700073645F626C655F656E61626C652829204D
:1093800072657475726E65642025732E000000008E
:10939000BB19002030B5144891B00078002820D0C7
:1093A0005FF03405ADF8405010A903A861DF30B17B
:1093B000052816D011B0BDE83040FDF70FBD03AC55
:1093C0000A49684600F092F807E000BFD0E90021A2
:1093D00020469047684600F0A0F802980028E1D0A7
:1093E000F4E711B030BD0000BB19002020AB020033
:1093F0007CB5204C207808B108207CBD0120A070ED
:10940000002000F0B5FD112819D0002000F0C8FDA3
:1094100019480026006801908DF800606846FDF745
:109420007BFD164901A810DF05000AD0002020703E
:109430009DF80000FDF794FD2DB128467CBD00206D
:109440007CBD0120F3E7A67066700721162000F0AE
:1094500045FD08B1FDF7C2FC0721152000F03EFDD7
:1094600008B1FDF7BBFC00F049FE012000F098FDBB
:10947000E5E70000B8190020B4AA0200616D0200FF
:109480000EB50749684600F031F805E0D0E9001054
:109490008847684600F041F802980028F6D10EBDD2
:1094A000D0AA02000148007870470000B8190020D7
:1094B0001FB568464BDF30B1052814D004B0BDE8B5
:1094C0001040FDF78BBC084901A800F00FF806E03A
:1094D000D0E900210098904701A800F01EF80398F9
:1094E0000028E6D0F4E71FBD3CAB0200016009682C
:1094F0004160AFF3008010B5D0E900215368994274
:1095000001D1002104E0D1E90034A34202D0194680
:10951000816010BD08314160F0E7816800290BD0FF
:10952000026892680A44826041684B689A4203D19B
:1095300008314160FFF7DFBF704700000C4A10B5EB
:1095400002F594730EE0991AC91001EBD17149101C
:1095500002EBC1010C68844201D90B4602E005D23E
:1095600001F108029A42EED3002010BD486810BDF8
:1095700030A9020000B5FFF7E1FF002800D1014843
:1095800000BD00001CA902004058002800D00120A6
:10959000704708B5002242504058009008BDD0F8EE
:1095A0000403084000D0012070474058002800D034
:1095B0000120704708B5002242504058009008BD75
:1095C00008480068012110F0010F08D14FF0E02099
:1095D000E02280F80024C0F88012C0F80011024890
:1095E0000160704700E100E01805004006490246AE
:1095F00000200B790BB1852070470A6001220A71A7
:1096000000224A7170470000E81800200449012038
:10961000086004480168C1F300410029FAD170478D
:109620000C00004018040040002802D001498001CD
:1096300008477047E1A802002DE9F0418846054639
:1096400000F048FB234E002828461AD0FEF790F978
:10965000304490F848008009032802D001280ED039
:1096600007E04FF0A040D0F81005E84010F0010FDF
:1096700005D003212846BDE8F041FFF75BB9022180
:10968000F8E700F033FB002822D02846FEF770F9F7
:1096900004464FF4807000EB84000F4F81B207EB5B
:1096A0008400D0F8102542F00102C0F810250846C9
:1096B000FFF770F9B8F1000F0AD02846FEF758F905
:1096C00056F82000002803D00120A040C7F804036A
:1096D000BDE8F081001B0020006000402DE9FC4146
:1096E000DFF8BC80044608EB0400002790F9300046
:1096F0001346C0170E46401C01D008274CE0B07836
:109700001946C0F340022046FEF70EF90546401CFC
:1097100041D0B078410719D4C0070AD04FF0A0401B
:1097200000EB8401D1F8000720F00200C1F8000727
:1097300007E000217378204600910A460191FFF767
:109740008BF8174920465431FEF7ECFEB0788007BD
:1097500018D51448317800EB8500D0F81025124B4D
:109760001A40C0F810254FF4F8524FF4403302EA83
:10977000042203EA01410A43D0F810150A43C0F855
:10978000102509E008EB0500327810F8481F41EA7F
:109790008211017000E004273846BDE8FC8100001A
:1097A000001B002000600040FFE0FCFF4FF0A041E4
:1097B000D1F81015C14011F0010000D00120704710
:1097C00070B5184D95F8580008B1082070BD0020FC
:1097D000411E2A18401CC0B282F830102028F8D34D
:1097E00000242046FEF792F8641CE4B20C2CF8D357
:1097F00000240D49E0206C6581F80004012640201A
:10980000891FC1F88002C1F800014FF4BE70FFF754
:10981000C1F80649F007C1F8040385F858602046EE
:1098200070BD0000001B002006E000E0006000406A
:10983000034890F85800002800D00120704700002D
:10984000001B00200121B1EB507F01D101207047A6
:109850000020704738B50D4600F0BEFA040014D061
:1098600000208DF800006846FDF756FB207928B1EE
:109870009DF80000FDF774FB112038BD0120256024
:1098800020719DF80000FDF76BFB002038BD10B57E
:1098900000F0A2FA002802D000210160017110BD81
:1098A0000149024800F0E8BD5C1B00200020004098
:1098B0002DE9F0410546007916460F4600EB4001C0
:1098C0002D4A01EBC00102EB810494F82A1011B17A
:1098D0000820BDE8F081294951F820102868FFF7D9
:1098E000B9FF08B11120F4E739462846FDF752FBCD
:1098F00066603869206030004FF001062FD03F7F4E
:109900004FF48E712868FFF744FE4FF4A271286867
:10991000FFF73FFE28681A49C0F8041328684FEA89
:109920004711000B40B2002806DA00F00F0000F1EA
:10993000E02080F8141D03E000F1E02080F800141E
:109940002868000B40B200F01F0206FA02F140093D
:10995000800000F1E020C0F88012C0F800112868F3
:109960000421C0F800150020A061E06184F82900FE
:1099700044F8140FA675ACE75C1B0020C4A80200D5
:10998000800002002DE9F047054600790B4600EB08
:10999000400101EBC000234901EB8004284600F0A0
:1099A00043F810B11120BDE8F0874FF00008C4F86B
:1099B0002080A360626184F828804FF48E76474649
:1099C00031462868FFF7E5FD28684FF00109C0F827
:1099D00008902146286800F0EBFC606800BBD5F8D1
:1099E00000A00EE094F8280008B10F2716E03146D9
:1099F0005046FFF7C9FD0028F4D02146504600F03C
:109A0000D7FC216A60698142F1D331462868FFF7AB
:109A1000BBFD0028F9D02868C0F80C90C4F8148069
:109A20003846C0E75C1B0020007900EB400101EBE9
:109A3000C000044901EB80004069002800D00120EB
:109A4000704700005C1B00202DE9F04704460079B8
:109A50004FF0000900EB400101EBC000254901EB8C
:109A600080072068C0F80095786880B12068224996
:109A7000C0F8081320680121000B40B200F01F025B
:109A800091404009800000F1E020C0F8801120687A
:109A9000D0F80C25D0F81485D0F80865D0F810550A
:109AA0004FF0FF31C0F81415C0F80C152068C0F84D
:109AB0000815C0F81015501C02D01046FEF702FF22
:109AC000B8F1FF3F02D04046FEF7FCFE681C02D012
:109AD0002846FEF7F7FE701C02D03046FEF7F2FE75
:109AE0002068FFF7D4FE87F82A90C7F80490BDE8F5
:109AF000F08700005C1B002084020200014902483C
:109B000000F066BD881B0020002000402DE9F041D8
:109B10000546164600790F46154A00EBC00102EBD8
:109B2000810494F8201011B10820BDE8F08111499A
:109B300051F820102868FFF78DFE08B11120F4E7D6
:109B400039462846FDF76AFA6660386920601EB11A
:109B5000397F2846FEF73EF928680821C0F800152D
:109B60000020A061E0610121606184F82010DCE741
:109B7000881B0020C8A802002DE9F04704460E46C5
:109B80000079204900EBC00001EB80051746304604
:109B9000FFF758FE30B1204600F036F820B1112012
:109BA000BDE8F0871020FBE76F61AE604FF4907660
:109BB000002731462068FFF7FDFC4FF4AC784146A2
:109BC0002068FFF7F7FC2068AA686969C0F8442597
:109BD000C0F84815206801218160686878B9B146ED
:109BE00049462068FFF7E1FC064641462068FFF73A
:109BF000DCFC0643F4D000B10F2700206861384632
:109C0000CEE70000881B00200079054900EBC0006A
:109C100001EB80004069002800D00120704700005F
:109C2000881B00202DE9F04704460079274900EB06
:109C3000C00001EB800720684FF00009C0F80095D4
:109C4000786880B120682249C0F808132068012193
:109C5000000B40B200F01F0291404009800000F16B
:109C6000E020C0F880112068D0F80C25D0F81485C9
:109C7000D0F80865D0F810554FF0FF31C0F80C153A
:109C8000C0F814152068C0F80815C0F81015501C4D
:109C900002D01046FEF71FFEB8F1FF3F02D040464B
:109CA000FEF719FE681C02D02846FEF714FE701C51
:109CB00002D03046FEF70FFE2068FFF7E8FD87F878
:109CC0002090C7F80490BDE8F0870000881B0020B2
:109CD000100302000449084490F93000082801DB11
:109CE0000120704700207047001B002004490844F1
:109CF00090F93000082801D20120704700207047F9
:109D0000001B002010B50C46017A052908D0407AC6
:109D100038B1084808A102682046FEF785FC00E03B
:109D20001AB106A12046FEF77FFC2046BDE8104090
:109D3000FEF787BC94190020257300000D0A00006F
:109D400038B5C3880D46044633B114A0009015A25F
:109D500016A12846FEF768FC217A05291CD0607AF6
:109D600048B1A088FEF7EAFE164951F8202016A156
:109D70002846FEF759FCA0880021FFF7CDF80346DE
:109D80001049207A143951F8202001B02846BDE846
:109D900030400EA1FEF748BC38BD00001B5B306DA3
:109DA000000000001B5B313B33316D0025734C6FAD
:109DB00067732064726F707065642028256429259C
:109DC000730D0A0094190020257300003C25733E92
:109DD0002025733A200000000349884201D103483E
:109DE000704700207047000000200040F01800205D
:109DF000642190FBF1F108B58DF800100A2190FB69
:109E0000F1F292FBF1F301FB13228DF8012090FB9C
:109E1000F1F201FB12000349BDF80020A1F80B206C
:109E2000487308BDA818002010B5002074DFFDF7A6
:109E30002AFAFCF7EFFEBDE81040FCF72BBF00004C
:109E400070B5012670044FF0E0210025C1F88001B3
:109E5000084C4010C4F84803C4F8080366602F207B
:109E6000FFF7E2FBA660044C2F20A560FFF7DCFBA8
:109E7000A57070BD001001401819002070B505468E
:109E800088690C4600284FF4847128460AD0FFF7F1
:109E900080FBD5F81805626AE1688854606A401C46
:109EA000606270BDFFF775FBD5F8180570BD1FB572
:109EB00001238DF80030CDE90121D0E90012684678
:109EC00090471FBD1FB501238DF800308DF8081095
:109ED0000192D0E90012684690471FBD70B50D464B
:109EE0000446FCF779FE70B12846FCF787FE68B19E
:109EF0006807000E002C0CDA04F00F0101F1E021DC
:109F000081F8140D09E042F2010070BD42F2020036
:109F100070BD04F1E02484F80004002070BD00004E
:109F200038B50021012548B101280CD0032809D1FA
:109F3000FFF746FBBDE83840FEF72ABB4FF0E020B4
:109F4000C0F8805138BD8DF800106846FCF7E4FF7A
:109F5000064C207808B9FEF7FFFAE068401CE06084
:109F6000A5709DF80000FCF7FBFF38BDEC1A00203F
:109F70003EB5044609496846FFF7B8FA08E000BF55
:109F8000D0E900212046904730B16846FFF7C5FA76
:109F900002980028F4D13EBD11203EBDB8AA0200AF
:109FA0003EB5044608496846FFF7A0FA07E000BF3F
:109FB000D0E90021204690476846FFF7AEFA0298A4
:109FC0000028F5D13EBD0000C4AA02002DE9F041F1
:109FD0001400884618D000250E4F032608EB050113
:109FE00022460020FCF796FB0544241A40B9387835
:109FF000002809D008494FF47A408847761E05D0DA
:10A0000001203870002CE9D1BDE8F08100203870C3
:10A01000FAE700003419002071AA020070B50D4C57
:10A020000020D2B22070201D0B4D0378EB5C1BB1D9
:10A03000001DFFF7A1FD02E00C30FFF7A3FC08B103
:10A04000FCF7CCFE6078002802D021780029FAD0F5
:10A0500070BD000038190020DC1800202DE9F04107
:10A060000746806A14468846C8B3002531E000BF21
:10A07000B96A05EB450001EB8006B088801CFE281C
:10A0800002D90C20BDE8F0812288401C08F80200AB
:10A0900020881622401C80B2208008F800202088EA
:10A0A000401C80B2208000EB0801308800F00AFBE1
:10A0B0002188084480B22080B28842B1B16871B171
:10A0C0004044FCF781F92088B188084420806D1C49
:10A0D000EDB297F82C00A842CAD80020D2E7FFE7DB
:10A0E0000720CFE7002805D1034901204870002050
:10A0F000FDF746BC70470000EC1A002010B5162092
:10A10000FCF76AFD80B10F4890F800044009FCF7A5
:10A1100075FD60B10C4882684FF480016AB1016836
:10A1200041F48001016010BD42F2010001E042F201
:10A130000200BDE81040FCF751BE4FF0E020C0F82F
:10A14000001110BD16E000E0D81C00202DE9F84FEA
:10A15000204D924689460646984601226946184691
:10A16000AF68FDF76DFB58B3009800210446801CD2
:10A1700009E000BF00EA07035AF8212005EB83033A
:10A18000401C491CDA604145F4D34FEA164AFDF7FA
:10A1900039FD4AEA0041601C384005EB80003C4034
:10A1A00005EB8402C160D06866F3C50068F38910CE
:10A1B00069F39F2020F00300401C20F00400D060D1
:10A1C00095F8200402E000BFFEF7E8FC0028FBD170
:10A1D000BDE8F88F301E00202DE9F84F1D4C0025FA
:10A1E0006846D4E901A6FDF717FD002738B3002320
:10A1F000009A61681CE0D1F800C00846944503D974
:10A20000ACEB02020A6015E0A2EB0C0263440760AB
:10A21000D0F80CC0C1698146BCF1000F08D006EB34
:10A22000030828F07F48C0E9018CC9F81C50054696
:10A230000029E0D128466160FDF754FE03E028467E
:10A24000FDF750FE10B15046FDF7BCFBE770BDE8CE
:10A25000F88F0000181900200D4B10B5596831B166
:10A2600002680C68A24204D8A21A0A60C161586050
:10A2700010BD0B4603E00B46C969121B21B10C68E7
:10A280009442F8D3A41A0C600260C161D86110BD79
:10A29000181900202DE9F041144E77683D462C46F0
:10A2A00003E0844204D02546E469002CF9D11BE088
:10A2B000D4B1A5420BD1F869706040B90C490120B6
:10A2C00088600021B160F0702F20FFF7ADF92168A0
:10A2D000E069E86110B1026811440160706887426A
:10A2E00002D00120BDE8F0810020FBE71819002012
:10A2F000001001407CB5064600240D468DF8004054
:10A300006846FCF709FE01A800F03CFA70B1057040
:10A31000094946609DF8040048709DF80000FCF76C
:10A320001FFE1420FCF79AF920467CBD04249DF8FA
:10A330000000FCF715FEF7E7CC1B00202DE9F041EB
:10A34000194D6C68002C2CD0184800270068A968AB
:10A35000B846401A20F07F462068B0420CD821460B
:10A36000361A0744E469087C20B181F810808869B6
:10A3700049698847002CEFD129786878814206D155
:10A38000401CC0B26870022801D185F801800648DF
:10A3900069780C3040F82170BDE8F0411420FCF7DA
:10A3A0005DB9BDE8F08100001819002004150140D6
:10A3B00070B50C4605464FF48E71FFF7EAF8216A36
:10A3C000A068415C206A401C2062C5F81C1570BD65
:10A3D0001FB500228DF80020029181680191426131
:10A3E000D0E90012684690471FBD00001FB50A461D
:10A3F00001788DF8001041680191017A8DF80810FC
:10A40000C0680390044850F82210001F50F8222022
:10A41000684690471FBD0000E41800200149012054
:10A42000087070473819002010B588B00446202203
:10A430000E496846FBF7C8FF06200090C01F019038
:10A44000029003904FF0EB7006900CB1084A00E0C8
:10A45000002269460748FEF7B3F808B1FCF7BEFCD6
:10A460000448001F447008B010BD000084AA020018
:10A470001DA402003C1900202DE9FF470C460546AB
:10A480004FF40071FFF78BF801274FF40178002695
:10A4900018B34FF4927949462846FFF775F8E0B1B2
:10A4A00049462846FFF775F8C5F8088394F829004F
:10A4B00000B96F6002208DF80000D5F88004C5F85F
:10A4C00080040390A0690290E0680190A661E661B3
:10A4D000D4E900126846904728E004212846FFF797
:10A4E0005EF818B34FF484712846FFF74DF8E8B1D1
:10A4F00021462846FFF7C2FC616AA069884215D14F
:10A50000E06938B1E268616AA0612069E66166626B
:10A51000E06008E094F8290000B96F60C5F808838E
:10A52000A661E268616A2046FFF7C1FC4FF48E78AD
:10A5300041462846FFF728F878B1206A61698842C9
:10A5400002D294F8280020B341462846FFF721F8AC
:10A55000616911B12046FFF73BFF4FF4A2784146F5
:10A560002846FFF711F8002818D041462846FFF783
:10A5700010F894F8290000B12F60A06900280DD0D0
:10A58000A661E268616A04B02046BDE8F047FFF7C3
:10A590008EBC21462846FFF70BFFDEE7BDE8FF87AC
:10A5A0001FB50A4601788DF8001041680191017AC3
:10A5B0008DF80810C0680390044850F82210001F5E
:10A5C00050F82220684690471FBD0000E418002084
:10A5D0002DE9FF410C464FF4927705463946FEF7C8
:10A5E000E4FF0026C0B139462846FEF7E3FF02200B
:10A5F0008DF80000D5F88004C5F880040390D5F8E4
:10A600003C058DF80800E0680190A661E661D4E998
:10A6100000126846904723E04FF488773946284671
:10A62000FEF7C3FFE0B139462846FEF7C3FFD5F871
:10A630003C15A069884213D1E06960B1E268D5F8A1
:10A64000000220F02000C5F80002E069A061206946
:10A65000E661E06001E0A661E2682046FFF732FCB7
:10A660004FF4A27739462846FEF79FFF60B139467E
:10A670002846FEF79FFFA06930B1A661D5F83C15CA
:10A680002046E268FFF71EFC4FF4907739462846D3
:10A69000FEF78BFF002813D039462846FEF78AFFC5
:10A6A000606900280CD0D5F84C058DF800608DF855
:10A6B0000800A06801906661D4E9001268469047DE
:10A6C000BDE8FF810870000A487002207047000052
:10A6D0002DE9F05F8346DDE90A4A994690460D462A
:10A6E0000846012703E000BFB0FBF8F07F1C40459F
:10A6F000FAD2B94500D94F465FEACA7012D18CB17F
:10A700005FEA8A7002D5B9F1000F01D0202607E078
:10A71000302605E031465846641EFDF7D9F80CB1E5
:10A72000A742F7D35FF00106B9F1010F02D9A9F1F1
:10A73000010903E0B5FBF6F0404502D306FB08F63D
:10A74000F2E7DFF83C9000BFB5FBF6F000FB1655D2
:10A7500019F800105846FDF7BBF8B6FBF8F6002EC6
:10A76000F2D15FEACA7009D0002C07D0A74205D207
:10A7700020215846641EFDF7ABF8F5E7BDE8F09FD1
:10A78000E6A802000A494A788B78521CD2B293425A
:10A7900000D100220B78934201D100207047027053
:10A7A000487800EB400001EBC000001D704700003E
:10A7B000CC1B00202DE9FC411646DDE90854CDE90B
:10A7C00000541F468046022200F00CF8002807D1F2
:10A7D000CDE900543B4610223146404600F002F8D5
:10A7E000BDE8FC812DE9FC5F0026DDE90C4B9946B4
:10A7F00092468E4680462788354630E0D8F80400D9
:10A80000002200EB850069460068019001A864DF22
:10A81000002830D19DF8000050451FD10EB1002115
:10A8200000E00221228808441118594522D846B96F
:10A83000521C90B2208009F800E02088401C208043
:10A840000126218801A801EB0902694664DF00287E
:10A8500011D120889DF80010084420806D1CB8F8A4
:10A860000000A842CADC56B12088C01B401E80B23E
:10A87000FF2802D90C20BDE8FC9F09F80700002042
:10A88000F9E70000FC1900201C1A00201112131413
:10A890000D0E0F10801A0020A01A0020CC1A0020E4
:10A8A0000D000300817402000E0003008174020099
:10A8B0000F00030081740200100003008174020085
:10A8C00000000050A1980200FD9A02000300000061
:10A8D000AC1B002000000000000000000000000091
:10A8E0000338FDD870473031323334353637383994
:10A8F00041424344454600000000000000000000C3
:10A900000000000000000000000000000000000047
:10A91000F8A8020010A9020004000000556E6B6E3A
:10A920006F776E206572726F7220636F64650000CE
:10A930000000000048AF020001000000F4AD02007A
:10A9400002000000E8AB02000300000068AE020055
:10A9500004000000BCAE0200050000009CAD020037
:10A960000600000038AD020007000000A4AE02009F
:10A9700008000000B0AD02000900000014AE0200A3
:10A980000A00000030AF02000B000000D0AB020054
:10A990000C000000C8AD02000D00000098AF0200DE
:10A9A0000E00000094AE02000F000000D0AE0200C6
:10A9B0001000000004AF020011000000ACAF020064
:10A9C0001200000080AF0200130000001CAF020064
:10A9D0008000000050AD0200810000008CAC02003D
:10A9E000820000004CAC0200830000002CAC02008E
:10A9F0008400000068AC02008500000074AD020015
:10AA0000860000007CAE02009000000018AD02003D
:10AA1000910000000CAC020092000000DCAD0200CE
:10AA200000820000E4AE02000182000030AE0200AD
:10AA3000028200004CAE020000840000A8AC0200BC
:10AA40000184000054AF020002840000F0AC020058
:10AA500003840000CCAC0200118A02000F8A0200BD
:10AA6000098A020000000000000000000000000051
:10AA70000338FDD870470000258B0200F98A0200D8
:10AA8000F18A0200FFFFFFFFFFFFFFFFFFFFFFFF55
:10AA9000FFFFFFFF00000000000000000000D601E3
:10AAA000070100000000000000000000000000009E
:10AAB0000000000001000007A4AA0200B4AA0200DE
:10AAC00008000000DCAA0200ECAA02000800000056
:10AAD000ECAA0200FCAA020008000000CCB20200AE
:10AAE000D4B202000000000000000000BCB202006E
:10AAF000CCB20200000000000000000000000000D6
:10AB00000000000000000000000000000000000045
:10AB1000000000000000000000000000A818002055
:10AB2000FCAA02001CAB020008000000B4B2020044
:10AB3000BCB2020000000000000000002CAB0200CC
:10AB40003CAB020008000000004040404040404054
:10AB500040404141414141404040404040404040F0
:10AB60004040404040404040400502020202020294
:10AB700002020202020202020220202020202020E3
:10AB800020202002020202020202909090909090F7
:10AB900010101010101010101010101010101010B5
:10ABA0001010101002020202020288888888888829
:10ABB0000808080808080808080808080808080815
:10ABC00008080808020202024000000049AB020027
:10ABD0004E52465F4552524F525F494E56414C4984
:10ABE000445F4441544100004E52465F4552524F2B
:10ABF000525F534F46544445564943455F4E4F5468
:10AC00005F454E41424C4544000000004E52465FB5
:10AC10004552524F525F464541545552455F4E4F43
:10AC2000545F454E41424C45440000004E52465F41
:10AC30004552524F525F4D555445585F554E4C4FFB
:10AC4000434B5F4641494C45440000004E52465F2D
:10AC50004552524F525F4D555445585F4C4F434BF0
:10AC60005F4641494C4544004E52465F4552524F63
:10AC7000525F4D555445585F434F4E445F494E49CE
:10AC8000545F4641494C4544000000004E52465F27
:10AC90004552524F525F4D555445585F494E4954A5
:10ACA0005F4641494C4544004E52465F4552524F23
:10ACB000525F424C455F495053505F52585F504B72
:10ACC000545F5452554E4341544544004E52465FE2
:10ACD0004552524F525F424C455F495053505F506E
:10ACE0004545525F52454A454354454400000000E3
:10ACF0004E52465F4552524F525F424C455F49505B
:10AD000053505F4C494E4B5F444953434F4E4E4561
:10AD100043544544000000004E52465F4552524F96
:10AD2000525F4150495F4E4F545F494D504C454D25
:10AD3000454E5445440000004E52465F4552524F26
:10AD4000525F4E4F545F535550504F52544544003C
:10AD50004E52465F4552524F525F4D4F44554C45FF
:10AD60005F4E4F545F494E495449414C495A4544FE
:10AD7000000000004E52465F4552524F525F4D4F09
:10AD800044554C455F414C52454144595F494E49F9
:10AD90005449414C495A4544000000004E52465F18
:10ADA0004552524F525F4E4F545F464F554E4400EE
:10ADB0004E52465F4552524F525F494E56414C49A2
:10ADC000445F5354415445004E52465F4552524FE2
:10ADD000525F444154415F53495A45004E52465FC9
:10ADE0004552524F525F494F5F50454E44494E477E
:10ADF000000000004E52465F4552524F525F53567C
:10AE0000435F48414E444C45525F4D495353494E70
:10AE1000470000004E52465F4552524F525F494E26
:10AE200056414C49445F4C454E4754480000000091
:10AE30004E52465F4552524F525F4452565F5457EE
:10AE4000495F4552525F414E41434B004E52465F6F
:10AE50004552524F525F4452565F5457495F4552D4
:10AE6000525F444E41434B004E52465F4552524F53
:10AE7000525F494E5445524E414C00004E52465F7F
:10AE80004552524F525F53544F524147455F4655CA
:10AE90004C4C00004E52465F4552524F525F4E5549
:10AEA0004C4C00004E52465F4552524F525F494E45
:10AEB00056414C49445F504152414D004E52465F0D
:10AEC0004552524F525F4E4F5F4D454D00000000BE
:10AED0004E52465F4552524F525F464F524249448E
:10AEE00044454E004E52465F4552524F525F4452C7
:10AEF000565F5457495F4552525F4F56455252551F
:10AF00004E0000004E52465F4552524F525F494E2E
:10AF100056414C49445F4144445200004E52465F02
:10AF20004552524F525F5245534F5552434553007D
:10AF30004E52465F4552524F525F494E56414C4920
:10AF4000445F464C414753004E52465F535543437E
:10AF5000455353004E52465F4552524F525F424C4A
:10AF6000455F495053505F4348414E4E454C5F4109
:10AF70004C52454144595F455849535453000000D1
:10AF80004E52465F4552524F525F434F4E4E5F43C3
:10AF90004F554E54000000004E52465F4552524FEE
:10AFA000525F54494D454F55540000004E52465F84
:10AFB0004552524F525F4255535900007761726EAD
:10AFC000696E670064656275670000001B5B313B5A
:10AFD00033306D001B5B306D000000001B5B313BAC
:10AFE00033316D001B5B313B33326D001B5B313BFA
:10AFF00033336D001B5B313B33346D001B5B313BE6
:10B0000033356D001B5B313B33366D001B5B313BD1
:10B0100033376D00696E666F000000006572726FF5
:10B020007200000073645F626C655F6366675F73E4
:10B03000657428292072657475726E6564202573A5
:10B04000207768656E20617474656D7074696E67D1
:10B0500020746F2073657420424C455F47415454FF
:10B06000535F4346475F534552564943455F434804
:10B07000414E4745442E000073645F626C655F6318
:10B0800066675F73657428292072657475726E65D2
:10B0900064202573207768656E20617474656D7017
:10B0A00074696E6720746F2073657420424C455F2D
:10B0B000434F4D4D4F4E5F4346475F56535F555587
:10B0C00049442E0073645F626C655F6366675F73FB
:10B0D000657428292072657475726E656420257305
:10B0E000207768656E20617474656D7074696E6731
:10B0F00020746F2073657420424C455F474154545F
:10B10000535F4346475F415454525F5441425F533B
:10B11000495A452E0000000073645F626C655F63EE
:10B1200066675F73657428292072657475726E6531
:10B1300064202573207768656E20617474656D7076
:10B1400074696E6720746F2073657420424C455F8C
:10B15000434F4E4E5F4346475F4741502E0000002D
:10B1600073645F626C655F6366675F7365742829EB
:10B170002072657475726E6564202573207768652A
:10B180006E20617474656D7074696E6720746F20D1
:10B1900073657420424C455F4741505F4346475FAB
:10B1A000524F4C455F434F554E542E00636C6F63B6
:10B1B0006B000000434C4F434B0000004750494F89
:10B1C00054450000505253005541525400000000B5
:10B1D00055415254450000007077725F6D676D7481
:10B1E0000000000062616C6C6F632E6C6F675F6DB6
:10B1F000656D706F6F6C0000617070006E72665FDD
:10B20000736468006E72665F7364685F626C650089
:10B210006E72665F7364685F736F6300D4B202001E
:10B22000A818002054010000746402001CB302003E
:10B23000FC190020E44A0000CA6B0200ACB1020015
:10B2400000000000B4B1020000000000BCB1020028
:10B2500000000000C4B1020000000000C8B10200FC
:10B2600000000000D0B1020000000000D8B10200D0
:10B2700000000000E4B1020000000003F8B1020089
:10B2800000000303FCB102000000030304B202004B
:10B290000000030310B20200000003037019002035
:10B2A0006819002070190020701D0020E819002086
:10B2B00018000000E5A002000000000095930200C5
:10B2C00000000000B194020000000000219F020075
:10B2D000000000000213FF13611A0380201F1220D8
:10B2E000AA40089458AA029A780C011C141CB002B7
:10B2F00014BCAF021A14081AC4081AD4041ACC04D5
:10B300001ADC041AE4041AEC041AF4041AFC041AF1
:0CB3100004241A0C0451043C90D00300EB
:040000050002620192
:00000001FF
