:020000022000DC
:10600000000001203D6202009562020097620200DA
:10601000996202009B6202009D6202000000000083
:106020000000000000000000000000009F6202006D
:10603000A162020000000000A3620200A56202004B
:1060400025890200AB620200618D0200AF6202008E
:10605000B1620200B3620200E58B0200B762020087
:10606000B9620200BB620200BD620200BF620200B0
:10607000C1620200C3620200C5620200C762020080
:10608000C9620200996B0200CD620200CF62020079
:10609000356C0200D3620200A5C70200D76202007D
:1060A000D9620200DB620200DD620200DF620200F0
:1060B000E1620200E3620200A7620200A76202003E
:1060C000E5620200E7620200E9620200EB620200A0
:0C60D000ED620200EF620200F1620200CB
:1060DC00364937480A1A02D0072291438D46354972
:1060EC0035480A1A06D00722914381F30988022207
:1060FC0082F3148831483249324A00F045F832486C
:10610C003249334A00F040F832483349334A00F000
:10611C003BF833483349344A00F036F833483449B5
:10612C00344A00F031F834483449354A00F02CF840
:10613C0034483549354A00F027F8354835490022AE
:10614C0000F02DF834483549002200F028F8344886
:10615C003449091A082903DB00220260043001606B
:10616C00314A90471F482049884205D002680430C4
:10617C0003B4904703BCF7E700208646EC460020AA
:10618C0000212A4A9047FEE7884207D0521A05D0D0
:10619C00037801300B700131013AF9D17047884214
:1061AC0002D002700130FAE77047000000000120B5
:1061BC0000E000200000012000000120ACDA020009
:1061CC006C220020AC220020F4620200F462020077
:1061DC00A4CD0200ACDA02006C2200206C2200205C
:1061EC0010CF020010CF020010CF020010CF02001F
:1061FC0010CF020010CF020010CF020010CF02000F
:10620C00ACDA0200ECDA0200AC220020AC22002056
:10621C00AC220020942E0020942E0020942E0020DE
:10622C00942E0020944E0020616202007D950200A5
:10623C000F484FF00701884385460E4880470E48AB
:10624C00016841F470010160BFF34F8FBFF36F8F92
:10625C00FFF73EBF09480A490A4A884207D0521A3A
:10626C0005D0037801300B700131013AF9D1704738
:10627C00000001203184020088ED00E0BCCE020059
:10628C00182200206C220020FEE7FEE7FEE7FEE766
:10629C00FEE7FEE7FEE7FEE7FEE7FEE7FEE7FEE7CA
:1062AC00FEE7FEE7FEE7FEE7FEE7FEE7FEE7FEE7BA
:1062BC00FEE7FEE7FEE7FEE7FEE7FEE7FEE7FEE7AA
:1062CC00FEE7FEE7FEE7FEE7FEE7FEE7FEE7FEE79A
:1062DC00FEE7FEE7FEE7FEE7FEE7FEE7FEE7FEE78A
:0862EC00FEE7FEE7FEE700BF3C
:1062F400037813F0030F03F0040202D012B910461E
:106304007047B2B103F00303012B03D0022B09D071
:10631400012070470A6800880232C0F383100244E7
:106324000A60F5E70B684288023303EB92130B60B3
:10633400EEE70B684288013303EB92130288F4E71B
:106344002DE9F04F89B00546861C08A8484C0192F7
:1063540000230F4600F8113D00F056FE23683B6011
:10636400D4E901231344226801339B1A04F21C4725
:1063740004F5836A04F21448B3421AD3019A002341
:10638400002A6DD0012262F3010343F0040365F394
:1063940089132168A2689DF80F000A4003320E4455
:1063A40044F82230266000F053FE012009B0BDE815
:1063B400F08F0121384601F0B4FC504601F0C7FCCF
:1063C400404601F0C4FC0DF120096068D4F808B01F
:1063D40049F8100D00EA0B00033004EB8000494635
:1063E400FFF786FF049BB0B90BEA030204EB8202B9
:1063F400D16805919A1C013303EA0B0B04EB8B0C57
:1064040001F00303012B0492DCF80CB020D0022B22
:1064140004D083460BE00BEA0300DDE7BDF8163039
:106424009B0903334FEA1B4B02EB9303049340464F
:1064340001F090FC08B1049B63605946384601F0B2
:1064440070FCD4E901231344226801339B1A93E7B7
:10645400BDF81430C3F383134FEA1B4B1344E5E731
:10646400022262F3010343F0040365F39F5390E7B0
:106474007C230020034BD3E90030C31A584258410F
:10648400704700BF7C2300202DE9F04387B0FFF75D
:10649400F1FF0746002840F0F5807B4DC5F818044D
:1064A400BFF34F8F6868AC680DF1180848F8100DF9
:1064B4002040033005EB80004146FFF719FF029BA3
:1064C400064600285FD104EA0302991C013305EB58
:1064D4008202234005EB8303D268DB68049302F055
:1064E4000303022B0392029162D1BDF80E30674878
:1064F4004FEA9318B8F1500FC14628BF4FF0500926
:1065040069F38F1309F10801ADF80E3001F06CFE48
:106514000746002800F0A48001F095FE334603A945
:106524000822384601F0A2FE029924EA0106013647
:10653400B600B14535D95FFA89F97EB3F6B2A9EB55
:106544000609214003315FFA89F4B146504E05EB48
:10655400810108234A46384601F088FE36B109F124
:10656400080322463146384601F080FE029B08F1BA
:10657400030803EB98030293D5F81834002B4AD18F
:10658400D5F8104458E02A689A4204D86A6038461C
:1065940007B0BDE8F08304EA03008AE73C493446C7
:1065A400D7E72140033108234A4605EB8101DAE7A6
:1065B400012B55D1BDF80C303448C3F3831106299F
:1065C40028BF062161F3891302318900ADF80C302C
:1065D40001F00AFE0746002842D001F034FE33469B
:1065E400082203A9384601F041FEBDF80C20C2F38D
:1065F4008312B31C96424FEA8303BDD202994A1C0C
:1066040021400331029205EB81010422384601F056
:106614002DFE0136E9E7384601F019FEFFF72AFF9F
:1066240080F00100C7B2B2E7637A23B12368394628
:106634001B68204698476468002CF5D1384601F061
:1066440006FE06A800F8114D00F0DEFCD5F818345B
:106654000BB9029B6B609DF8070000F0F9FCDDE7C5
:10666400D5F8104444B90B4B0B491888000440F08A
:10667400020000F06BF8D1E7236820469B68984736
:106684006468EFE7002782E77C2300207CCE0200C9
:10669400882300202C22002010CF02002DE9F74F80
:1066A400284C80460F46924601A9012218469B4673
:1066B400D4F80890FFF744FE88B3019D0026A91C76
:1066C4005E4506EB010234D100211F4801F0F3FAC4
:1066D40080F310006A1C02EA090204EB820200043F
:1066E40005EA0903033340EA1840D06014F8232074
:1066F40068F3C50204F8232034F8232066F38912D2
:1067040024F8232054F82320012167F39F2244F81E
:10671400232061F301026FF3820204F8232094F82A
:1067240020341BB1FFF7B0FE0028FBD103B0BDE855
:10673400F08F09EA020204EB82025AF82630D36091
:106744000136BDE77C2300209827002000231A4649
:10675400FFF7A4BF13B502AC012344F8042D22466D
:10676400FFF79CFF02B010BD07B5CDE9002302235B
:106774006A46FFF793FF03B05DF804FB1FB5CDE94C
:106784000123069B039301AA0323FFF787FF05B0A8
:106794005DF804FB084A38B50123D2F8104482F8A6
:1067A40020341D4604B938BD2368657220465B68F1
:1067B40098476468F6E700BF7C2300202DE9F04F7A
:1067C4003B4F89B000263B4B1B78F5B2AB4202D855
:1067D40009B0BDE8F08F384B196811F83500012471
:1067E400A0F12002C0F1200304FA02F924FA03F311
:1067F40049EA0309D7E9002304FA00F8CDE90423A0
:1068040002EA080203EA0903134301EBC50B4CD067
:10681400DDE9042322EA080223EA0903C7E9002385
:10682400079102F0D3F90799844611F83500A0F1D5
:106834002002C0F1200324FA03F304FA02F21A43FB
:1068440004FA00F300931D4B0192DDE90045D3E9FE
:10685400002314401D4022462B465FFA8CF4002589
:10686400CDE90445049CA0F12005AC400394049CAC
:10687400C0F1200124FA01F1039C0C430499039410
:1068840081400291DDE90245AB4208BFA2420CD12E
:106894009BF801104B1E59425941A1EB0C02DBF845
:1068A40004305142514103B1984701368BE700BF90
:1068B400D0270020A0270020D8270020C8270020A8
:1068C4002DE9F84F0646244800F08EFB002841D1FC
:1068D4000123A6F12001C6F1200203FA01FB23FAE9
:1068E40002F203FA06FA1D4BD3E900014BEA020B4C
:1068F40000EA0A0801EA0B0958EA09021F4623D1F3
:10690400304602F063F9164BB8B1D3E9000140EA0E
:106914000A0441EA0B05C3E90045D7E900234BEA21
:106924000305104B0C4819684AEA0204C7E90045FC
:106934000022BDE8F84F00F013BBD3E9000120EAC0
:106944000A0421EA0B05E6E720EA0A0421EA0B051A
:10695400C3E90045BDE8F88FA8270020D027002010
:10696400C8270020A4270020042A2DE9F341054666
:106974000C4616463AD902F061F8D8B11C4B1D49B1
:106984001D601D4BDFF884801C701C4B00221E60B0
:106994000023C1E900231A49C1E90023013CE4B200
:1069A40000260327FF2C0CD1164A1748002100F0BB
:1069B400C5FA03E002F00AF80028DFD002B0BDE80F
:1069C400F08123B205EBC30201A992788DF805206A
:1069D40015F833008DF8066042468DF8047002F015
:1069E40037F8013CE4B20028DCD0E7E70720E5E70C
:1069F400D8270020C8270020A0270020A427002093
:106A0400D0270020C167020038CF0200C568020009
:106A140070B5084D084E00242B789C4201D3002009
:106A240070BD3368012113F8340002F089F8013491
:106A3400F2E700BFA0270020D82700201FB50021BF
:106A4400039001AA44F20100CDE9011100F004F819
:106A540005B05DF804FB000010B572B6FFF79AFEAE
:106A6400FFF712FD0028FBD1104C114920880004C7
:106A740040F00100FFF76AFE0E4B1B68DB0700D5F0
:106A840000BE20880C49000440F00200FFF75EFEBF
:106A9400BFF34F8F09490A4BCA6802F4E0621343FB
:106AA400CB60BFF34F8F00BFFDE700BF2C22002057
:106AB4003CCF0200F0ED00E048CF020000ED00E022
:106AC4000400FA05094A537891780133DBB29942FC
:106AD40008BF0023117899421FBF03705078182310
:106AE40003FB002014BF043000207047DC27002083
:106AF40073B5054602A8002400F8014D0E4600F0C7
:106B040083FA0DF10600FFF7DDFF90B106700A4B22
:106B14009DF8062045605A709DF8070000F098FA29
:106B240024B9064B4FF48012C3F80021204602B06A
:106B340070BD0424F0E700BFDC27002000E100E082
:106B4400024B4FF43C6043F00103184760CF02004E
:106B540038B50C4B0C4C4FF40032C3F8802001259F
:106B64004FF48033C4F84833C4F808336560FFF742
:106B7400E7FF064BA56000241C60FFF7E1FF044B10
:106B84001C7038BD00E100E000100140F82800202E
:106B9400E9280020F8B51F4B1F491B680025C1F8E0
:106BA4004051C1F84451C1F84851C1F84C51C1F8A1
:106BB4000051C1F804514BB3D1F804451749096891
:106BC400641A24F07F442F461A68A24209D8A41AF2
:106BD40015441A7CDE691AB11F74D3E90520904765
:106BE400AEB90F4B0F4A197813788B4205D1013394
:106BF400DBB2022B08BF0023137012780A4B43F850
:106C040022500A4B4FF48012C3F80021F8BD3346DA
:106C1400DAE700BFFC28002000100140F82800201B
:106C2400F4280020F5280020EC28002000E100E0F2
:106C34002DE9F74F9E4A9F49137809789E4D994252
:106C44003CD00133DBB2022B08BF002313709B49F5
:106C540012789B4B0F6853F822003B1823F07F43B4
:106C640000220B602B6816461446944613B942B1B1
:106C74002B6006E0196881420ED902B12B60091A13
:106C840019604FF001082B68DFF83CA2009300273D
:106C9400BEB9DFF83CB260E0401A0C44D968C3F8CE
:106CA40000C0D3F81CE031B13A1922F07F42C3E9A5
:106CB4000121DE611E4601227346D7E70026B04655
:106CC400E1E73446F6697D4A63681268DFF804C276
:106CD400A068991A21F07F41614500F2A580014422
:106CE4002160012222742A680023C4E90133E3618C
:106CF400002A40F0A2802C60CAE75A1C9BF80210BC
:106D0400D2B291428BF8002004BF00228BF80020FD
:106D1400182202FB03B32A6819799C68022974D0EB
:106D240003297ED0012918D1217CB1B9DA686260C7
:106D34001A69A2605A699B69A361624BE2601B787D
:106D4400002BC0D06160BEE79C4200F0938099465E
:106D5400DB69002BF8D1002323749BF800309BF8E7
:106D640001209A42C9D12B682FB9009A934202D1CB
:106D7400B8F1000F43D0002B79D0D3F800A0524DC6
:106D84004E4BD5F804751C68DFF84C813E1B98F80F
:106D9400003026F07F4603369BB94FF48033C5F8A4
:106DA4004433C5F80433494B4FF400324FF0010922
:106DB400C3F880211A60C5F80090FFF7C1FE88F877
:106DC4000090B2452CBF5444A41924F07F44C5F864
:106DD4004045D5F80435DB1B23F07F43E41B033324
:106DE40024F07F44A3420AD9D5F80435C5F84035C8
:106DF400FFF7A6FE354B4FF40032C3F80021314BA8
:106E040000221A7003B0BDE8F08F13469146A0E744
:106E14001174D2690123002AFAD1002B9DD02A6073
:106E24009BE700231946F6E7D31A23F07F438342F6
:106E340034BFC31A0023236053E7216813689942BF
:106E440013D8591A1160E26155E7091AD8691A462C
:106E540038B1034618688842F7D3401A18601846B8
:106E640013462160E061DC6112E71346F2E7FFF7A5
:106E74006FFEC4E74C450DD1D3692B6053B90F485D
:106E840001920121CAF8081003600E4B1970FFF734
:106E940057FE019AE1692368C9F81C1011B108680A
:106EA40003440B602B689A4218BF012753E700BFC5
:106EB400F4280020F5280020FC280020F8280020D1
:106EC400EC280020E82800200010014000E100E048
:106ED400DC270020FEFF7F00E928002008B5FFF72B
:106EE40037FE104B00200B2218809A700E4B18604E
:106EF4000E4B18700E4B18700E4B4FF48012E0219D
:106F0400C3F8802183F814131A6002F18042A2F5B9
:106F14006F22C2F8080583F81113074BD2F8042531
:106F24001A6008BDDC270020FC280020F42800207B
:106F3400F528002000E100E0F8280020074B9B78AA
:106F44004BB132B128B10368187C20B959745A6125
:106F54007047072070470820704700BFDC270020D7
:106F64002DE9F7431D4FBB7805460E4690469BB36B
:106F740090B304292ED9436973B3437C02A8002437
:106F8400012B00F8014D0CBF8946A14600F03CF8E6
:106F94000DF10600FFF796FDD0B101230370104BED
:106FA4004560D3F80435C0E90498C0E902369DF879
:106FB40006307B709DF8070000F04AF824B9094BAD
:106FC4004FF48012C3F80021204603B0BDE8F083DB
:106FD4000424EFE70724F7E70824F5E7DC2700207B
:106FE4000010014000E100E0064A92783AB130B165
:106FF400426922B1002202740221FFF779BD082000
:10700400704700BFDC27002070B5EFF3108672B61E
:107014000C4A946801239CB993600B4B0B4DD3F835
:10702400801029401160C3F88050D3F88410516057
:107034004FF0FF32C3F88420047006B962B670BD05
:107044000370FAE70029002000E100E0FC06FFBD20
:10705400084B9A6810B55AB150B9EFF3108172B663
:10706400054A1C6814605C685460986001B962B693
:1070740010BD00BF0029002000E100E070B5064EFD
:107084000546002456F824300BB1284698470134AD
:10709400042CF7D170BD00BF18290020033080B242
:1070A40040F2FD33984230B51FD8124B1A783AB9E2
:1070B4001C895D892C440444A4B2B4F5806F0AD3BE
:1070C4001A7DA2B99A8BDC8B2244024492B2B2F5A7
:1070D400806F0CD201220A801446142202FB04336E
:1070E4005A8910445881002030BD0920FCE707204C
:1070F400FAE700BF4C2900200B4A0C4B518814209E
:1071040000FB0131CB6833B90420496810700122B7
:10711400074800F0E3BE05230649137002238B8061
:10712400012200230968F3E7302900204C290020BC
:10713400582200207829002007B500230549009330
:10714400054A09680548082300F044FE03B05DF8C9
:1071540004FB00BF7829002074CF020058220020CD
:1071640007B50023009301460823034A034800F0AF
:1071740031FE03B05DF804FB6CCF020058220020FE
:1071840013B500230C46009301460423074A08481C
:1071940000F020FE38B9074B142202FB043401230B
:1071A400237402B010BD0E20FBE700BF68CF0200BD
:1071B400582200204C29002037B50A480A4B42685F
:1071C4009C88196853880325033305709BB20020FB
:1071D40000909B0001EB8401044800F0FBFD03B028
:1071E40030BD00BF3029002078290020582200201B
:1071F40010B50146044800F0CDFC1C2204460021D1
:1072040005F099FD204610BD6C220020438803330D
:1072140000EB8303994209D382884FF6FF739A42A5
:1072240006D00088B0FA80F0400970470220704709
:1072340001207047144A142303FB002070B50B6827
:1072440044680D4604F580569BB15C88033403EB17
:107254008404B4420BD22368013308D0314620465B
:10726400FFF7D4FF012809D005D30228F1D100206B
:1072740003E00834EDE72C60012070BD638803331C
:1072840004EB8304E5E700BF4C290020436873B591
:1072940005460C466BB3254AD1688B4229D3126943
:1072A400934226D813F0030223D121490089098986
:1072B40088421ED12868996888421AD11D494868B5
:1072C400834203D900F5805083420ED38A699342E6
:1072D4000DD902F58052934209D201232380002064
:1072E400B0FA80F0400902B070BD1346F6E70A20F8
:1072F400F6E7002323801E462388012B01D90020B2
:10730400F1E7019601A92088FFF794FF18B92388B3
:1073140001332380F0E7019B2A6899689142F1D1F7
:107324006B60034B1B892B81DDE700BF58220020D3
:10733400302900204C2900202DE9F8431C461E4B1F
:107344001B7806460F461546002B30D0002A30D055
:107354007CB3DFF86C804FF01409A388012B01D9AA
:107364000A201AE009FB03F318F80330BBB1A38821
:107374000133A380F1E723681EB1998832889142D2
:107384000DD11FB119883A88914208D19A68C5E98C
:1073940000230A4B1B892B810020BDE8F88321467A
:1073A400A088FFF747FF0028E5D12060DFE702202F
:1073B400F3E70520F1E700BF282900203029002049
:1073C4004C29002008B5074B191D5888FFF732FFD8
:1073D40018B1BDE80840FFF7EFBEBDE80840FFF76D
:1073E4008BBE00BF302900202DE9F04FA04FDFF8FD
:1073F400A49289B00646B8463B6823B949469D48DD
:1074040000F002FC3860D8F8005029784B1E052B98
:1074140000F21281DFE813F0060076007600060120
:1074240006015D0126B1944B00225A60012424E038
:107434002B79032B1DD8DFE803F01502424D8F4949
:107444000B78022B084631D00B7D022B4FF0010341
:107454002ED114225343C2180020C8545068FFF799
:107464007FFE03E001232B71FFF766FE002800F086
:10747400D380814B00225A600E241422002103A8D9
:1074840005F059FC41F61D539C4208BF0024D8F86E
:10749400003004941A78023A042A00F2D381DFE817
:1074A40012F0B401C001E301EB01F2010023D0E7C3
:1074B400714A13700023536041F61D54DDE770498F
:1074C4007048002302222B718A800122096800F08F
:1074D40005FDCBE76A4C00262E712068674DFFF747
:1074E4003FFE694BD4F800C05A8814235343EA186A
:1074F400EE5451682160A188C2F804C011810222AF
:10750400A280B3E7B5F814A0AA7DDFF870B1AEB1DC
:10751400022AEB8806D9142101FB0AB1DA1C088976
:1075240002440A81142202FB0ABAC3F57F43BAF863
:107534000A20FD331344AAF80A3077E7142303FB27
:107544000AB318895C6804EB8004062A05D8DFE8CE
:1075540002F0264C34421C5866000F24AA7DEB88A6
:10756400022A06D9142101FB0AB1DA1C0889024453
:107574000A81142202FB0ABAC3F57F43BAF80A202F
:10758400FD331344AAF80A3077E740484049002302
:107594004360AB690360FFF779FE00285AD00223E9
:1075A400AB75002300930423EA182146354800F004
:1075B40011FC002830D00E24D0E72B69002B0CBF1F
:1075C40001230323AB750023009305F10C0204236C
:1075D40004F10801EAE70123AB750022EB8800926D
:1075E4009B002A6904F10C01E0E7032914BF062378
:1075F4000523AB7500230093042305F10802E11869
:10760400D4E70623AB75224B1988204B5868FFF743
:10761400B7FD04460028A1D109B0BDE8F08F41F6BA
:107624001D549BE7002E7FF401AF2B79012B33D03F
:1076340004D3022B3FF440AF0F241EE702232B7127
:107644000DF10A01EB68039303A8CDE90466FFF783
:107654001DFE08B90A2410E70498BDF80A108388AF
:10766400EB8003882B81FFF78BFD044627E000BFE6
:10767400482900206C220020282900204C290020C1
:107684007829002058220020302900200C290020CD
:107694008029002040290020DFF808A203AA5346CD
:1076A4003146A81DFFF748FE044660B9BAF8041035
:1076B4000498FFF765FD04460A2C3FF4FDAE002C48
:1076C4007FF4DBAEA8E708223146504605F033FBD1
:1076D400F2E7002E7FF4AAAE6D4B1A7BB2B11E7393
:1076E4001A78013A062AA7D801A151F822F000BF5E
:1076F4009B770200C1770200DF770200E577020082
:107704003D760200EB770200017802001A78072A1E
:10771400E6D801A151F822F03D770200E576020097
:10772400E57602006377020077770200977702001C
:10773400977702005F7702001A89564901321A814D
:1077440000225A801A730A78B2FA82F252099A72A3
:107754000A7DB2FA82F25209DA72012207E04E4936
:1077640058688A884088033202448A8002221A7048
:10777400B6E7484C5A884849142505FB0242086874
:10778400546850608888108102228A800C60062226
:10779400EDE70722EBE79A7A32B9DA7A8AB900225E
:1077A4001A705A805A6087E63A4900229A72CA6867
:1077B400002AF2D1097C0029EFD05A80FFF702FE9B
:1077C40053E70022DA72334A116A0029E7D192F8AA
:1077D4002420002AE3D00122EFE7FFF7EDFC44E781
:1077E400FFF78AFC41E706221A702A4A5B881421B3
:1077F40001FB03235868FFF7B3FC36E707221A702E
:1078040000225A60FFF798FC2FE701228DF80C2024
:107814001A89ADF818209A88DB68ADF81A20059308
:1078240010E002228DF80C201A89ADF818209A88ED
:10783400ADF81A20DA689B7D05929A1F5342534192
:107844008DF81C3003A8FFF719FC0026494613489D
:10785400C8F8006000F003FA0121114800F06CFA46
:1078640000287FF4C9ADD7E603228DF80C20DA880E
:10787400ADF818201A89CFE70422DB888DF80C2094
:10788400ADF81830DEE705238DF80C30DAE700BFD9
:10789400302900204C290020782900206C22002067
:1078A40074290020842900204068FFF79DBD000052
:1078B40008B50121044800F029FA18B9BDE80840C8
:1078C400FFF792BD08BD00BF742900202DE9F341E4
:1078D4009846354B1B7806460D46002B5BD0002995
:1078E4005BD009884FF6FF73994258D06B88002B00
:1078F40055D06B689B0754D14AB92F890DF1020109
:107904003846FFF7CBFB30B102B0BDE8F0811388F5
:107914005788ADF8023001A8FFF76AFC044658B94D
:10792400BDF80230214A142101FB0323588903388E
:10793400C01B58810820E7E700238375BDF8023097
:1079440083826B68036180F800800121184800F08D
:10795400E8F92B882381B8F1030F6B88A38004BF57
:107964000423A3754FF0000508BF3368E06008BF27
:10797400A361E780658101A90E4800F035F936B1AD
:10798400E36833600C4B75601B89B5723381FFF774
:107994008FFF0020B8E70220B6E70520B4E70420F3
:1079A400B2E70320B0E700BF282900204C290020BB
:1079B400442900206C2200203029002073B50D4694
:1079C4000446C8B1C1B10DF10601FFF75FFCA8B1CF
:1079D4000B4BBDF806006668142202FB003001213F
:1079E4000C3000F09EF963682E600C336B60012349
:1079F400A372002002B070BD0520FBE70A20F9E75E
:107A04004C29002013B50446A8B10DF10601FFF777
:107A14003DFC90B10B4ABDF80630142101FB032351
:107A2400DA6862B1A27A52B1DA680020013ADA6007
:107A3400A07202B010BD0520FBE70A20F9E706207A
:107A4400F7E700BF4C2900200B4B1B7837B50446E1
:107A54000D4663B168B10DF106012846FFF71EFB20
:107A640018B9BDF806302380658003B030BD02200C
:107A7400FBE70520F9E700BF28290020104B1B78FD
:107A840010B5B3B1B8B10288022A16D80D4943889B
:107A9400142404FB02129C1C51898C420DDAC3F598
:107AA4007F43FD330B4453810023038043801846F6
:107AB40010BD0220FCE70520FAE70420F8E700BF28
:107AC400282900204C29002002230022FFF7FEBEB3
:107AD40012B10223FFF7FABE0520704718B1032341
:107AE4000022FFF7F3BE052070470000104B1B78FF
:107AF40013B50446ABB14FF6FF73984213D001A8F7
:107B0400FFF776FB88B10523037001230371C4805A
:107B140001A9084800F068F8FFF7CAFE002002B087
:107B240010BD0220FBE70420F9E70820F7E700BFB7
:107B3400282900206C22002007B5ADF8060002A811
:107B440020F8041D01460DF10600FFF7F5FB03B014
:107B54005DF804FB13B502AC134624F8020D0A4683
:107B640000202146FFF7E8FB02B010BD13B502ACBC
:107B7400134624F8020D0A4620460021FFF7DCFBD9
:107B840002B010BD20B119B103680B60002070472A
:107B94000520704737B550E8013F9DB2C48925449C
:107BA4008489A54228BF2D1B0489A54202BFBFF3C7
:107BB4002F8F002207E0C5EA030540E80154002C9A
:107BC400E9D14FF001028DF803200193019B9DF848
:107BD40003200B6002F0FF0322B10B8800681844F5
:107BE40003B030BD1846FBE70A884B889A4209D196
:107BF40050E8012FC2EA024240E80123002BF7D1EA
:107C0400012070470020704737B550E8023F1FFA43
:107C1400A3F5C488A54202BFBFF32F8F00220DE055
:107C2400C48925448489A54228BF2D1BC3EA054580
:107C340040E80254002CE8D14FF001028DF80320F3
:107C44000193019B9DF803200B6002F0FF0322B116
:107C54004B880068184403B030BD1846FBE70A8817
:107C64004B889A4209D150E8022FC2EA224240E8E6
:107C74000223002BF7D1012070470020704701F048
:107C84001F024B090121914000EB830000F01DB855
:107C940001F01F0301229A404B0900EB8300D143FA
:107CA40000F029B84B0901F01F0150F82300C84027
:107CB40000F00100704750E8002F0B4640E8003CFC
:107CC4009CF0000FF7D11046704750E8003F43EA9C
:107CD400010240E8002C9CF0000FF6D110467047DA
:107CE40050E8002F02EA010340E8003C9CF0000F3A
:107CF400F6D11046704750E8003F03EA010240E81D
:107D0400002C9CF0000FF6D11046704750E8002F6D
:107D140002EB010340E8003C9CF0000FF6D1104652
:107D2400704750E8003F03EB010240E8002C9CF050
:107D3400000FF6D11046704750E8003FA3EB010254
:107D440040E8002C9CF0000FF6D11046704701214A
:107D5400FFF7BBBF0021FFF7C3BF37B5054602A835
:107D6400002400F8014DFFF74FF92A686B68116889
:107D740099420ED9481E106011F8014CEB68A98A8B
:107D840001FB0434AB6811791B1ADBB2994238BF8A
:107D940013719DF80700FFF75BF9204603B030BD6F
:107DA40037B5054602A8002300F8013D0C46FFF74D
:107DB4002BF92A681368591C1160E968641AA98AA6
:107DC400B4FBF1F41C709DF80700FFF741F903B010
:107DD40030BD00002DE9F34178B9354B354A188898
:107DE400354B0E2400040094344940F00100FEF7A2
:107DF400C5FC204602B0BDE8F0813AB92C4B304AAC
:107E040018882D4B0E2400040094EDE7D0F800C030
:107E1400BCF1000F07D1264B2A4A1888264B0824A8
:107E240000040094E0E73BB9214B274A1888224B11
:107E3400092400040094D7E74768D7F80480B3FB0B
:107E4400F8F708FB17373FB1194B204A18881A4B2B
:107E5400092400040094C7E78F0707D0144B1C4A79
:107E64001888154B102400040094BDE712F0030F8A
:107E740007D00F4B174A18880F4B102400040094A6
:107E8400B2E7C768B9420BD34C1E05691C44AC4227
:107E940006D8DCF80C40A44602B0BDE8F0416047C7
:107EA400034B0D4A1888044B1024000400949BE7EC
:107EB4004422002026D002008BCF02002BD00200E7
:107EC400A8D002009CD002005BD00200AED0020019
:107ED400D8D00200F0D0020013D10200F7B570B977
:107EE400254B264A1888264B0E2400040094254965
:107EF40040F00100FEF742FC204603B0F0BDD0F88C
:107F040000C0BCF1000F07D11B4B1F4A18881C4B43
:107F1400082400040094EAE73AB9174B1B4A18886E
:107F2400174B092400040094E1E74768D7F800E000
:107F34000EF1FF370F4207D00F4B154A1888104B2C
:107F4400102400040094D2E7C768B9420CD34C1E35
:107F540005690EFB0244AC4206D8DCF81040A44686
:107F640003B0BDE8F0406047034B0A4A1888044B4D
:107F7400102400040094BAE74422002026D0020012
:107F84009ECF02002BD002009CD002005BD00200E6
:107F9400B1CF0200D7CF02002DE9F04108B1036848
:107FA400C3B90E4E0E4B14229B1B0024B3FBF2F3F9
:107FB400374602FB03F5A54201D1002008E03B59F6
:107FC40030190BB91434F6E7DB6998470028F9D067
:107FD400BDE8F081DB69BDE8F04118475822002074
:107FE4006C22002029DF704728DF704770B50368D2
:107FF4009D6886B004460E466DB114220021684681
:1080040004F099FEA3680593237901962BB1012B03
:108014000DD06846A84706B070BD01238DF8003026
:1080240023690293E368039363690493F1E70223EA
:108034008DF80030E3681B030293F5E7034B187ACD
:108044000122B0FA80F05A74400970478C2900204C
:1080540070B5244D244E2B7A2C463BB92349244831
:10806400FFF7D2FD306008B9686070BD0223237247
:1080740033681A7972B1012A24D018460321FFF714
:10808400B5FF00232372636018491948BDE87040A6
:10809400FFF7E5BDD3E90520121AB2F5805F28BFCA
:1080A4004FF48052D3E903159208012A014438BFE2
:1080B40001222844FFF796FF50B11128DDD1012396
:1080C4002372D2E7D3E903021044FFF78DFFF3E7ED
:1080D400237C002BC9D10146BDE87040022000F08A
:1080E40009B800BF8C290020A4290020A029002061
:1080F4008022002038B5831E012B45D8234C237AD7
:10810400002B41D0022B09D1032830D0204B1B680F
:108114000022E2601A793AB1012A22D0637C7BBB47
:10812400BDE83840FFF794BFD3E905128D1AB5F5C1
:10813400805F94BF521902F580529A619142EDD149
:1081440002284FF0000308BF19462372104B18BFD2
:108154000D211868FFF74AFF0E490F48FFF77FFD0E
:10816400DCE71A6901321A615B699A42E7E7E3685E
:108174000133082B01D8E360D0E70023E360DFE795
:10818400BDE8384004F0E2BA38BD00BF8C290020B5
:10819400A4290020A02900208022002000F0FD0353
:1081A400012B08D1044B00225A74421E5042504104
:1081B4001874FFF74DBF70478C290020F8B5467935
:1081C4000146721E0546002393422D6803D3002402
:1081D400A64202D8F8BD0133F6E70F682846FFF738
:1081E400DFFD01343946F3E72DE9F843868ACD1CD7
:1081F4000746FFF7B2FD043E35440446B5FBF6F5E9
:10820400F0B14FF48073EDB28380C680013D076006
:1082140081464FF00008A84512D23846FFF79DFD6D
:10822400064648B163790133637108F10108C9F85E
:10823400000007608146EEE72046FFF7BFFF3446A3
:108244002046BDE8F88301210430FFF76ABD10B56C
:10825400012104460430FFF76FFD10F0FF0F04D135
:108264002046BDE81040FFF7A9BF10BD2DE9F84333
:10827400C7880546181D8846B0FBF7F4164607FB69
:1082840014003CB9A7EB0009B14528BFB14626B993
:10829400BDE8F8832D68013CF3E70430A6EB09063A
:1082A4004A4608EB0401284404F01CFDB7424C4440
:1082B4002D68B9464FF0000028BFB146E7E741DF1B
:1082C40070470000064B10B500241C70054B1C6061
:1082D400BFF35F8F0449054800F030F8204610BD15
:1082E400B0290020B429002058D10200A829002078
:1082F40007B502A8002300F8013DFEF785FEF1EE64
:10830400103A23F09F03E1EE103ABFF35F8F0A4B5C
:108314004022C3F884219DF80700FEF799FE04F07B
:1083240025FA20B1FFF7CBFF03B05DF804FB20BFB3
:1083340040BF20BFF8E700BF00E100E00B684A68D7
:108344004360934208BF0023016008BF4360704745
:10835400436843B10268916852680B449342436096
:1083640004BF0023436070470D4930B5A1F59472F2
:108374000225914201D800200EE08B1ADB1093FBFA
:10838400F5F302EBC30452F83330834205D802D22A
:1083940004F10802EDE7606830BD2146E9E700BF5B
:1083A400A8D2020008B5FFF7DFFF024B002808BF80
:1083B400184608BD6DD102000C4B1B78062B10D15A
:1083C4000B4B1B681A070CD10A4B186800F0F0031A
:1083D400302B08D000F0E000A0F14003584258418F
:1083E4007047002070470120704700BFE00F00F085
:1083F400E40F00F0E80F00F0094B1B78062B0CD1BA
:10840400084B1B681A0708D1074B186800F0F000E6
:10841400A0F130035842584170470020704700BF14
:10842400E00F00F0E40F00F0E80F00F008B5FFF7EC
:10843400C3FF28B17D4B7E4A1B68C3F3042313603A
:10844400FFF7DAFF10B17B4B7B4A1A60FFF7B4FFEA
:1084540028B17A4B7A4A1B68C3F342331360FFF79F
:10846400CBFF20B1774AD36823F08073D360FFF742
:10847400A3FF40B14FF080430022C3F80C21C3F89E
:108484001021C3F83825FFF7B7FF10B16E4B032254
:108494001A60FFF7B1FF40B16C4B05221A6001224C
:1084A4009A6700229A603F225A60694B1B78062B18
:1084B40050D1684B1B6819074CD1674B1B6803F0FC
:1084C400F003502B46D14FF08052644BD2F8041481
:1084D400C3F82015D2F80814C3F82415D2F80C14E4
:1084E400C3F82815D2F81014C3F82C15D2F81414B4
:1084F400C3F83015D2F81814C3F83415D2F81C1484
:10850400C3F84015D2F82014C3F84415D2F8241443
:10851400C3F84815D2F82814C3F84C15D2F82C1413
:10852400C3F85015D2F83014C3F85415D2F83414E3
:10853400C3F86015D2F83814C3F86415D2F83C14A3
:10854400C3F86815D2F84014C3F86C15D2F8442463
:10855400C3F87025FFF730FF28B1414B414A1B682F
:1085640003F04F031360FFF727FF48B14FF0804338
:10857400D3F80024D20744BF6FF00102C3F80024EB
:10858400394B1B68062B08D1384B1B68062B01BFDF
:10859400374A136843F480631360364AD2F888304C
:1085A40043F47003C2F88830BFF34F8FBFF36F8F6B
:1085B4004FF01023D3F80022002A03DBD3F804324F
:1085C400002B2FDA2C4B0122C3F80425D3F8002406
:1085D400002AFBD04FF010221521C2F80012D3F864
:1085E4000024002AFBD04FF010231522C3F80422E4
:1085F400214B1A46D3F800140029FBD00021C3F8FC
:108604000415D2F80034002BFBD0BFF34F8F194967
:108614001A4BCA6802F4E0621343CB60BFF34F8F76
:1086240000BFFDE7164B174A1A6008BD240300106B
:108634004035014074C007400DF0ADBA440200104B
:108644003C050040F0ED00E0A0050040105600405D
:10865400E00F00F0E40F00F0E80F00F000C000406D
:1086640058020010E40E00403001001034010010E4
:108674003C17004000ED00E000E001400400FA0572
:10868400942200200090D003054A4FF0A043105CD0
:10869400D3F8043523FA00F0C04300F0010070471A
:1086A40062D60200044B1A5C012393404FF0A042AF
:1086B400C2F80C35704700BF62D60200044B1A5C46
:1086C400012393404FF0A042C2F80835704700BF21
:1086D40062D6020008B50020FFF7F0FF0120FFF783
:1086E400EDFF0220FFF7EAFF0320BDE80840FFF793
:1086F400E5BF08B50020FFF7D5FF0120FFF7D2FF43
:108704000220FFF7CFFF0320BDE80840FFF7CABFF0
:10871400074A4FF0A041105CD1F804350122824091
:1087240022EA03001340C1F80805C1F80C3570476C
:1087340062D602000D2809D00E2809D00F2809D0CE
:1087440010280CBF03204FF0FF3070470020704703
:108754000120704702207047C20708B501460CD5B6
:108764004FF0A0430322C3F84427C3F84827C3F8B3
:108774004C27C3F85027FFF7ADFF8B070AD54FF0FE
:10878400A0430C22C3F83427C3F83827C3F83C2786
:10879400C3F8402708BD000038B5084C04F10803AD
:1087A4000546002818BF1C4623682BB11A682260AE
:1087B4005B6828469847F7E738BD00BFC02900200A
:1087C40020B9054B01225A70FFF7E6BF012802D1F8
:1087D400014A9070F8E77047B829002020B9034B8C
:1087E40001225A70FFF7D8BF704700BFB829002094
:1087F40038B50B4C237883B90A486360A3602361BE
:10880400E36000F05FF8054603F0B0FF08B900F03C
:1088140067F801232370284638BD8525FBE700BF90
:10882400B8290020C587020037B502A80023094CE7
:1088340000F8013DFEF7E8FBE368013BE360E5680F
:1088440015B900F061F8A5709DF80700FEF700FC6B
:1088540003B030BDB8290020012813B509D003D3D3
:1088640003281BD002B010BD0F4B0122C3F8802097
:10887400F8E702A800230D4C00F8013DFEF7C4FB05
:1088840023780BB9FFF7B4FFE3689DF807000133C1
:10889400E3600123A370FEF7DBFBE3E700F020F8BD
:1088A400FFF7C2FFDEE700BF00E100E0B8290020C7
:1088B40000F18040002382B0036003680193019BB0
:1088C40002B07047054A13792BB901211060117168
:1088D4005371184670478520704700BFCC2900208B
:1088E400084B1A68D20706D4E02283F80023012239
:1088F400C3F880211A604FF080430122C3F8182581
:10890400704700BF00E100E0044B01221A604FF001
:108914008042D2F81834DB03FBD470470C000040CB
:10892400124B1B6810B573B14FF48070FFF7C0FF92
:108934004FF080430122C3F808230D4B587910B936
:108944005A711B6898470B4B1B6873B14FF48270C4
:10895400FFF7AEFF4FF080430222C3F80823044B15
:1089640001201B68BDE81040184710BD00010040FD
:10897400CC2900200401004000F1804000F5C040F3
:10898400002382B0036003680193019B02B0704727
:10899400800000F1A040D0F8003723F44033C0F841
:1089A4000037D0F8003743EA0141C0F80017704798
:1089B400054B4FF0FF32072843F8202084BF1B18D3
:1089C40083F84820704700BFD429002010B5174C05
:1089D40094F8583043BBFF21E2180133202B82F86E
:1089E4003010F9D10021C8B2FFF7E2FF01310C29A0
:1089F400F9D1042200210E4804F09DF90D4BE02228
:108A040083F806234022C3F880214FF4BE701A6015
:108A1400FFF7B2FF084B4FF00042C3F804230123D1
:108A240084F85830002010BD0820FCE7D429002029
:108A3400282A002000E100E000600040034B93F886
:108A44005800003018BF0120704700BFD42900200F
:108A5400F0B5394D2C18944694F93040002C68DA5E
:108A64008E78C6F34006002E15BF0023082308277E
:108A74000C27BB4201D10420F0BD55F8232001325C
:108A84004FEA830441D12F1845F823C087F83030CA
:108A940016B9EA1882F848008A78560716D4D70718
:108AA40035D5820002F1A042D2F8006726F0020612
:108AB400C2F80067214FC60800F0070C012202FA31
:108AC4000CF217F806C042EA0C02BA558A780E78FE
:108AD40012F0020224D004F1804303F5C0430002E3
:108AE400D3F8102522F4473222F44072C3F810253B
:108AF4003604D3F8102500F4F85006F44036304319
:108B04001043C3F810050020B6E70133B1E74E78EF
:108B140000F5E0724FF0A047B60047F82260C9E7BD
:108B2400083B2B4493F8500040EA861683F85060C3
:108B3400E9E70820A0E700BFD4290020282A002064
:108B440038B5204C251895F93020072A18DD224421
:108B540092F848309B09032B0DD14FF0A043D3F872
:108B64001035C34013F0010F0CBF02210321BDE8EF
:108B74003840FFF70DBF012B14BF03210221F6E794
:108B8400D3B2072B1CD8930003F1804303F5C043F1
:108B9400D3F8100540F00100C3F8100502F14000BD
:108BA400800080B2FFF7E8FE51B195F9303054F8F7
:108BB40023302BB1012303FA02F2034BC3F804233D
:108BC40038BD00BFD4290020006000404FF0A0430E
:108BD400D3F8103523FA00F000F0010070470000CC
:108BE4002DE9FF470024584A584E594D019401215C
:108BF4001368A2F5C040012B80B206D1D6F8043325
:108C04000B4202D0FFF7B8FE0C430432AA424FEAEB
:108C14004101EDD14F4B1B68012B0AD14FF4BE70BB
:108C2400FFF7AAFE4FF0A04344F00044D3F81035F8
:108C3400019314F0FF0F1AD0474F00250126344248
:108C440010D0AB0003F1804303F5C043D3F8100503
:108C5400D3F8101557F82530C0F30420C1F30141AF
:108C640003B198470135082D4FEA4606E7D1002C99
:108C740066DA00224FF0FF33CDE90223DFF8D89003
:108C84000127002634464FF0A04809EB060393F968
:108C94005020531C45D0D2B222F0C005E90804A8E4
:108CA400084402F0070310F804CC07FA03F31CEAA3
:108CB400030F36D009EB050C92099CF930C059F822
:108CC4002CA0BAF1000F0AD1032A2AD10DF1080E03
:108CD4001EF801C04CEA030C0EF801C001E0032A9F
:108CE400F4D005F5E07110F80C0C58F82110184276
:108CF400C1F3014105D0022913D1032A0BD1114636
:108D040004E003290DD1032A05D102212846FFF7E7
:108D14003FFE0134E4B2BAF1000F02D011462846F6
:108D2400D0470136042EB0D154B14FF0A043019A7C
:108D3400D3F81035934203D00193029B0393A0E729
:108D440004B0BDE8F08700BF00610040006000404F
:108D5400206100407C610040D4290020014B1B6845
:108D6400184700BF302A00200220FFF7D1BC0000C2
:108D74002DE9F04781460D46FFF7DCFC0328044645
:108D840004D8012D04D024D3022D2FD0BDE8F087C0
:108D9400194D47003A18A918AE5C4A7852B1DFF869
:108DA4006880164842464FF40041FEF7D9F808B9E6
:108DB40088F800903B192B449A78114B1A55002ED1
:108DC400E4D0104B1B68002BE0D03046BDE8F047E0
:108DD40018470A48FEF708F9074B04EB440213440A
:108DE4009E78074B1B5DB342D0D1E8E7024B00EB02
:108DF40040041C446678E2E79C2A00205C2A002098
:108E0400B52A0020B02A0020382A00200221007848
:108E1400FFF7AEBF08B5094B1B7853B10020FFF72D
:108E24004DFC0120FFF74AFC0320BDE80840FFF792
:108E340045BCBDE80840FFF74DBC00BF392A0020FF
:108E4400F8B5794C237805461BB100232370FFF74E
:108E5400E1FF172D00F28480DFE805F00C13133FC7
:108E64005061727C84898489919696969696C0C541
:108E7400CDD5E0E0FFF7CEFF6C4B00241C702046FC
:108E8400F8BD0020FFF700FCF8B10020FFF716FC46
:108E9400022D0CBF4FF4E1614FF47A61634B1D70F6
:108EA4004FF400404FF4FA740025E0FB01454FF401
:108EB4007A7200232046294603F0B8FD00220146B9
:108EC4005B48BDE8F840FEF74BB8FFF7EBFB022D1B
:108ED4000CBFC8214FF4C871E0E70020FFF7D4FBB2
:108EE40040B10020FFF7EAFB4FF448714F4B0322D7
:108EF4001A70D5E7FFF7D6FBC821F7E70020FFF784
:108F0400C3FB38B10020FFF7D9FB4FF47A61474B1C
:108F14000422EDE7FFF7C6FB4FF4C871F7E7002022
:108F2400FFF7B2FB48B10020FFF7C8FB3F4B052217
:108F34001A7041F69A110022C2E7FFF7B3FBF5E776
:108F44000020FFF7E5FB394B06221A70002240F699
:108F5400CD41B5E70020FFF7A5FB344B07221A707B
:108F640000248CE701202070FFF7D2FBEEE70120FC
:108F74002070FFF7CDFB00224FF48041A0E7FFF7FC
:108F8400B8FB2A4B0C22EAE72A482B4EFEF72CF8B2
:108F9400D5F1110504461CD0D8B9012D13D0C8232E
:108FA4005D434FF400474FF4FA7000214FF47A7296
:108FB4000023C7FB050103F039FD224601461D4885
:108FC400FDF7CEFF04460220FFF76CFB012333704C
:108FD40055E70220FFF772FB0023F8E7FFF71AFFBB
:108FE400124B1222BBE7FFF715FF0020FFF75AFBD5
:108FF4000E4B1322B3E7FFF70DFF0120FFF752FBDF
:109004000A4B1422ABE7FFF705FF0020FFF74AFBEA
:109014000120FFF747FB054B1522A0E7FFF769FB8B
:10902400024B1D709CE700BFAC2A0020B42A00202C
:109034007C2A00203C2A0020392A0020044B1B688B
:10904400DB0703D5034B1878FFF7FABE704700BF60
:10905400A82A0020B42A0020044B1B6813F0010343
:1090640001D0FFF7EDBE1846704700BFA82A0020C4
:1090740038B51C4B18601C4B10F0020405461960EF
:109084001AD01A4B1A480E221A700F22DA701022C4
:109094009A7111225A72042140F26662FDF764FC4F
:1090A400044648B9FDF7B4FC044628B90146114A00
:1090B4001148FDF743FF0446EB0711D50120FFF7E4
:1090C4004BFB6CB921460D4A0D48FDF737FF0446AA
:1090D40030B90C4A0C480121BDE83840FDF72EBFD9
:1090E400204638BDA82A0020B02A00209C2A00204F
:1090F40088D60200118E0200ACD602004190020014
:10910400B0D602006D8D0200A8D60200032812D842
:10911400012A0BD1012908D100F10E02D2B200EBD1
:1091240040000C4B1A540020704700220129F6D04D
:1091340009D3022901D007207047064B00EB4000F9
:1091440018444270EFE7034B00EB40001844827070
:10915400E9E700BF9C2A002008B501220221002073
:10916400FFF7D4FF08B1072810D1072202210120FC
:10917400FFF7CCFF08B1072808D100210A220846CE
:10918400FFF7C4FF10B1072808BF002008BD000086
:109194000388102B10B502D0112B1ED010BD1A4C11
:1091A4002168B1B901220846FFF7B0FF08B10728CA
:1091B40024D1072202210120FFF7A8FF08B10728C4
:1091C4001CD1042202210020FFF7A0FF08B10728C8
:1091D40014D1236801332360E0E70B4A1368013B91
:1091E4001360002BDAD1FFF7B7FF0028D6D0074B66
:1091F4001B68002BD2D0BDE810401847034B1B68F6
:10920400002BE6D09847E4E7C02A0020BC2A0020BF
:109214006CDF70476DDF704774DF70477047FDF790
:109224000DBC000008B50321044800F018FD18B176
:10923400BDE80840FDF702BC08BD00BF002B0020BC
:10924400032808B507D10220FFF706FF18B1BDE8CF
:109254000840FDF7F3BB08BD07B50A22642390FB61
:10926400F3F38DF8043090FBF2F393FBF2F102FB7D
:1092740011318DF8051002FB130301A903220448E0
:109284008DF8063003F02EFD03B05DF804FB00BF3B
:10929400C72A002007B50A22642390FBF3F38DF854
:1092A400043090FBF2F393FBF2F102FB11318DF8E1
:1092B400051002FB130301A9032204488DF80630AC
:1092C40003F010FD03B05DF804FB00BFCA2A0020C0
:1092D40007B50A22642390FBF3F38DF8043090FB66
:1092E400F2F393FBF2F102FB11318DF8051002FB4E
:1092F400130301A9032204488DF8063003F0F2FC9D
:1093040003B05DF804FB00BFDB2A002007B50A2286
:10931400642390FBF3F38DF8043090FBF2F393FB9A
:10932400F2F102FB11318DF8051002FB130301A9C0
:10933400032204488DF8063003F0D4FC03B05DF832
:1093440004FB00BFC42A002007B502A9012201F8CA
:10935400040D034803F0C6FC03B05DF804FB00BF32
:10936400CD2A002008B50020FFF7EEFF4FF0A04201
:10937400D2F80435D94301F4002103F40023C2F8E0
:109384000815C2F80C3508BD10B50D2003F0B6FB66
:1093940009220446104903F0A5FC09220F49E01CE8
:1093A40003F0A0FC09220E49A01D03F09BFC092236
:1093B400A0180C4903F096FC01220B4904F10C009F
:1093C40003F090FC21460D22084803F08BFC204654
:1093D400BDE8104003F0DCBBC72A0020CA2A0020E5
:1093E400DB2A0020C42A0020CD2A0020CE2A002017
:1093F40000B5B1B0D823AC22002105A88DF8073000
:1094040003F099FC5923ADF80830FFF7BDFF134B67
:1094140004930D230622ADF80C300DF107030693D7
:109424008DF8172002AB01220E938DF890200023B3
:109434004FF496728DF81430CDE9272305A9084B13
:1094440008482E9300F099FB08B1FDF7F7FA0121C3
:10945400044800F08FFB31B05DF804FBCE2A0020F5
:1094640045920200002B00200E2808B522D14FF0AF
:10947400A0420120D2F80435D94301F4002103F4B9
:109484000023C2F80815C2F80C35FFF75DFF002071
:10949400FFF7C2FEFFF7ACFF0020FFF7C3FE002278
:1094A4004FF420310448FDF75BFD18B1BDE80840D6
:1094B400FDF7C4BA08BD00BFE02A002070B503F070
:1094C40001FC064603F0FEFB054603F0FBFB0B2301
:1094D400044696FBF3F003FB10604630FFF7BCFE36
:1094E400152395FBF3F003FB10506430FFF7D2FE15
:1094F400634203F0030304F0030058BF58424630AC
:10950400FFF7E6FE40F26D10BDE87040FFF7FEBEC7
:1095140008B50020FFF780FEFFF7D0FFFFF768FFD4
:109524000020BDE80840FFF77DBE07B59DF8003078
:10953400012262F347038DF80030FF238DF80130D8
:109544008DF802308DF803308DF8043000238DF847
:1095540005306846DF238DF80630FFF759FE08B161
:10956400FDF76CFA6846FFF755FE08B1FDF766FA99
:1095740003B05DF804FB000007B5FDF7AFFC08B1CC
:10958400FDF75CFA364A37480121FDF7D7FC08B1EC
:10959400FDF754FA344A35480021FDF7CFFC08B1F1
:1095A400FDF74CFA002301224FF0A041032002FAF8
:1095B40003F414F4F01F18BF03F5E07403F101037E
:1095C40018BF41F82400202BF1D129490320FFF7CB
:1095D4004FFD08B1FDF732FAFEF774FE08B1FDF74E
:1095E4002DFA03F03FF808B1FDF728FA02AC002386
:1095F40044F8043D0120214603F002F908B1FDF7C7
:109604001DFA204603F0A8F908B1FDF717FA002166
:10961400184801F075FB08B1FDF710FA0120FFF7B7
:1096240084FFFFF74BFFFFF7E3FE134B134801934F
:10963400214601F061FC08B1FDF700FA00224FF465
:1096440000410F48FDF78CFC08B1FDF7F7F9FFF76F
:10965400E9FDFCF719FF0028FBD1FEF749FEF8E706
:1096640015950200B8D6020069930200B4D6020030
:109674006D940200B82B002023920200CC2B002012
:10968400D82B00206DDF704779DF70477DDF70478E
:1096940064DF70472DE9F74F0C9CBDF834B0278880
:1096A400002580468A4691462E46B8F80020B242EC
:1096B4000BDC35B12288013AD21B92B2FF2A39D889
:1096C400DA55002003B0BDE8F08FD8F8042052F832
:1096D4002600019000220DF1030101A8FFF7D8FF35
:1096E4000028EFD19DF803204A4521D12288002D7E
:1096F40014BF0020022002EB09010144594519DC82
:109704003DB9013292B2228003F802A022880132CC
:10971400228022880DF103011A4401A8FFF7B8FF43
:109724000028CFD121889DF803200A4422800125F6
:109734000136BAE70C20C5E72DE9F341089CBDF8D2
:1097440024501746CDE9004502220646FFF7A2FF42
:1097540048B9102239463046CDE9084502B0BDE883
:10976400F041FFF797BF02B0BDE8F0812DE9F04F5B
:1097740000231688138090F82D3085B007460D46D7
:10978400144653B3082E01D80C2004E102A8FFF7B5
:1097940079FF002840F0FF8013880822CA542388E8
:1097A40001339BB21B222380CA542088013080B22B
:1097B400208006220DF10901284403F093FA23883E
:1097C4009DF8082006339BB212F0FE0218BF012256
:1097D4002380EA54238801332380BB78FBB1238898
:1097E4000433B342D0D802A8FFF74EFF002840F05C
:1097F400D28023880322EA54238801339BB219229E
:109804002380EA542388BDF8082001339BB2E91869
:109814002380EA54120A4A70238802332380FA7898
:109824009AB12388D91CB142AED80221E9542388C5
:1098340001339BB201212380E95423880B449BB25A
:109844002380EA5423880B4423807A68AAB12388AE
:10985400D91CB14298D8022192F90020E9542388F6
:1098640001339BB20A212380E954238801339BB23C
:109874002380EA542388013323803B89002B7ED143
:109884003B8A53B1CDE900462B460722032107F159
:109894001000FFF751FF00287DD13B8B53B1CDE978
:1098A40000462B461522142107F11800FFF744FF48
:1098B400002870D13A6A002A70D1D7F82480B8F110
:1098C400000F30D0B8F804302188981C8A1C024458
:1098D400B2423FF659AFFE283FF656AF03336B54FE
:1098E400238801339BB2FF222380EA542388013367
:1098F4009BB22380B8F80020EA54E918120A4A708F
:109904002088023080B22080B8F804205AB1D8F8F8
:10991400081000294CD0284403F0E4F92388B8F84F
:1099240004201344238097F82C30002B7BD1387803
:1099340088B33B88012B3BD021888A1CB2423FF676
:1099440023AF012805D17B7802330B449E42FFF4F8
:109954001BAF023E761A04A9B6B221F8086DA81806
:10996400FFF794FEB8B93B78022B40F09F80BDF816
:109974000830B34240F2B680ADF808609FE0CDE90C
:1099840000462B460622022107F10800FFF7D4FE09
:1099940000283FF475AF05B0BDE8F08FB4F800C0FF
:1099A4000CF10603B3423FF6EFAE1188052901D846
:1099B4000720F0E76FF4486E01EB0E039BB24FF201
:1099C4007D3E7345F4D95388052BF1D96FF4486073
:1099D400181880B27045EBD94FF6FF70814203D05E
:1099E400834201D09942E3D8052305F80C3023883B
:1099F40001339BB212212380E954238801339BB2A3
:109A040023801188E954E818090A41702388023335
:109A14009BB223805288EA54E918120A4A702388B8
:109A24000233238049E7BB6A002BC1D04FF0000901
:109A34004FF00C0A4FF0160B97F82C305FFA89F2AE
:109A440093427FF674AFB96A0AFB02F201EB020893
:109A5400B8F80430981CFE283FF696AE20880333ED
:109A64002B54238801339BB2238005F803B0238849
:109A740001339BB223808A5AEA54E918120A4A70C5
:109A84002088023080B22080B8F804205AB1D8F877
:109A9400081000298CD0284403F024F92388B8F84E
:109AA40004201344238009F10109C5E7012B7FF445
:109AB40063AF7B789E42FFF45FAFADF808300821B6
:109AC400BDF80830FE2B3FF65FAE22880133AB545D
:109AD4002288013292B22280A9542288134423801E
:109AE400002058E70921EBE770B5C0B14AB11688E8
:109AF4000024B44203D305196D789D4208D0A142D5
:109B040001D800200BE0055D01352C44A4B2F0E738
:109B1400A142F6D9A31C1380005D013880B270BD48
:109B240037B502AC002324F8023D1346224605460D
:109B3400FFF7DAFF10B1BDF80600284403B030BDCA
:109B440072DF704773DF704738B5012204460D4653
:109B5400B0F89810D0F89400FFF7E2FF00B1057058
:109B640004F13C0204F1940104F15400BDE83840CE
:109B7400FFF7E6BF80F830107047F8B504460F468B
:109B8400002968D0002866D091F87A301BB191F88A
:109B94009830002B61D1D7F8A030042B5DD0D7F8D2
:109BA4009C30042B59D007F178060FCE4FF0000CEF
:109BB400251D84F802C00FC50FCE0FC596E8070017
:109BC40085E8070084F830C0D7F8A4306363D7F879
:109BD400A830A3634FF6FF7504F19403C4F8A430CE
:109BE400A4F8A8500722614604F1AA0003F0A3F8E0
:109BF40023780BB984F85450224604F155011F25EB
:109C0400C4F89410384622F8985FFFF7AFFD08BBFC
:109C1400224604F17401C4F89C1007F13C0022F8B8
:109C2400A05FFFF7A3FDA8B9A269A4F84820012307
:109C34006269206484F850006264014684F85130FB
:109C440084F83C3004F13C0204F15400FFF778FF3F
:109C540000B92370F8BD0E20FCE70720FAE7F8B539
:109C6400077804460D46002F00F00E81A1700020F5
:109C7400FEF792F9014618B1012363700020F8BD84
:109C840004F1AA060722304603F055F8E38813B11D
:109C9400A378012B04D0E3794BB1A378022B06D12E
:109CA400636BA3B1012284F8B1200820984733469E
:109CB40004F1B00113F8012F12B99942FAD11746F1
:109CC4006B1E032B53D8DFE803F0050B0F1284F847
:109CD400B130ECE7A3791BB194F8243003B95FB930
:109CE400E3790BB1002F44D1237A002B43D1637A5B
:109CF400002B0CBF00250425636BA570002B3CD002
:109D0400033D012D39D86279002A36D094F8B22067
:109D1400002A32D184F8B420012284F8B320072029
:109D2400984704F13C0518220021284603F003F863
:109D3400E36A94F824200121581E884288BF0B4608
:109D440084F83C1084F8513032B1884296BFA36A3B
:109D540084F8521084F85230A178002384F85030EB
:109D640004291BD8DFE801F07A0D25385C000025B2
:109D7400C2E70225C0E70325BEE7002384F8B33019
:109D8400CFE7C4F8A430C4E910630223012284F8A5
:109D94003C30802384F83120A4F84830A378002B89
:109DA4005FD1636B002B3FF469AF94F8310098479F
:109DB40064E7022384F8313062B1072384F83C302D
:109DC4002369A4F848300023C4F8A430E368266467
:109DD4006364E3E70323F1E763696364A369A4F8B5
:109DE400483012B1062384F83C306379B3B194F857
:109DF400B2309BB994F8B43083B1022384F8503064
:109E040004212046FFF7A0FE0028C7D1052384F8CB
:109E1400313004F19403C4F8A430BFE70323F6E718
:109E2400E3696364236AA4F8483012B1062384F812
:109E34003C30637983B194F8B2306BB994F8B430A0
:109E440053B1022384F8503004212046FFF77CFEEE
:109E54000028A3D10623DAE70423D8E784F83130B5
:109E64009CE72A46D4F8A41004F15400FFF768FED6
:109E740000287FF404AF94F8301094F85400FFF7EE
:109E840061FE00288DD0FAE60820F8E60388112B3D
:109E940010B50C460AD0262B1FD0102B05D1C37B3E
:109EA400012B02D18388A1F8A83010BD0022838839
:109EB40081F8B220B1F8A8209A42F6D10B79002B90
:109EC400F3D101212046FFF7CAFE0028EDD0A36B91
:109ED400002BEAD0BDE810401847037A013B012B60
:109EE400E3D889780523013191FBF3F303EB830372
:109EF400C91AC9B2E6E70238012810B50C460DD8D4
:109F04004B785BB100234B7020468978FFF7A7FE9E
:109F140020B1A36B13B1BDE81040184710BD000079
:109F2400034B1A8882420CBF18460020704700BFBA
:109F3400142C0020024B9B6903B11847704700BFE3
:109F4400F82B002013B50B46497A0F4C024669B929
:109F5400D4E901101C7A002C18BF01465868FCF79C
:109F6400FFFF08B1FFF7E6FF02B010BD0021197230
:109F74006369002BF8D00121ADF806008DF80410B8
:109F840001A89847F0E700BFF82B00208388B3F5B9
:109F9400FA7F28BF6FF4F97230B528BF9C18058882
:109FA4004A8838BF002495420CD84088904209D38F
:109FB4008A88A24206D303F2F310904234BF0020F1
:109FC400012030BD0020FCE70388112B70B5014649
:109FD40048D002D8102B1ED070BD122B52D0502B5B
:109FE400FAD12F4BC288DB899A42F5D1038A022B1E
:109FF400F2D186883046FFF793FF05460028EBD060
:10A0040001F1120000F064F930BB6868FCF7ECFF62
:10A014000028E1D009E0C37B012BDDD14FF6FF70AE
:10A02400FFF77EFF054620B90420BDE87040FFF726
:10A0340081BF1C4A8E880680002303721368C5F80A
:10A044000A300A30536843601031FFF79FFF144B06
:10A054006872DB89002BBFD129463046BDE87040C9
:10A06400FFF770BF8088FFF75BFF04460028B3D07A
:10A074004068FCF7B9FF08B1FFF75CFF4FF6FF73C8
:10A084002380A9E786883046FFF74AFF0546002863
:10A09400A2D008310A30FFF779FF6872DCE700BF0D
:10A0A400F82B0020282C0020F7B5174601900E4607
:10A0B40091B1019C6CB100252C46294601A8FDF7FD
:10A0C400F1FD18B13946A8B2B04701340135142D59
:10A0D400F3D1204603B0F0BD0C46FAE773B5019105
:10A0E400019C06466CB100252C46294601A8FDF7C3
:10A0F400D9FD18B106EB440301349D800135142DBC
:10A10400F3D13046346002B070BD00002DE9F04355
:10A1140003888488112B8DB0064640D01A2B43D077
:10A12400102B16D1294DAB680CA8DB4340F8303D09
:10A1340055F8041FFDF7DFFD009901A8FFF7CEFFD6
:10A144000027019B9F4207D3132C18D90420FCF746
:10A1540075FC0DB0BDE8F08301AB03EB47034FF092
:10A164000008B3F8049005EB0800494608F1040818
:10A17400FDF78EFDB8F1740FF5D10137E1E7214603
:10A184001348FDF77CFD21461248FDF778FDF37B6B
:10A19400012BDED010482146FDF771FDD9E70C48AC
:10A1A4002146FDF775FDD4E7057A0C482D09012DEC
:10A1B400214606D9FDF763FD022D21460848F0D05B
:10A1C400EAE7FDF765FD21460548EAE7302C002063
:10A1D400382C0020342C00203C2C0020402C002063
:10A1E400442C00201328014602D80248FDF75ABD2A
:10A1F40000207047342C002010B50446FFF7F2FF0E
:10A2040038B121460348FDF74DFD002814BF022054
:10A21400012010BD3C2C002010B50446FFF7E2FFDE
:10A2240028B121460248BDE81040FDF73BBD10BDF2
:10A23400402C002070B50A4D064628460C46FDF712
:10A2440031FD58B13046FFF7CDFF38B1A01D31467E
:10A2540005EB8000BDE87040FDF724BD002070BD13
:10A26400302C0020F8B50D4C054620460E46174606
:10A27400FDF718FD80B12846FFF7B4FF60B1B01DAB
:10A2840004EB800029461FB1BDE8F840FDF7F7BC98
:10A29400BDE8F840FDF7FCBCF8BD00BF302C002041
:10A2A400F8B50A4C05460E46014620461746FDF70A
:10A2B400F9FC48B1043504EB85043A46A0683146FC
:10A2C400BDE8F840FFF7F0BEF8BD00BF302C002019
:10A2D400007800F00100704710B50446408800F093
:10A2E40067FBA0802046BDE8104001F0B9BA30B544
:10A2F40087B005460C461422002101A802F01BFD7C
:10A30400072301A88DF80430ADF806500394FFF735
:10A31400E3FF07B030BD000030B587B00546142216
:10A32400002101A802F007FD4FF6FF739D42ADF82E
:10A3340006501AD0284600F0F2F90B2804461DD026
:10A3440005D8A0B121462846FFF7D1FF05E0112822
:10A3540005D043F202039842F4D1002200E0012226
:10A36400074B28461978FFF77DFF07B030BD0E2351
:10A3740001A88DF80430FFF7AFFFEEE70F23F7E7EE
:10A38400A92C0020FFF7C8BF024B0349187800220C
:10A39400FFF786BFAB2C0020B5A30200024B034994
:10A3A40018780022FFF77CBFAA2C00204DA40200DD
:10A3B40070B5234E86B031780446FFF73BFF05465F
:10A3C400C0BB204600F0FAF90828014622D006D87E
:10A3D40088B106281ED02046FFF789FF09E043F222
:10A3E4000203984205D043F20143984224D0112835
:10A3F400F1D1012214E02946142201A802F09BFCA9
:10A40400102301A88DF80430ADF806400125FFF7AC
:10A4140063FFEEE7204600F0CBFA00F0E9F90022F2
:10A42400084B20461978FFF71DFF2A46317820464D
:10A43400FFF718FF06B070BD2046FFF76DFFD8E7A1
:10A44400AC2C0020AB2C002070B5002186B0064651
:10A454001C4801F073FB054608B3304600F01AF9B6
:10A46400112801461DD004D860B13046FFF73FFFE4
:10A4740005E0862817D043F202039842F5D1002460
:10A48400254601E02C4605460F4B2A4619783046EE
:10A49400FFF7E8FE1CB921460A4801F074FB06B038
:10A4A40070BD0024F0E71422002101A802F043FC4F
:10A4B400062301A88DF80430ADF80660FFF70CFF01
:10A4C400DDE700BFA82C0020AA2C0020037810B5DB
:10A4D400044673B94088FFF71FFF608800F05CF9F9
:10A4E40038B1044B608819780122BDE81040FFF7A9
:10A4F400B9BE10BDAB2C00200378082B37B5044639
:10A504002CD1417A51BB057A072D1BD0082D29D0B7
:10A51400012D23D16A462946808800F0E5FFE8B979
:10A52400019B1B78D3B1A08800F06AFA4FF6FF7341
:10A53400984213D00D4B2A461978FFF793FEFFF784
:10A5440023FF0BE0808800F05BFA4FF6FF7398421C
:10A5540004D0074B01221978FFF784FEFFF71EFF92
:10A5640003B030BD034801F00EFBF7E7AB2C00202D
:10A57400AA2C0020A82C002010B503888488522B14
:10A5840086B016D0542B21D0502B15D1037B012B30
:10A5940012D1827A012A0FD1018942F6021399421B
:10A5A4000AD11B4B20461978FFF75CFEFFF7F6FE35
:10A5B40002E02046FFF7B0FE164B17491878002238
:10A5C400FFF76EFEFFF7E0FE06B010BD1422002177
:10A5D40001A802F0B0FB112320468DF80430ADF839
:10A5E400064000F0E5F9ADF8080000F001F90B4B66
:10A5F400204619780022FFF735FE094B2046002239
:10A604001978FFF72FFE01A8FFF766FED4E700BF15
:10A61400AA2C0020A92C002089A30200AC2C002025
:10A62400AB2C0020AFDF7047B1DF7047B2DF70475B
:10A63400B3DF704773B50F4B0F4C93E803006D46BF
:10A6440085E8030000222946208801F046F84FF6E9
:10A65400FF762388B34201D0112801D102B070BD26
:10A66400184601F02CF800222946208001F035F824
:10A67400EFE700BFBCD60200AE2C0020044B1A88C2
:10A684004FF6FF739A4201D0FFF7D4BF704700BF63
:10A69400AE2C00202DE9F743804600F089F94FF6EF
:10A6A400FF739842064637D001224FF003096B46E8
:10A6B40008213046571C00F01BFFBFB2054630BBD3
:10A6C40001990A46032342F8049B06314046FFF7EA
:10A6D400ADFF044648B932460821304600F0DCFF9D
:10A6E4000446204603B0BDE8F0830C280DD00528AD
:10A6F40000D12C460821304600F066FF002818BF20
:10A7040003243A46002DD2D1EBE70125F2E70728CE
:10A7140014BF04460C24E4E743F20204E1E72DE904
:10A72400F341804600F044F94FF6FF73984217D185
:10A7340000240325264601272B462246314640465F
:10A74400FFF772FF042820D0082823D00B281DD13E
:10A7540015F002030FD18EB9A4B902B0BDE8F0819F
:10A764006A46082100F0C0FE0028E1D1019B9E1D2D
:10A774009C881D68DFE701250027DDE703251C46CB
:10A784001E46F9E703253446F6E71120002F08BFDB
:10A794000B20E2E70020F9E71FB50DF1070303934F
:10A7A40000F006F902AA012100F09EFE20B9039BE5
:10A7B400187805B05DF804FB0020FAE738B50446C4
:10A7C4000A48FFF735FF70B9084B43F203054FF60B
:10A7D400FF7219882046FFF725FFA84204D11A8882
:10A7E40001321A80F3E7032038BD00BFB02C0020EB
:10A7F40013B5074A044692E803006B4683E8030056
:10A8040000221946204600F068FF02B010BD00BFC8
:10A81400C4D6020046DF7047F8B5094D094E00243E
:10A824000C2707FB046329785888FFF703FD08B950
:10A83400E0B2F8BD0134142CF3D1FF20F9E700BFD6
:10A84400B22C0020B42C00200A4B10B51978044611
:10A85400FFF7F0FC60B1084B00200C2202FB003132
:10A864004988A14201D1C0B210BD01301428F5D1EC
:10A87400FF20F9E7B22C0020B42C002038B505469F
:10A884000C4609B9FF2038BD4FF6FF739842F9D042
:10A894000E4B01221978FFF7E5FC2846FFF7D4FF99
:10A8A400FF2803D1FFF7B8FFFF28EBD008490C239A
:10A8B4004343CA1855804FF6FF75CD522168516045
:10A8C400131DA2889A80A2799A71DCE7B22C002029
:10A8D400B42C0020421E00F10F0312F8010F10B92E
:10A8E4009A42FAD170470120704708B570B171B12E
:10A8F40003780A78534013F0FE0F08D10622013181
:10A90400013002F0A9F9B0FA80F0400908BD002036
:10A91400FCE72DE9F04700F101084F1C06460D46FF
:10A9240000F1110901F1110A10223946404602F0E2
:10A9340093F90446E0B94046FFF7CCFF18B1384616
:10A94400FFF7C8FF044651464846FFF7CEFF737C25
:10A9540003F0FC03042B04D06B7C03F0FC03042BF6
:10A9640002D1201C18BF012000F00100BDE8F087CF
:10A974000024E8E730B585B004460D4600F0BCFB82
:10A9840002AA0DF10601072000F0BEFB10B94FF634
:10A99400FF700BE0BDF80630AB42F1D003992046BE
:10A9A400FFF7B7FF0028EBD0BDF8060005B030BDB7
:10A9B40008B5FFF749FFFF281DBF0C235843034B7D
:10A9C4004FF6FF7018BF185A08BD00BFB42C002002
:10A9D40010B50C46FFF738FFFF280CD0074B0C22AC
:10A9E40002FB003050F8043F23608388A3808379FE
:10A9F400A371002010BD0520FCE700BFB42C00208B
:10AA0400084A30B500230C2404FB03F18D5A854217
:10AA140002D10A44508830BD0133142BF4D14FF6CF
:10AA2400FF70F8E7B42C0020038843B9821C00F1BE
:10AA34000A0312F8010B10B99A42FAD170470120A7
:10AA4400704710B50446FFF7EFFF58B122880B8812
:10AA54009A4208D108220231A01C02F0FDF8B0FA93
:10AA640080F0400910BD0020FCE71FB5044600F04B
:10AA740043FB02AA0DF10601072000F045FB10B9C3
:10AA84004FF6FF7007E0039920464631FFF7D9FFE0
:10AA940018B1BDF8060004B010BD039920462A3150
:10AAA400FFF7CFFF0028E4D0F3E7000010B50C4611
:10AAB400FFF7CAFEFF281FBF0C235843014B1C524B
:10AAC40010BD00BFB42C002070B50446FFF798FFFA
:10AAD4000646204600F08CFD4FF6FF75AE42044654
:10AAE40009D040B93046FFF7AFFEFF281FBF0C2343
:10AAF4005843024B1D52204670BD00BFB42C0020A9
:10AB040030B58DB014460D4600F110030DF1FF323F
:10AB140013F8011D02F8011F9842F9D10D220021FA
:10AB240004A802F008F92B788DF81F306B788DF8A3
:10AB34001E306846AB788DF81D30FFF76BFE9DF82C
:10AB44002F3023709DF82E3063709DF82D30A37044
:10AB54000DB030BD30B5037803F0FE03042B85B08F
:10AB640004460D4618D1411C032201A802F0BAF88C
:10AB74000322211D03A802F0B5F802AA03A928465E
:10AB8400FFF7BEFF032202A901A802F065F8B0FA9C
:10AB940080F0400905B030BD0020FBE730B50388E4
:10ABA400102B93B055D1041D0FCC07AD0FC50FCC9E
:10ABB4000FC594E8070085E8070012AD15F8283D95
:10ABC40003F0FE03062B4ED000F096FA9DF82030D9
:10ABD4005B08012B3FD9022B45D102AA0DF10601D6
:10ABE400072000F091FA00283DD00399284601314E
:10ABF400FFF7B0FF0028F0D005E003992846113193
:10AC0400FFF773FE38B3BDF80640BDF81C002946B3
:10AC1400FFF734FE4FF6FF739C421AD0BDF81C00B8
:10AC2400FFF712FEFF281EBF0C2358430F4BADF84D
:10AC34000C4018BF1C52BDF81C30ADF80A3012ACE1
:10AC4400002304F8403D204600F00CFE2046FFF7A8
:10AC54003DFC13B030BD02AA0DF10601072000F03F
:10AC640053FA0028C9D14FF6FF74CEE7B42C002064
:10AC740090DF7047A5DF7047B5DF7047F0B585B04A
:10AC84000023ADF80810ADF80A106A4602A9074679
:10AC940003930093ADF80430FFF7EAFF064618B3B8
:10ACA400134C2588FDF77EFB2D0445F00105034672
:10ACB4003A4610492846FBF757FDBDF80020BDF879
:10ACC400023002B933B120880B49000440F001007E
:10ACD400FBF74AFDBDF8042032B12088074900047F
:10ACE40040F00100FBF736FD304605B0F0BD00BF73
:10ACF40040220020D4D602001ED702005DD70200F5
:10AD040080B14FF0171303601B2303711723C38013
:10AD1400038141F61B32002301618372C372828175
:10AD2400184670470E20704737B5034680880C4696
:10AD3400A0B91A88232A00F0AC8011D8102A25D093
:10AD4400112A53D0A37A4BB1E1880020FFF792FF78
:10AD5400002840F0A4800123A072E37203B030BD48
:10AD64003A2A4CD0552A66D0242AEBD11A7A0B6998
:10AD74004A73002BE6D04DF67A21ADF80400ADF805
:10AD84000010ADF802008DF804207EE0DB7B0A7928
:10AD94000A73012B13D0022B14D0E18823898B4230
:10ADA40005D20020FFF766FF70B90123E372217B0F
:10ADB400637B8B42C6D20020FFF760FFC2E70B889B
:10ADC400E380EAE74B88FBE7112802D10123A37251
:10ADD400EDE73B4B1D88FDF7E5FA2D0445F0010531
:10ADE400024638492846FBF7B5FCE0E71723CB8039
:10ADF4000B8141F61B338872C8728B81A2E75B8991
:10AE0400CA88934228BF1346172B0A6938BF1723F1
:10AE14000B8162B1C97A51B140F67721ADF80010C7
:10AE2400ADF80200ADF8043069462046904700238F
:10AE3400E372A37286E7DB88C988A072172B38BF38
:10AE440017238B4228BF0B462381FFF715FF58B108
:10AE54001B4B1D88FDF7A6FA2D0445F0010502469B
:10AE640019492846FBF776FCE27A002A7FF46AAF98
:10AE74002369002B3FF466AF40F67721ADF802203A
:10AE84002289ADF80010ADF80420694620469847A1
:10AE940058E7197A237B994228BF19468CE7112871
:10AEA4003FF45CAF064B1C88FDF77CFA240444F0A5
:10AEB4000104024603492046FBF74CFC4EE700BF61
:10AEC40040220020B3D70200E4D70200B0DF70476D
:10AED40066DF7047034610B500214088FFF7F8FF8E
:10AEE400024608B91A7210BD112801D10122F9E7EE
:10AEF4005B68BDE81040184760B159B10378DE2B98
:10AF04000AD00B684360DE2303704FF6FF7343805F
:10AF1400002070470E20704708207047F0B50546A2
:10AF240085B00C46F1B1E8B10B78DE2B1AD18288DA
:10AF34004B889A4204D10B7A13B10846FFF7CAFF33
:10AF44002B88112B32D0512B0ED0012B0AD12B7A06
:10AF5400012B07D1A9886288914203D1237220462C
:10AF6400FFF7B8FF05B0F0BDAE886388B342F9D1EE
:10AF7400AF79022FF6D1AD7B2B1F022BF2D8002123
:10AF84001022684601F0D7FE052D14BF4FF4C0739C
:10AF94000023694630468DF80070ADF80430FFF7A1
:10AFA40095FF0028DED063689847DBE76388AA88AA
:10AFB4009A4204BF4FF6FF736380D3E7012804D09D
:10AFC400043804288CBF0020012070474FF6FF731B
:10AFD400438000F00FBA0000F0B51F4D8BB0002184
:10AFE40008226846297001F0A6FE4FF6FF7000F0B3
:10AFF40007FC4FF6FF770446BC4211D0A4F5804607
:10B00400B6B26A4602A93046FCF7B0FD0A2809D058
:10B014003046FCF76BFD082806460BD101232B7044
:10B024000BB0F0BD204600F08FFB204600F0E8FB9B
:10B034000446E1E7002EF3D0142200210DEB0200B8
:10B0440001F079FE072305A88DF81430ADF81840F7
:10B054000796FFF7BBFFE3E7AC2D002073B504466A
:10B064000D46164600210822684601F064FEA5F547
:10B074008041A4F580406B46324689B280B2FCF729
:10B084005BFD002814BF0520002002B070BDF0B5A0
:10B09400FF2887B004460E4615461F4627D80846A3
:10B0A400FFF78CFF18B303AA2046FFF7D7FF18B1A8
:10B0B4000524204607B0F0BD01A903A8FCF77EFCD7
:10B0C40004460028F4D1019BAE705A882A802FB917
:10B0D400029B6B6003A8FCF795FCEAE73B689200CF
:10B0E400934206D30299686801F0FCFDF2E7072455
:10B0F400DFE70424DDE7000008220021014801F015
:10B104001ABE00BFA42D0020F0B587B007460E4636
:10B114001546FFF753FF0446F8B1A7F58040104ADF
:10B1240003A980B2FCF716FD18B10024204607B02D
:10B13400F0BD01A903A8FCF741FC0028F5D1019B4F
:10B14400AF705A889B882A8003F58043029A6A600C
:10B1540003A83380FCF756FCE8E70124E6E700BFC8
:10B16400A42D002008B5034680780A46FFF726FF81
:10B1740068B119881046FCF767FC072805D0092830
:10B1840002D0002818BF032008BD8620FCE7072052
:10B19400FAE707B502AB43F8040D1846FCF76EFC5A
:10B1A400002814BF0320002003B05DF804FB30B571
:10B1B40089B0FF28044601921D4645D88B7818466D
:10B1C400FFF7FCFE00283FD0A4F58042ADF808202C
:10B1D400A3F58042ADF80A204A6803920A880492D3
:10B1E400194605AA2046FFF739FF0528019B11D10E
:10B1F40053B902A905A8FCF767FC0728044618D030
:10B2040011D8D0B1032415E001AA02A905A8FCF7BE
:10B214005FFCF2E713B101A8FCF730FC02A905A812
:10B22400FCF75CFCE9E7082801D00E28EAD11124D8
:10B2340000E08624204609B030BD002DFAD029460E
:10B2440005A8FCF79FFCF5E70724F3E74FF6FF702A
:10B2540000F062BAFF2808B505D800F063FAFFF7DA
:10B26400BBFE002008BD0720FCE700F081BA00F017
:10B27400ADBA00F0C5BA000030B50A68064B012A21
:10B2840001D9002005E01401E55A854202D10A6083
:10B29400181930BD0132F2E7C02D002073B502AC9D
:10B2A400002344F8043D0E4605462146FFF7E4FF1B
:10B2B40038B18378B34206D1837B9B0703D183687B
:10B2C4000BB902B070BD019B01330193214628469E
:10B2D400ECE710B5044600F03BFB204601F024F9EE
:10B2E4002046FFF7CBF92046BDE81040FFF704B92C
:10B2F4008378013B072B07D8DFE803F0070606062F
:10B30400060704091423038070470123FBE74368FD
:10B314009B8809339B08F6E770B50F4E0446002559
:10B32400237BAB4210D84FF6FF732380A370FF2317
:10B334006373A37B03F0FD036FF30003A373002384
:10B344002373C4E9013370BD617B2944C9B230461B
:10B3540000F0AFFB0135E3E7B02D002037B583786B
:10B36400417B044600252148CDE900558DF8023083
:10B3740000F088FBB8B1237BA278019003EB830330
:10B384009B0068468DF80220ADF80030FFF7B0FF4F
:10B3940004F10803626820886946FFF708FF07285C
:10B3A40017D002D878B1032013E0112813D08628CF
:10B3B400F9D1A37B03F0FD0343F00103A3730C4B0A
:10B3C40001221A7005E0A37B60F3410360F30003DC
:10B3D400A37303B030BDA37B43F0020365F3000302
:10B3E400A373034B01221A702846F2E7B02D002004
:10B3F400AD2D0020F0B5384DC368AA68934287B0DC
:10B4040006460FD0AA6993420ED1012405EB04101D
:10B414003378324F092B14D0132B32D0082B05D09C
:10B4240000240AE00024F1E70020F1E7747A002CFC
:10B43400F6D10028F4D0FFF76FFF3046FFF749FF3D
:10B444000AE0747A002CEBD1E8B1837B846043F08A
:10B454000203837301233B703E7886B1AB7B99076B
:10B4640013D51D48FFF77AFFC0B9AB7F9A0702D402
:10B47400DB072CD55CB31A48FFF770FF28BB07B075
:10B48400F0BD0124D9E70446D7E713F0010303D044
:10B49400002CE6D12646E8E71E46E6E700231B011A
:10B4A4008628EB5AADF808304FF6FF720EBF06231C
:10B4B4000723039001A8ADF806200CBF8DF80430D3
:10B4C4008DF80430FFF705FFD9E70123E7E7002EE5
:10B4D400D5D13E70D3E700BFC02D0020AD2D002094
:10B4E400D02D0020FFF7B2BE0023FFF7D0BD00002F
:10B4F4002DE9F84381460E4614461F46002B5CD0C6
:10B50400CB1F012B02D90720BDE8F883531E012B62
:10B51400F9D8FFF7AAFE05460028F4D0314648467C
:10B52400FFF7BCFE804650BBFF214FF6FF70FFF7CC
:10B53400B5FE804608B3A0F80090867098F80D30E8
:10B54400FF2B21D121461F4800F0C8FAFF2888F8B4
:10B554000D001AD14FF6FF73A8F8003098F80E309A
:10B5640088F8020003F0FD036FF3000388F80E303F
:10B574000023C8E9013388F80C301120C4E7037BA9
:10B58400A342DBD00F20BFE7002588F80C4098F8D1
:10B594000D100C4800F076FA88B104EB8404240101
:10B5A400A4B2A408BE7078603C8025B1082E02D1F4
:10B5B400A400063C84800020A6E70E20A4E7032014
:10B5C400A2E700BFB02D002038B5FFF767FE05469F
:10B5D40060B1406810B1FFF7DCFD28B900242846AB
:10B5E400FFF79AFE204638BD0324F8E70524F9E75F
:10B5F40073B502AD002445F8044D06462946FFF70D
:10B604003BFE58B93CB93046FFF724FE044610B15E
:10B61400072818BF0324204602B070BD8178304645
:10B62400FFF7D2FF10B1052818BF0324019B013393
:10B63400019329463046E2E7CB1F012B73B50E4632
:10B6440021D8FFF72BFE0446F8B14568FDB9417BCC
:10B65400104800F017FACDE900558DF8026078B172
:10B66400237B019003EB83039B006846ADF8003015
:10B67400FFF73EFE211D6846FFF774FD092800D13F
:10B68400032002B070BD0720FBE70520F9E7002086
:10B69400F7E700BFB02D002038B5CB1F012B0C46B7
:10B6A400154608D8FFF7FAFD38B105808470BDE867
:10B6B4003840FFF753BE072038BD0520FCE7FFF7ED
:10B6C400D6BDFFF7D6BD13B5148802ABA40043F86A
:10B6D400044DFFF7DCFC02B010BD13460022FFF757
:10B6E40066BD10B54FF6FF7304469C4208460AD166
:10B6F4004FF4807100F063FAB0F5807F044609D1FD
:10B704004FF6FF7406E0FF2CFAD8214600F016FA33
:10B714000028F5D0204610BD0149FFF7E2BF00BF65
:10B72400E02D00204FF6FF73984210B5044606D072
:10B734000449FFF7D6FF231A5842584110BD002090
:10B74400FCE700BF002E0020FF2810B5044609D8EE
:10B754000146054800F017FA21460448BDE81040A8
:10B7640000F011BA10BD00BFE02D0020002E002013
:10B77400FF28014602D8024800F055BA002070475D
:10B78400E02D0020FF28014602D8024800F04BBA01
:10B7940000207047002E002038B54FF6FF73984202
:10B7A40018BF01300D4614BF84B20024FF2C03D906
:10B7B4004FF6FF74204638BD2146284600F033FA80
:10B7C4000028F7D10134A4B2F0E7000070B50B49AA
:10B7D4000A4EFFF7E1FF4FF6FF750446AC4201D174
:10B7E400204670BD2046FFF7CDFF0028F8D0204644
:10B7F4003146FFF7D1FF0446F0E700BFE02D0020FB
:10B804000149FFF7C9BF00BF002E0020F8B5074D5E
:10B81400074F064600242B78A34200DCF8BD57F8F6
:10B824002430304698470134F5E700BF372E002016
:10B83400282E0020074B1B7810B504464BB1FFF7A8
:10B84400ADF9204600F0A0FE2046BDE81040FEF70A
:10B8540093BE10BD362E002008B1FFF7D7BF704746
:10B86400FFF7D4BFFFF7D2BF2DE9F04F1C462C4B96
:10B874001B7887B083468A469146002B4ED04FF6FC
:10B88400FF70FFF71CFF01230025ADF8103004AA58
:10B8940003AB062106460395ADF812500593FFF756
:10B8A40012FF072836D04FF6FF7843464FF0FF3794
:10B8B400E0B1052818D04FF6FF7296422CD1BBF1A7
:10B8C400000F01D0ABF80030BAF1000F01D0CAF874
:10B8D4000050B9F1000F01D0A9F8008004B127602D
:10B8E400002007B0BDE8F08F00220392039AAA4219
:10B8F40024BF334615463046BA423CBFB0461746CD
:10B904000193FFF7DCFE04AA06210646FFF7DBFEDF
:10B91400019BCDE70520E4E70320E2E70820E0E708
:10B92400362E002008B500231A4606490648FFF7BC
:10B934009BFF28B1431F58425841044B187008BD5F
:10B944000120FAE7202E0020342E0020382E00207B
:10B95400F0B5044687B08088FFF752F823786080FA
:10B96400083B032B20D8DFE803F002213166637A19
:10B974005BB93F4A116851B1E068814207D1136055
:10B984003C4AA1881180E3600EE0012B0CD13A4BB4
:10B994001B784BB1374BA2881B889A4204D1237A77
:10B9A400062B01D1FFF7BEFF20465DE0637A002B32
:10B9B400FAD12F4A11680029F6D0E0688142F3D108
:10B9C4002E4913600A68013A0A60DCE72C4F3B7881
:10B9D40073B90125284B1B7833B1264BA2881B88E9
:10B9E4009A4201D1FFF79EFF002DDDD107B0F0BDD3
:10B9F4004FF6FF70FFF763FE4FF6FF73984205465C
:10BA0400E7D1FFF75EFEA8420646E2D100251422E4
:10BA1400294601A83D7001F08EF90C2320468DF8CB
:10BA24000430ADF80860ADF80660FFF7EFFE01A83A
:10BA3400FFF7ECFECEE7124B1A78002AB4D00021AF
:10BA4400142201A8197001F076F90D238DF8043041
:10BA54004FF6FF73ADF80830ADF806302046A36802
:10BA64000393FFF7D3FE01A8FFF7D0FEBEE700BFA4
:10BA74003C2E0020342E0020382E0020202E0020C2
:10BA8400242E002038B50C46054608B9002038BDE0
:10BA94000368002BFAD040680028F7D0FF29F5D0BE
:10BAA40000F0C1F80028F1D0EB68286803FB04001B
:10BAB400EDE738B5054680B1036873B1406860B1FD
:10BAC400FF290AD08CB2214600F0ADF828B12146F6
