:020000022000DC
:10600000000001203D6202009562020097620200DA
:10601000996202009B6202009D6202000000000083
:106020000000000000000000000000009F6202006D
:10603000A162020000000000A3620200A56202004B
:10604000AD820200AB620200E9860200AF6202008C
:10605000B1620200B36202006D850200B762020005
:10606000B9620200BB620200BD620200BF620200B0
:10607000C1620200C3620200C5620200C762020080
:10608000C962020081700200CD620200CF6202008C
:106090001D710200D3620200959D0200D7620200CA
:1060A000D9620200DB620200DD620200DF620200F0
:1060B000E1620200E3620200A7620200A76202003E
:1060C000E5620200E7620200E9620200EB620200A0
:0C60D000ED620200EF620200F1620200CB
:1060DC00364937480A1A02D0072291438D46354972
:1060EC0035480A1A06D00722914381F30988022207
:1060FC0082F3148831483249324A00F045F832486C
:10610C003249334A00F040F832483349334A00F000
:10611C003BF833483349344A00F036F833483449B5
:10612C00344A00F031F834483449354A00F02CF840
:10613C0034483549354A00F027F8354835490022AE
:10614C0000F02DF834483549002200F028F8344886
:10615C003449091A082903DB00220260043001606B
:10616C00314A90471F482049884205D002680430C4
:10617C0003B4904703BCF7E700208646EC460020AA
:10618C0000212A4A9047FEE7884207D0521A05D0D0
:10619C00037801300B700131013AF9D17047884214
:1061AC0002D002700130FAE77047000000000120B5
:1061BC0000E000200000012000000120B0B002002F
:1061CC00D81800202C190020F4620200F46202009E
:1061DC0040A40200B0B00200D8180020D81800204B
:1061EC0008A5020008A5020008A5020008A50200E7
:1061FC0008A5020008A5020008A5020008A50200D7
:10620C00B0B0020004B102002C1900202C1900209F
:10621C002C190020D8210020D8210020D8210020C2
:10622C00D8210020D841002061620200E9960200CA
:10623C000F484FF00701884385460E4880470E48AB
:10624C00016841F470010160BFF34F8FBFF36F8F92
:10625C00FFF73EBF09480A490A4A884207D0521A3A
:10626C0005D0037801300B700131013AF9D1704738
:10627C0000000120D57C020088ED00E0D8A40200CB
:10628C00A8180020D8180020FEE7FEE7FEE7FEE77E
:10629C00FEE7FEE7FEE7FEE7FEE7FEE7FEE7FEE7CA
:1062AC00FEE7FEE7FEE7FEE7FEE7FEE7FEE7FEE7BA
:1062BC00FEE7FEE7FEE7FEE7FEE7FEE7FEE7FEE7AA
:1062CC00FEE7FEE7FEE7FEE7FEE7FEE7FEE7FEE79A
:1062DC00FEE7FEE7FEE7FEE7FEE7FEE7FEE7FEE78A
:0862EC00FEE7FEE7FEE700BF3C
:1062F400F0B595B01C46164608460D4601F0CCFB99
:106304001A9B0D93CDE9086400242346082205A9AD
:1063140028460A948DF82C400C9401F0F9FB079B55
:106324000293BDF81830ADF80C30BDF81A30ADF852
:106334000E309DF814308DF8114003F00302012A49
:106344001DD1BDF81440059EC3F3C203C4F38314E6
:106354008DF81030A20008230EA9284601F0D8FBBE
:10636400C6F3952608AB0093224602AB0EA930462D
:1063740000F0DEFB284601F093FB15B0F0BD022AC5
:10638400F8D1BDF81640C3F3C203A4098DF8103048
:106394000827082C264628BF08263B4632460EA965
:1063A400284601F0B5FBA41B08AB02AA31460EA88F
:1063B400374400F021FC002CEBD1DBE7014B012238
:1063C4001A7070476D1900207047000070B50E4DAB
:1063D40006460FCD88B06C460FC495E80F0084E8DC
:1063E4000F0008A9002E4FF00603084A41F8203D8B
:1063F40008BF0022064801F0E1FE08B100F092FD5A
:10640400044B1E7008B070BD08A50200C1630200F1
:10641400D81800202C19002007B5044B0093044A17
:106424004023FFF765FF03B05DF804FB3964020005
:106434002D19002038B50D4B0D4D002018700D4856
:1064440004782D5DD2B21C4665B1043002F082FDA1
:1064540008B100F067FD084B1A7812B12378002BBD
:10646400FBD038BD0C3002F06FFBF1E76D19002052
:1064740000200020D81800202C19002008B5084856
:10648400084A0378D35C3BB1043002F0FFFC0020DF
:10649400BDE80840FFF79ABF0C3002F0F1FAF6E7C6
:1064A400D8180020002000200120FFF78FBF000033
:1064B40010B5054CFFF7F8FF0421204600F0A8FAB8
:1064C4000123637210BD00BFEC180020037813F0A1
:1064D400030F03F0040202D012B910467047B2B1A0
:1064E40003F00303012B03D0022B09D001207047D2
:1064F4000A6800880232C0F3831002440A60F5E798
:106504000B684288023303EB92130B60EEE70B68CF
:106514004288013303EB92130288F4E72DE9F04F2C
:1065240089B00546861C08A8484C019200230F46F2
:1065340000F8113D00F0DCFF23683B60D4E901233F
:106544001344226801339B1A04F21C4704F5836A3E
:1065540004F21448B3421AD3019A0023002A6DD0DE
:10656400012262F3010343F0040365F389132168F4
:10657400A2689DF80F000A4003320E4444F822300A
:10658400266000F0D9FF012009B0BDE8F08F012199
:10659400384601F007F8504601F01AF8404601F079
:1065A40017F80DF120096068D4F808B049F8100D07
:1065B40000EA0B00033004EB80004946FFF786FF36
:1065C400049BB0B90BEA030204EB8202D168059183
:1065D4009A1C013303EA0B0B04EB8B0C01F003034D
:1065E400012B0492DCF80CB020D0022B04D083469B
:1065F4000BE00BEA0300DDE7BDF816309B0903331B
:106604004FEA1B4B02EB93030493404600F0E3FF75
:1066140008B1049B63605946384600F0C3FFD4E9CF
:1066240001231344226801339B1A93E7BDF8143005
:10663400C3F383134FEA1B4B1344E5E7022262F3CF
:10664400010343F0040365F39F5390E7401A0020CD
:1066540008B50E4B0E48FF229A600022C3F8182496
:10666400C3E90022C3F8142483F8202401F0CDF9EF
:1066740038B9084A084B09499B1ADB0802469A4272
:1066840000D108BD21F822200132F8E7401A002089
:10669400A8A4020048A40200A8A40200A81800208C
:1066A40030B50B4C79B10B4A0B49121BD2080023AD
:1066B4009A4201D1002030BD01EB83056D888542EB
:1066C40002D00133F4E7034654F83300F3E700BF84
:1066D40048A40200A8A40200A8180020094B01390C
:1066E40003EBC000032909D8DFE801F00A0204061D
:1066F4000420704700797047407970470020704744
:106704000220704748A40200034BD3E90030C31AA7
:1067140058425841704700BF401A00202DE9F04309
:1067240087B0FFF7F1FF0746002840F0F5807B4D66
:10673400C5F81804BFF34F8F6868AC680DF11808EA
:1067440048F8100D2040033005EB80004146FFF768
:10675400BDFE029B064600285FD104EA0302991C91
:10676400013305EB8202234005EB8303D268DB6827
:10677400049302F00303022B0392029162D1BDF849
:106784000E3067484FEA9318B8F1500FC14628BF3E
:106794004FF0500969F38F1309F10801ADF80E3079
:1067A40001F04BF90746002800F0A48001F074F9C9
:1067B400334603A90822384601F081F9029924EAF4
:1067C40001060136B600B14535D95FFA89F97EB3C1
:1067D400F6B2A9EB0609214003315FFA89F4B14608
:1067E400504E05EB810108234A46384601F067F90B
:1067F40036B109F1080322463146384601F05FF903
:10680400029B08F1030803EB98030293D5F81834AC
:10681400002B4AD1D5F8104458E02A689A4204D88B
:106824006A60384607B0BDE8F08304EA03008AE7EB
:106834003C493446D7E72140033108234A4605EB57
:106844008101DAE7012B55D1BDF80C303448C3F38C
:106854008311062928BF062161F3891302318900B7
:10686400ADF80C3001F0E9F80746002842D001F0F9
:1068740013F93346082203A9384601F020F9BDF87C
:106884000C20C2F38312B31C96424FEA8303BDD299
:1068940002994A1C21400331029205EB8101042232
:1068A400384601F00CF90136E9E7384601F0F8F80A
:1068B400FFF72AFF80F00100C7B2B2E7637A23B181
:1068C400236839461B68204698476468002CF5D134
:1068D400384601F0E5F806A800F8114D00F008FE6E
:1068E400D5F818340BB9029B6B609DF8070000F0D3
:1068F40023FEDDE7D5F8104444B90B4B0B49188847
:10690400000440F0020000F06BF8D1E72368204651
:106914009B6898476468EFE7002782E7401A0020E5
:10692400A8A402004C1A0020BC18002034A50200C0
:106934002DE9F74F284C80460F46924601A90122C3
:1069440018469B46D4F80890FFF7E8FD88B3019DEC
:106954000026A91C5E4506EB010234D100211F4824
:1069640000F000FE80F310006A1C02EA090204EB46
:106974008202000405EA0903033340EA1840D060A8
:1069840014F8232068F3C50204F8232034F82320E4
:1069940066F3891224F8232054F82320012167F395
:1069A4009F2244F8232061F301026FF3820204F86A
:1069B400232094F820341BB1FFF7B0FE0028FBD14C
:1069C40003B0BDE8F08F09EA020204EB82025AF830
:1069D4002630D3600136BDE7401A00205C1E00203B
:1069E40000231A46FFF7A4BF13B502AC012344F8F1
:1069F400042D2246FFF79CFF02B010BD07B5CDE978
:106A0400002302236A46FFF793FF03B05DF804FBFB
:106A14000F4A30B5D2F810440023214641B903721D
:106A2400D2F810444CB9C2F810044160184630BD85
:106A34000D7A9D4205D04968F0E762684260606063
:106A4400F4E701330A2BE8D14FF0FF33EEE700BF40
:106A5400401A0020084A38B50123D2F8104482F8BD
:106A640020341D4604B938BD2368657220465B682E
:106A740098476468F6E700BF401A0020037A052BA4
:106A840010B50C460FD0437A23B1084A0849204672
:106A940000F002FE0749204600F0FEFD2046BDE856
:106AA400104000F0EEBD002AF8D0F3E78FA50200F5
:106AB40094A50200B4A50200C38873B504460D462C
:106AC40033B1144A00921449144A284600F0E4FDF4
:106AD400217A05291CD0637A4BB1A088FFF7FEFD0B
:106AE4000F4B104953F82020284600F0D5FD227A98
:106AF4000D4BA08853F822600021FFF7D1FD0B490C
:106B040003463246284602B0BDE8704000F0C4BDDA
:106B140002B070BD8FA502009FA5020097A50200D8
:106B24005CA5020094A50200C4A50200B7A502005A
:106B34002DE9F04385B01F460C9D002306460C4604
:106B4400904695F80C902B7329463846FFF7B4FF0E
:106B5400B8F1060F09D8DFE808F00412181F28332B
:106B640040003146284600F097FD00222946384669
:106B7400FFF784FF85F80C9005B0BDE8F083226828
:106B84003146284600F088FDEFE7D4E9002331467A
:106B9400284600F081FDE8E7A36800933146D4E974
:106BA4000023284600F078FDDFE7E3680193A3683B
:106BB40000933146D4E90023284600F06DFDD4E764
:106BC40023690293E3680193A36800933146D4E9EF
:106BD4000023284600F060FDC7E763690393236937
:106BE4000293E3680193A36800933146D4E9002338
:106BF400284600F051FDB8E708292DE9F84F8046F2
:106C04000E4617461C4636D8002593F80C901D7383
:106C140019461046FFF750FFDFF87CA0DFF87CB080
:106C2400AE422AD918F805205946204600F034FD12
:106C34000135082DF4D11649DFF864B0204600F080
:106C44002BFD0025AE421DD918F805A0504603F0CF
:106C5400A3FA002814BF52462E225946204600F0BB
:106C64001BFD0135082DEDD1012221463846FFF7E1
:106C740005FF84F80C90BDE8F88F5146204600F0DB
:106C84000BFDD5E70349204600F006FDE9E700BF08
:106C94008AA5020088A5020086A5020080A502003C
:106CA4008CA502002DE9F04F3B4F89B000263B4BE9
:106CB4001B78F5B2AB4202D809B0BDE8F08F384B6F
:106CC400196811F835000124A0F12002C0F1200355
:106CD40004FA02F924FA03F349EA0309D7E9002381
:106CE40004FA00F8CDE9042302EA080203EA0903DE
:106CF400134301EBC50B4CD0DDE9042322EA08025F
:106D040023EA0903C7E90023079101F023FC07994B
:106D1400844611F83500A0F12002C0F1200324FAC2
:106D240003F304FA02F21A4304FA00F300931D4B2E
:106D34000192DDE90045D3E9002314401D402246B9
:106D44002B465FFA8CF40025CDE90445049CA0F1A0
:106D54002005AC400394049CC0F1200124FA01F105
:106D6400039C0C430499039481400291DDE902459C
:106D7400AB4208BFA2420CD19BF801104B1E5942F2
:106D84005941A1EB0C02DBF804305142514103B1EB
:106D9400984701368BE700BF981E0020641E002030
:106DA400A01E0020901E00202DE9F84F064624481E
:106DB40000F08EFB002841D10123A6F12001C6F189
:106DC400200203FA01FB23FA02F203FA06FA1D4B2E
:106DD400D3E900014BEA020B00EA0A0801EA0B09B5
:106DE40058EA09021F4623D1304601F0B3FB164B83
:106DF400B8B1D3E9000140EA0A0441EA0B05C3E94A
:106E04000045D7E900234BEA0305104B0C481968E9
:106E14004AEA0204C7E900450022BDE8F84F00F041
:106E240013BBD3E9000120EA0A0421EA0B05E6E7D3
:106E340020EA0A0421EA0B05C3E90045BDE8F88FFE
:106E44006C1E0020981E0020901E0020681E00204A
:106E5400042A2DE9F34105460C4616463AD901F0B9
:106E6400B1FAD8B11C4B1D491D601D4BDFF884805D
:106E74001C701C4B00221E600023C1E900231A4928
:106E8400C1E90023013CE4B200260327FF2C0CD106
:106E9400164A1748002100F0C5FA03E001F05AFA37
:106EA4000028DFD002B0BDE8F08123B205EBC302B5
:106EB40001A992788DF8052015F833008DF8066045
:106EC40042468DF8047001F087FA013CE4B20028D0
:106ED400DCD0E7E70720E5E7A01E0020901E002095
:106EE400641E0020681E0020981E0020A96C020069
:106EF40024A60200AD6D020070B5084D084E0024B2
:106F04002B789C4201D3002070BD3368012113F813
:106F1400340001F0D9FA0134F2E700BF641E002006
:106F2400A01E00201FB50021039001AA44F2010015
:106F3400CDE9011100F004F805B05DF804FB000090
:106F440010B572B6FFF786FDFFF7E8FB0028FBD10A
:106F5400104C11492088000440F00100FFF740FD67
:106F64000E4B1B68DB0700D500BE20880C490004CB
:106F740040F00200FFF734FDBFF34F8F09490A4B7D
:106F8400CA6802F4E0621343CB60BFF34F8F00BFC3
:106F9400FDE700BFBC18002028A60200F0ED00E0C9
:106FA40034A6020000ED00E00400FA05094A537813
:106FB40091780133DBB2994208BF002311789942DA
:106FC4001FBF03705078182303FB002014BF043044
:106FD40000207047A41E002073B5054602A80024B3
:106FE40000F8014D0E4600F083FA0DF10600FFF79C
:106FF400DDFF90B106700A4B9DF8062045605A707B
:107004009DF8070000F098FA24B9064B4FF480125B
:10701400C3F80021204602B070BD0424F0E700BF8D
:10702400A41E002000E100E0024B4FF43C6043F05A
:107034000103184750A6020038B50C4B0C4C4FF412
:107044000032C3F8802001254FF48033C4F848335C
:10705400C4F808336560FFF7E7FF064BA56000241A
:107064001C60FFF7E1FF044B1C7038BD00E100E039
:1070740000100140C01F0020B11F0020F8B51F4BB5
:107084001F491B680025C1F84051C1F84451C1F89B
:107094004851C1F84C51C1F80051C1F804514BB3E7
:1070A400D1F8044517490968641A24F07F442F462F
:1070B4001A68A24209D8A41A15441A7CDE691AB1C6
:1070C4001F74D3E905209047AEB90F4B0F4A1978C6
:1070D40013788B4205D10133DBB2022B08BF0023A6
:1070E400137012780A4B43F822500A4B4FF4801263
:1070F400C3F80021F8BD3346DAE700BFC41F0020FF
:1071040000100140C01F0020BC1F0020BD1F002034
:10711400B41F002000E100E02DE9F74F9E4A9F498B
:10712400137809789E4D99423CD00133DBB2022B8F
:1071340008BF002313709B4912789B4B0F6853F8C8
:1071440022003B1823F07F4300220B602B68164675
:107154001446944613B942B12B6006E01968814283
:107164000ED902B12B60091A19604FF001082B687F
:10717400DFF83CA200930027BEB9DFF83CB260E020
:10718400401A0C44D968C3F800C0D3F81CE031B1EC
:107194003A1922F07F42C3E90121DE611E46012231
:1071A4007346D7E70026B046E1E73446F6697D4AE0
:1071B40063681268DFF804C2A068991A21F07F415D
:1071C400614500F2A58001442160012222742A68ED
:1071D4000023C4E90133E361002A40F0A2802C605B
:1071E400CAE75A1C9BF80210D2B291428BF80020D5
:1071F40004BF00228BF80020182202FB03B32A6884
:1072040019799C68022974D003297ED0012918D1E8
:10721400217CB1B9DA6862601A69A2605A699B6913
:10722400A361624BE2601B78002BC0D06160BEE7B3
:107234009C4200F093809946DB69002BF8D100232F
:1072440023749BF800309BF801209A42C9D12B6823
:107254002FB9009A934202D1B8F1000F43D0002B0A
:1072640079D0D3F800A0524D4E4BD5F804751C6864
:10727400DFF84C813E1B98F8003026F07F46033639
:107284009BB94FF48033C5F84433C5F80433494BF4
:107294004FF400324FF00109C3F880211A60C5F899
:1072A4000090FFF7C1FE88F80090B2452CBF54440B
:1072B400A41924F07F44C5F84045D5F80435DB1BF8
:1072C40023F07F43E41B033324F07F44A3420AD911
:1072D400D5F80435C5F84035FFF7A6FE354B4FF415
:1072E4000032C3F80021314B00221A7003B0BDE80C
:1072F400F08F13469146A0E71174D2690123002A46
:10730400FAD1002B9DD02A609BE700231946F6E7AB
:10731400D31A23F07F43834234BFC31A002323606C
:1073240053E721681368994213D8591A1160E2612E
:1073340055E7091AD8691A4638B1034618688842CD
:10734400F7D3401A1860184613462160E061DC61E7
:1073540012E71346F2E7FFF76FFEC4E74C450DD181
:10736400D3692B6053B90F4801920121CAF8081060
:1073740003600E4B1970FFF757FE019AE169236809
:10738400C9F81C1011B1086803440B602B689A42B9
:1073940018BF012753E700BFBC1F0020BD1F0020FA
:1073A400C41F0020C01F0020B41F0020B01F0020F5
:1073B4000010014000E100E0A41E0020FEFF7F0059
:1073C400B11F002008B5FFF737FE104B00200B2239
:1073D40018809A700E4B18600E4B18700E4B187074
:1073E4000E4B4FF48012E021C3F8802183F814136C
:1073F4001A6002F18042A2F56F22C2F8080583F8F0
:107404001113074BD2F804251A6008BDA41E0020EE
:10741400C41F0020BC1F0020BD1F002000E100E0AD
:10742400C01F0020074B9B784BB132B128B10368D1
:10743400187C20B959745A61704707207047082096
:10744400704700BFA41E00202DE9F7431D4FBB78F1
:1074540005460E4690469BB390B304292ED9436942
:1074640073B3437C02A80024012B00F8014D0CBF28
:107474008946A14600F03CF80DF10600FFF796FDA1
:10748400D0B101230370104B4560D3F80435C0E933
:107494000498C0E902369DF806307B709DF8070019
:1074A40000F04AF824B9094B4FF48012C3F80021C4
:1074B400204603B0BDE8F0830424EFE70724F7E790
:1074C4000824F5E7A41E00200010014000E100E0BC
:1074D400064A92783AB130B1426922B1002202746C
:1074E4000221FFF779BD0820704700BFA41E0020C9
:1074F40070B5EFF3108672B60C4A946801239CB9F8
:1075040093600B4B0B4DD3F8801029401160C3F8E6
:107514008050D3F8841051604FF0FF32C3F88420B8
:10752400047006B962B670BD0370FAE7C81F002084
:1075340000E100E0FC06FFBD084B9A6810B55AB1A3
:1075440050B9EFF3108172B6054A1C6814605C6888
:107554005460986001B962B610BD00BFC81F002016
:1075640000E100E050E8002F0B4640E8003C9CF0AE
:10757400000FF7D11046704750E8003F43EA01027C
:1075840040E8002C9CF0000FF6D11046704750E8FC
:10759400002F02EA010340E8003C9CF0000FF6D102
:1075A4001046704750E8003F03EB010240E8002C0E
:1075B4009CF0000FF6D11046704750E8003FA3EB53
:1075C400010240E8002C9CF0000FF6D110467047F1
:1075D4000121FFF7D1BF0021FFF7D9BF10B590B14A
:1075E400D0E9012301689B1ADBB20A60013BDBB2DC
:1075F400FF2B026802D10020107110BD11684C1CD1
:1076040014600B70F2E70E20F7E737B5054602A8C1
:10761400002400F8014DFFF76BFF2A686B681168BE
:1076240099420ED9481E106011F8014CEB68A98AE2
:1076340001FB0434AB6811791B1ADBB2994238BFE1
:1076440013719DF80700FFF777FF204603B030BDA4
:1076540037B5054602A8002300F8013D0C46FFF7A4
:1076640047FF2A681368591C1160E968641AA98ADB
:10767400B4FBF1F41C709DF80700FFF75DFF03B045
:1076840030BD826810B504462AB1436901680069B7
:1076940098470023A36010BD0EB403B5039929B124
:1076A40002AA04AB42F8043D00F06AF802B05DF8A7
:1076B40004EB03B07047826830B40468551C8560DD
:1076C400A154D0E901329A4202D330BCFFF7D9BFAA
:1076D40030BC70472DE9F84F9946DDE90A43174657
:1076E400824688460A460126BA420FD24E4538BF22
:1076F4004E4613F0010B01D164B900240125B9F100
:10770400010F1AD909F1FF397D43F8E7B2FBF7F20B
:107714000136E9E79B070ED5B9F1000F0CBF302500
:107724002025A642EAD2013C29465046FFF7C3FF72
:10773400002CF6D1E1E72025F3E7B8FBF5F39F42EF
:10774400E2D9DFF83890B8FBF5F3504619F8031086
:1077540005FB1388FFF7AFFFB5FBF7F5002DF2D15A
:10776400BBF1000F02D00CB1A64201D3BDE8F88FE3
:1077740020215046013CFFF79EFFF4E756A6020085
:107784002DE9F74F054690460E46002900F03A8150
:1077940016F8011B002958D0252940F0D180002774
:1077A40002E047F001071646324612F8013B2D2B42
:1077B400F7D0302B04D02B2B05D147F00407F2E788
:1077C40047F00207EFE700242A2B06F101021BD140
:1077D400D8F80030191D1B68C8F800101C44164660
:1077E40033782E2B1CD101364FF0000A314611F8A4
:1077F400012BA2F13000092814D80A2303FB0A2321
:10780400A3F1300A0E46F1E712F8013CA3F130016E
:107814000929E5D80A2101FB0434303C1646D3E794
:107824004FF0000A324612F8011B01F0FB006828F1
:107834001646F8D0692916D054D8582970D00ED8D5
:1078440025297DD03378002BA2D12B7B002B00F08F
:10785400D980284603B0BDE8F04FFFF712BF632973
:1078640068D06429EED1D8F80020D2F80090111D18
:1078740089EAE972C8F80010A2EBE9724FF0010B33
:10788400092A61DCD34538BFD3462CB1B9F1000FC6
:1078940001DB790700D5013CBA0702D5BAF1000F24
:1078A40004D0FB0702D4002C54D10024B9F1000FFA
:1078B40058DAC9F100092D212846FFF7FCFE07F02C
:1078C4000302022A05D1BAF1000F02D1002C4DD1D6
:1078D4000024CDE9004753460A2249462846FFF7CB
:1078E400F9FEAFE7732954D016D87029AAD1D8F875
:1078F40000301A1DC8F80020302128461C68FFF704
:10790400DAFE78212846FFF7D6FE00220823CDE9C7
:10791400003221461022E1E775292FD0782991D130
:10792400D8F800100A1DC8F80020CDE900475346D6
:1079340010222CE0D8F800301A1D1978C8F800205D
:107944002846FFF7B8FE7DE70A230BF1010B92FBF3
:10795400F3F295E7A345A9D220212846013CFFF77D
:10796400AAFEA0E77807AAD52B21A5E7A345B0D2A4
:1079740030212846013CFFF79EFEA7E7D8F8001007
:10798400CDE900470A1DC8F8002053460A220968B9
:10799400A4E7D8F800301A1DC8F80020F907D3F876
:1079A400009012D54F46A7EB090B17F8011B41B9FC
:1079B400A345BFF447AF20212846013CFFF77BFED7
:1079C400F6E72846FFF777FEEDE7B9F1000F17D089
:1079D400484602F001FD0746BC4200D954B909F1FA
:1079E400FF3919F8011F00293FF42CAF2846FFF78F
:1079F40062FEF6E720212846013CFFF75CFEEBE738
:107A04004F46E9E703B0BDE8F08FFFF7E7BDF8B5EF
:107A140046790146721E0546002393422D6803D31E
:107A24000024A64202D8F8BD0133F6E70F682846C1
:107A3400FFF70EFE01343946F3E72DE9F843868A51
:107A4400CD1C0746FFF7E1FD043E35440446B5FB73
:107A5400F6F5F0B14FF48073EDB28380C680013D3A
:107A6400076081464FF00008A84512D23846FFF758
:107A7400CCFD064648B163790133637108F101080E
:107A8400C9F8000007608146EEE72046FFF7BFFF14
:107A940034462046BDE8F88301210430FFF782BD57
:107AA40010B5012104460430FFF787FD10F0FF0FE5
:107AB40004D12046BDE81040FFF7A9BF10BD2DE951
:107AC400F843C7880546181D8846B0FBF7F41646E8
:107AD40007FB14003CB9A7EB0009B14528BFB14628
:107AE40026B9BDE8F8832D68013CF3E70430A6EB22
:107AF40009064A4608EB0401284402F011FCB74287
:107B04004C442D68B9464FF0000028BFB146E7E762
:107B14002DE9F843C7888846191D0546B1FBF7F4DB
:107B2400164607FB14113CB9A7EB0109B14528BF60
:107B3400B14626B9BDE8F8832D68013CF3E704316A
:107B44002944A6EB09064A4608EB040002F0E8FBC8
:107B5400B7424C442D68B9464FF0000128BFB146E6
:107B6400E7E741DF70470000064B10B500241C70A6
:107B7400054B1C60BFF35F8F0449054800F030F8E3
:107B8400204610BDDC1F0020E01F002068A6020074
:107B9400D41F002007B502A8002300F8013DFFF719
:107BA400A7FCF1EE103A23F09F03E1EE103ABFF385
:107BB4005F8F0A4B4022C3F884219DF80700FFF72A
:107BC400BBFC02F0CBF820B1FFF7CBFF03B05DF8AC
:107BD40004FB20BF40BF20BFF8E700BF00E100E086
:107BE4000B684A684360934208BF0023016008BFE2
:107BF40043607047436843B10268916852680B441C
:107C04009342436004BF0023436070470D4930B57D
:107C1400A1F594720225914201D800200EE08B1A3E
:107C2400DB1093FBF5F302EBC30452F833308342C9
:107C340005D802D204F10802EDE7606830BD2146A0
:107C4400E9E700BFB8A7020008B5FFF7DFFF024B62
:107C5400002808BF184608BD7DA602000C4B1B78FF
:107C6400062B10D10B4B1B681A070CD10A4B186852
:107C740000F0F003302B08D000F0E000A0F1400346
:107C8400584258417047002070470120704700BF98
:107C9400E00F00F0E40F00F0E80F00F0094B1B7850
:107CA400062B0CD1084B1B681A0708D1074B186820
:107CB40000F0F000A0F13003584258417047002012
:107CC400704700BFE00F00F0E40F00F0E80F00F091
:107CD40008B5FFF7C3FF28B17D4B7E4A1B68C3F389
:107CE40004231360FFF7DAFF10B17B4B7B4A1A6061
:107CF400FFF7B4FF28B17A4B7A4A1B68C3F34233C7
:107D04001360FFF7CBFF20B1774AD36823F0807369
:107D1400D360FFF7A3FF40B14FF080430022C3F8C4
:107D24000C21C3F81021C3F83825FFF7B7FF10B1B1
:107D34006E4B03221A60FFF7B1FF40B16C4B052272
:107D44001A6001229A6700229A603F225A60694BA6
:107D54001B78062B50D1684B1B6819074CD1674B15
:107D64001B6803F0F003502B46D14FF08052644B54
:107D7400D2F80414C3F82015D2F80814C3F8241553
:107D8400D2F80C14C3F82815D2F81014C3F82C1523
:107D9400D2F81414C3F83015D2F81814C3F83415F3
:107DA400D2F81C14C3F84015D2F82014C3F84415B3
:107DB400D2F82414C3F84815D2F82814C3F84C1583
:107DC400D2F82C14C3F85015D2F83014C3F8541553
:107DD400D2F83414C3F86015D2F83814C3F8641513
:107DE400D2F83C14C3F86815D2F84014C3F86C15E3
:107DF400D2F84424C3F87025FFF730FF28B1414B73
:107E0400414A1B6803F04F031360FFF727FF48B193
:107E14004FF08043D3F80024D20744BF6FF001022F
:107E2400C3F80024394B1B68062B08D1384B1B6858
:107E3400062B01BF374A136843F480631360364A44
:107E4400D2F8883043F47003C2F88830BFF34F8F00
:107E5400BFF36F8F4FF01023D3F80022002A03DB07
:107E6400D3F80432002B2FDA2C4B0122C3F804255B
:107E7400D3F80024002AFBD04FF010221521C2F8B9
:107E84000012D3F80024002AFBD04FF0102315224F
:107E9400C3F80422214B1A46D3F800140029FBD05E
:107EA4000021C3F80415D2F80034002BFBD0BFF333
:107EB4004F8F19491A4BCA6802F4E0621343CB602E
:107EC400BFF34F8F00BFFDE7164B174A1A6008BD7A
:107ED400240300104035014074C007400DF0ADBAD2
:107EE400440200103C050040F0ED00E0A005004015
:107EF40010560040E00F00F0E40F00F0E80F00F02F
:107F040000C0004058020010E40E00403001001090
:107F1400340100103C17004000ED00E000E0014097
:107F24000400FA05F81800200090D003054A4FF029
:107F3400A043105CD3F8043523FA00F0C04300F0EA
:107F44000100704772AB0200044B1A5C012393409A
:107F54004FF0A042C2F80C35704700BF72AB02006C
:107F6400044B1A5C012393404FF0A042C2F8083539
:107F7400704700BF72AB020008B50020FFF7F0FFA6
:107F84000120FFF7EDFF0220FFF7EAFF0320BDE821
:107F94000840FFF7E5BF08B50020FFF7D5FF012033
:107FA400FFF7D2FF0220FFF7CFFF0320BDE8084010
:107FB400FFF7CABF074A4FF0A041105CD1F804355F
:107FC4000122824022EA03001340C1F80805C1F8E7
:107FD4000C35704772AB02000D2809D00E2809D069
:107FE4000F2809D010280CBF03204FF0FF30704732
:107FF400002070470120704702207047C20708B56F
:1080040001460CD54FF0A0430322C3F84427C3F81C
:108014004827C3F84C27C3F85027FFF7ADFF8B0759
:108024000AD54FF0A0430C22C3F83427C3F83827ED
:10803400C3F83C27C3F8402708BD000038B5084CF6
:1080440004F108030546002818BF1C4623682BB119
:108054001A6822605B6828469847F7E738BD00BF76
:10806400EC1F002020B9054B01225A70FFF7E6BF30
:10807400012802D1014A9070F8E77047E41F0020FC
:1080840020B9034B01225A70FFF7D8BF704700BFD5
:10809400E41F002038B50B4C237883B90A48636089
:1080A400A3602361E36000F0D1F8054601F056FEB9
:1080B40008B900F0D9F801232370284638BD852576
:1080C400FBE700BFE41F00206980020037B502A867
:1080D4000023094C00F8013DFFF70AFAE368013B6D
:1080E400E360E56815B900F0D3F8A5709DF80700C2
:1080F400FFF722FA03B030BDE41F0020012813B5B6
:1081040009D003D303281BD002B010BD0F4B0122AA
:10811400C3F88020F8E702A800230D4C00F8013DC5
:10812400FFF7E6F923780BB9FFF7B4FFE3689DF88E
:1081340007000133E3600123A370FFF7FDF9E3E7D0
:1081440000F092F8FFF7C2FFDEE700BF00E100E0B5
:10815400E41F00201FB503788DF8003043680193B5
:10816400037A8DF80830C3680393054A054B6846C3
:1081740053F8213052F82110984705B05DF804FBFC
:10818400F81F0020FC1F00201FB503788DF8003075
:108194004368019383688DF80830C3680393054AE4
:1081A400054B684653F8213052F82110984705B022
:1081B4005DF804FBF81F0020FC1F0020F0B5194BEC
:1081C400067891F81DE043F82620174B94460A6977
:1081D40043F82620154B03F806E00C4607460FCC5F
:1081E40089B06D460FC594E80F0085E80F0004962A
:1081F400BEF1000F0AD0BCF1000F0D4A694608BF5A
:108204000022381D00F07AFD09B0F0BDBCF1000F6A
:10821400084A694608BF002207F10C0000F070FB11
:10822400F2E700BFFC1F0020F81F00200020002000
:10823400598102008D81020000F18040002382B048
:10824400036003680193019B02B07047054A1379E8
:108254002BB90121106011715371184670478520A4
:10826400704700BF04200020084B1A68D20706D4C8
:10827400E02283F800230122C3F880211A604FF022
:1082840080430122C3F81825704700BF00E100E0D5
:10829400044B01221A604FF08042D2F81834DB03F9
:1082A400FBD470470C000040124B1B6810B573B12F
:1082B4004FF48070FFF7C0FF4FF080430122C3F8F2
:1082C40008230D4B587910B95A711B6898470B4B0A
:1082D4001B6873B14FF48270FFF7AEFF4FF0804319
:1082E4000222C3F80823044B01201B68BDE8104098
:1082F400184710BD00010040042000200401004084
:1083040000F1804000F5C040002382B003600368A0
:108314000193019B02B07047800000F1A040D0F8A7
:10832400003723F44033C0F80037D0F8003743EA6D
:108334000141C0F800177047054B4FF0FF32072882
:1083440043F8202084BF1B1883F84820704700BFDF
:108354000C20002010B5174C94F8583043BBFF2173
:10836400E2180133202B82F83010F9D10021C8B271
:10837400FFF7E2FF01310C29F9D1042200210E4854
:1083840001F0F7FF0D4BE02283F806234022C3F8E7
:1083940080214FF4BE701A60FFF7B2FF084B4FF014
:1083A4000042C3F80423012384F85830002010BD90
:1083B4000820FCE70C2000206020002000E100E001
:1083C40000600040034B93F85800003018BF0120B0
:1083D400704700BF0C200020F0B5394D2C1894468E
:1083E40094F93040002C68DA8E78C6F34006002EEB
:1083F40015BF0023082308270C27BB4201D1042002
:10840400F0BD55F8232001324FEA830441D12F18DF
:1084140045F823C087F8303016B9EA1882F84800C6
:108424008A78560716D4D70735D5820002F1A042C0
:10843400D2F8006726F00206C2F80067214FC6088A
:1084440000F0070C012202FA0CF217F806C042EA07
:108454000C02BA558A780E7812F0020224D004F184
:10846400804303F5C0430002D3F8102522F44732B9
:1084740022F44072C3F810253604D3F8102500F412
:10848400F85006F4403630431043C3F8100500207A
:10849400B6E70133B1E74E7800F5E0724FF0A0473C
:1084A400B60047F82260C9E7083B2B4493F8500014
:1084B40040EA861683F85060E9E70820A0E700BF89
:1084C4000C2000206020002038B5204C251895F998
:1084D4003020072A18DD224492F848309B09032BE8
:1084E4000DD14FF0A043D3F81035C34013F0010F62
:1084F4000CBF02210321BDE83840FFF70DBF012B5B
:1085040014BF03210221F6E7D3B2072B1CD8930032
:1085140003F1804303F5C043D3F8100540F0010094
:10852400C3F8100502F14000800080B2FFF7E8FEB6
:1085340051B195F9303054F823302BB1012303FAAB
:1085440002F2034BC3F8042338BD00BF0C20002003
:10855400006000404FF0A043D3F8103523FA00F038
:1085640000F00100704700002DE9FF470024584A3D
:10857400584E594D019401211368A2F5C040012BB6
:1085840080B206D1D6F804330B4202D0FFF7B8FE0E
:108594000C430432AA424FEA4101EDD14F4B1B6810
:1085A400012B0AD14FF4BE70FFF7AAFE4FF0A0438F
:1085B40044F00044D3F81035019314F0FF0F1AD09F
:1085C400474F00250126344210D0AB0003F180430D
:1085D40003F5C043D3F81005D3F8101557F8253028
:1085E400C0F30420C1F3014103B198470135082DBC
:1085F4004FEA4606E7D1002C66DA00224FF0FF333B
:10860400CDE90223DFF8D8900127002634464FF045
:10861400A04809EB060393F95020531C45D0D2B26D
:1086240022F0C005E90804A8084402F0070310F882
:1086340004CC07FA03F31CEA030F36D009EB050C4C
:1086440092099CF930C059F82CA0BAF1000F0AD154
:10865400032A2AD10DF1080E1EF801C04CEA030CBE
:108664000EF801C001E0032AF4D005F5E07110F81A
:108674000C0C58F821101842C1F3014105D002290D
:1086840013D1032A0BD1114604E003290DD1032A87
:1086940005D102212846FFF73FFE0134E4B2BAF1C6
:1086A400000F02D011462846D0470136042EB0D11F
:1086B40054B14FF0A043019AD3F81035934203D03C
:1086C4000193029B0393A0E704B0BDE8F08700BFC9
:1086D4000061004000600040206100407C61004077
:1086E4000C200020014B1B68184700BF68200020A5
:1086F4000D4B984237B50D4610D102A8002300F85F
:10870400013DFEF7F5FE094B1C7914B901221D60E9
:108714001A719DF80700FEF70FFF14B9002003B08B
:1087240030BD1120FBE700BF00200040682000207E
:10873400034B984201BF034B00221A601A71704721
:1087440000200040682000200023435082B043589A
:108754000193019B02B070470A4610B54FF48E7125
:10876400FFF7F2FF136A9168C95C136A013313625D
:10877400C0F81C1510BD8B690A4610B54FF48471FE
:1087840023B9FFF7E1FFD0F8183510BDFFF7DCFF80
:10879400536AD168D0F81805C854536A0133536238
:1087A400F3E700001FB501238DF80030044BCDE939
:1087B4000110D3E900126846904705B05DF804FB48
:1087C4007020002030B54C4AD2F8043313F4007FF3
:1087D40085B015464FD0D2F82431002B4BD04FF43E
:1087E40092711046FFF7B0FF4FF40173C2F80833DB
:1087F400424B93F8291009B9012151603E490222E4
:108804008DF80020D1F88024C1F8802403929A695D
:108814000292DA6801920022C3E906226846D3E98B
:10882400001290473448D0F81C315BB133490A6ACE
:108834004B699A420A464BD291F82830002B47D113
:10884400FFF78AFF2C4AD2F8443193B14FF4A27156
:108854001046FFF779FF294B93F8291009B101213C
:1088640011609A692AB100229A61586AD968FFF79F
:1088740099FF05B030BDD5F804335B07D2D5D5F8E0
:108884000831002BCED01D4C1B482146FFF773FF47
:10889400636AA2699A422346C4D1E269E1684AB193
:1088A4002369E3600023606AA261E3616362FFF706
:1088B40079FFB7E794F829200AB901226A600E4AC1
:1088C4004FF40170C2F8080300229A61586AEEE777
:1088D4004FF48E710848FFF737FF51690029B1D072
:1088E4000023029191688DF800300191536168462C
:1088F400D2E900139847A5E700200040702000202B
:108904002DE9F8435A4B047991462C2202FB043298
:10891400064692F82A200D469846002A40F0A38085
:1089240054490068FFF7E4FE0746002840F09D80A4
:1089340029683368481C0BD04FF0A04001228A40BC
:10894400C0F8082501F5E0724FF0030C40F822C08E
:108954006868421C1FBF00F5E0724FF0A04C4FF056
:10896400000E4CF822E0AA6995F814C0C3F8242537
:108974006A7DBCF1010F4CEA0202C3F86C25C3F80E
:108984001405C3F80C151DD1AA68511C1FBF02F5AC
:10899400E0714FF0A0404FF0000C40F821C0E968AE
:1089A400481C0BD04FF0A04C01208840CCF808059F
:1089B40001F5E0704FF0030E4CF820E0C3F8081501
:1089C400C3F810252C23634308EB0302C2F8049078
:1089D4002A6948F80320B9F1000F31D04FF48E71A1
:1089E40030682D7FFFF7B0FE30684FF4A271FFF7B7
:1089F400ABFE3268204BC2F80433120B53B2002B87
:108A0400A8BF03F160404FEA53134FEA4511BABFC0
:108A14001A4802F00F0500F561404FEA8303C9B21A
:108A240003F16043B4BF415580F8001303F561437B
:108A340002F01F02012101FA02F2C3F880211A6038
:108A440033680422C3F800252C2303FB048300228B
:108A5400C3E9062283F829205A61012283F82A20D7
:108A64003846BDE8F8830827FAE71127F8E700BF7E
:108A740070200020C98702008000020014ED00E08D
:108A8400F8B5047900682D4D0023C0F800352C2377
:108A940003FB04535B6873B1294BC0F80833020B22
:108AA40053B201215B0902F01F0201FA02F22033E2
:108AB400244941F82320D0F80C65D0F81415D0F8D7
:108AC4000835D0F810254FF0FF37BE42C0F81475B2
:108AD40018BF06F5E076C0F80C75C0F80875C0F844
:108AE40010751EBF4FF0A0474FF0020C47F826C088
:108AF4004E1C1FBF4FF0A04601F5E071022746F857
:108B04002170511C1FBF4FF0A04102F5E0720226F4
:108B140041F822605A1C1FBF03F5E0734FF0A042D6
:108B2400022142F82310FFF703FE2C2303FB045415
:108B3400002384F82A306360F8BD00BF7020002051
:108B44008402020000E100E02DE9F843224F067997
:108B54004FF02C0909FB067480466569002D37D156
:108B64006261A16025624FF48E71006884F8285018
:108B7400FFF7EAFDD8F80000012383602146FFF7E0
:108B8400EBFD6368A1462BBBD8F80050226A6369E9
:108B94009A4212D3D8F80030D3F81C21002AFBD013
:108BA4000122DA6000202C2303FB06760023736184
:108BB400BDE8F88394F8283043B9D5F81C31002B6C
:108BC400F8D049462846FFF7C7FDDFE70F20EAE75C
:108BD4001120EDE72846EBE77020002000234350E6
:108BE40082B043580193019B02B070471FB5012323
:108BF4008DF80030054B8DF8080001916846D3E9E3
:108C04000012904705B05DF804FB00BF9C200020D3
:108C14007FB5384AD2F82461002E49D010464FF46B
:108C24009271FFF7DBFF02238DF80030D2F8803415
:108C3400C2F880340393D2F83C358DF808302E4BBB
:108C4400DA6801920022C3E906226846D3E90012D9
:108C54009047284AD2F8443173B14FF4A2711046B8
:108C6400FFF7BCFF244B996931B100219961D2F817
:108C74003C05D968FFF7BAFF1E4AD2F82031ABB1E0
:108C84004FF490711046FFF7A9FF1B4B596969B166
:108C9400D2F84C158DF80810002299688DF8002040
:108CA40001915A616846D3E90012904704B070BD3F
:108CB400D2F81031002BCCD04FF488711046FFF756
:108CC4008DFF0D4BD2F83C0599698842C1D1DC690E
:108CD400D96864B1D2F8005225F02005C2F80052D8
:108CE4001A699C61DA60DE61FFF780FFB1E79C617D
:108CF400FAE700BF002000409C2000202DE9F84343
:108D04005E4B06799146242202FB0632044692F811
:108D140020200D469846002A40F0AB805849006850
:108D2400FFF7E6FC0746002840F0A5802968236881
:108D3400481C0BD04FF0A04001228A40C0F80825FF
:108D440001F5E0724FF0030C40F822C06868421C41
:108D54001FBF00F5E0724FF0A04C4FF0000E4CF82E
:108D640022E0AA6995F814C0C3F824256A7DBCF1F1
:108D7400010F4CEA0202C3F86C25C3F80C15C3F8C2
:108D840014051DD1AA68511C1FBF02F5E0714FF0F4
:108D9400A0404FF0000C40F821C0E968481C0BD0FB
:108DA4004FF0A04C01208840CCF8080501F5E07094
:108DB4004FF0030E4CF820E0C3F80815C3F8102553
:108DC4002423734308EB0302C2F804902A6948F889
:108DD4000320B9F1000F3BD04FF4887120682D7F38
:108DE400FFF7FCFE4FF490712068FFF7F7FE4FF495
:108DF40092712068FFF7F2FE20684FF4A271FFF72A
:108E0400EDFE22681F4BC2F80433120B53B2002B41
:108E1400A8BF03F160404FEA53134FEA4511BABFAC
:108E2400194802F00F0500F561404FEA8303C9B207
:108E340003F16043B4BF415580F8001303F5614367
:108E440002F01F02012101FA02F2C3F880211A6024
:108E540023680822C3F80025242303FB0683002289
:108E6400C3E906225A61012283F820203846BDE86E
:108E7400F8830827FAE71127F8E700BF9C200020B1
:108E8400158C02001003020014ED00E0F8B504791B
:108E940000682D4D0023C0F80035242303FB045340
:108EA4005B6873B1294BC0F80833020B53B201213C
:108EB4005B0902F01F0201FA02F22033244941F84F
:108EC4002320D0F80C65D0F81415D0F80835D0F864
:108ED40010254FF0FF37BE42C0F80C7518BF06F5D9
:108EE400E076C0F81475C0F80875C0F810751EBF98
:108EF4004FF0A0474FF0020C47F826C04E1C1FBF8E
:108F04004FF0A04601F5E071022746F82170511C8C
:108F14001FBF4FF0A04102F5E072022641F8226023
:108F24005A1C1FBF03F5E0734FF0A042022142F820
:108F34002310FFF7FDFB242303FB0454002384F8D0
:108F440020306360F8BD00BF9C20002010030200A5
:108F540000E100E001F06043B3F1005F2DE9F0416E
:108F6400074632D11C4B0679242505FB0635984665
:108F74006C6964BB6A61A96000684FF49071FFF783
:108F84002DFE4FF4AC713868FFF728FE3B686A6920
:108F9400A968C3F84415C3F8482501229A606A6891
:108FA400BAB9D3F82011D3F8582149B9002AF8D016
:108FB4000F20242303FB068600237361BDE8F081A0
:108FC400002A14BF0F200020F3E71020F6E7112039
:108FD400F4E72046F2E700BF9C2000200220FEF7C1
:108FE400E9BF00002DE9F04781460D46FEF7F4FF86
:108FF4000328044604D8012D04D024D3022D2FD0F5
:10900400BDE8F087194D47003A18A918AE5C4A78B4
:1090140052B1DFF86880164842464FF40041FEF72B
:1090240013FA08B988F800903B192B449A78114B2D
:109034001A55002EE4D0104B1B68002BE0D03046AC
:10904400BDE8F04718470A48FEF742FA074B04EB1D
:10905400440213449E78074B1B5DB342D0D1E8E72A
:10906400024B00EB40041C446678E2E72421002014
:10907400E42000203D21002038210020C0200020D1
:1090840002210078FFF7AEBF08B5094B1B7853B136
:109094000020FEF765FF0120FEF762FF0320BDE814
:1090A4000840FEF75DBFBDE80840FEF765BF00BF9E
:1090B400C1200020F8B5794C237805461BB1002364
:1090C4002370FFF7E1FF172D00F28480DFE805F03D
:1090D4000C13133F5061727C84898489919696960F
:1090E4009696C0C5CDD5E0E0FFF7CEFF6C4B0024CB
:1090F4001C702046F8BD0020FEF718FFF8B10020D0
:10910400FEF72EFF022D0CBF4FF4E1614FF47A619C
:10911400634B1D704FF400404FF4FA740025E0FBDC
:1091240001454FF47A7200232046294600F074FF6B
:10913400002201465B48BDE8F840FEF785B9FEF71A
:1091440003FF022D0CBFC8214FF4C871E0E70020D3
:10915400FEF7ECFE40B10020FEF702FF4FF4487129
:109164004F4B03221A70D5E7FEF7EEFEC821F7E74E
:109174000020FEF7DBFE38B10020FEF7F1FE4FF4CD
:109184007A61474B0422EDE7FEF7DEFE4FF4C87127
:10919400F7E70020FEF7CAFE48B10020FEF7E0FE24
:1091A4003F4B05221A7041F69A110022C2E7FEF7DE
:1091B400CBFEF5E70020FEF7FDFE394B06221A70C0
:1091C400002240F6CD41B5E70020FEF7BDFE344B4A
:1091D40007221A7000248CE701202070FEF7EAFEB3
:1091E400EEE701202070FEF7E5FE00224FF48041F7
:1091F400A0E7FEF7D0FE2A4B0C22EAE72A482B4EC2
:10920400FEF766F9D5F1110504461CD0D8B9012D35
:1092140013D0C8235D434FF400474FF4FA70002184
:109224004FF47A720023C7FB050100F0F5FE2246D5
:1092340001461D48FEF708F904460220FEF784FEA5
:109244000123337055E70220FEF78AFE0023F8E776
:10925400FFF71AFF124B1222BBE7FFF715FF00209E
:10926400FEF772FE0E4B1322B3E7FFF70DFF01204A
:10927400FEF76AFE0A4B1422ABE7FFF705FF002056
:10928400FEF762FE0120FEF75FFE054B1522A0E704
:10929400FEF781FE024B1D709CE700BF34210020C5
:1092A4003C21002004210020C4200020C1200020F3
:1092B400044B1B68DB0703D5034B1878FFF7FABE92
:1092C400704700BF302100203C210020044B1B6864
:1092D40013F0010301D0FFF7EDBE1846704700BF3D
:1092E4003021002038B51C4B18601C4B10F00204D0
:1092F400054619601AD01A4B1A480E221A700F220A
:10930400DA7010229A7111225A72042140F26662B4
:10931400FDF79EFD044648B9FDF7EEFD044628B965
:109324000146114A1148FEF77DF80446EB0711D5B2
:109334000120FEF763FE6CB921460D4A0D48FEF785
:1093440071F8044630B90C4A0C480121BDE8384094
:10935400FEF768B8204638BD3021002038210020AF
:109364002421002098AB020085900200BCAB0200CF
:10937400B5920200C0AB0200E18F0200B8AB02005C
:109384006CDF70476DDF704772DF704773DF7047C3
:1093940074DF704777DF704708B5084B01211878F0
:1093A400FFF7F4FF08B1FDF7BDFD0220FFF78EFFC4
:1093B40018B1BDE80840FDF7B5BD08BD0C19002083
:1093C40007B50A22642390FBF3F38DF8043090FB75
:1093D400F2F393FBF2F102FB11318DF8051002FB5D
:1093E400130301A9032204488DF8063000F098FF06
:1093F40003B05DF804FB00BF4421002007B50A2236
:10940400642390FBF3F38DF8043090FBF2F393FBA9
:10941400F2F102FB11318DF8051002FB130301A9CF
:10942400032204488DF8063000F07AFF03B05DF89B
:1094340004FB00BF4721002007B50A22642390FBE8
:10944400F3F38DF8043090FBF2F393FBF2F102FB9B
:1094540011318DF8051002FB130301A903220448FE
:109464008DF8063000F05CFF03B05DF804FB00BF2C
:109474005821002007B50A22642390FBF3F38DF8EA
:10948400043090FBF2F393FBF2F102FB11318DF8FF
:10949400051002FB130301A9032204488DF80630CA
:1094A40000F03EFF03B05DF804FB00BF4121002043
:1094B40007B502A9012201F8040D034800F030FFAA
:1094C40003B05DF804FB00BF4A21002008B500206A
:1094D400FFF7EEFF4FF0A042D2F80435D94301F470
:1094E400002103F40023C2F80815C2F80C3508BDA6
:1094F40010B50D2000F056FE09220446104900F074
:109504000FFF09220F49E01C00F00AFF09220E494F
:10951400A01D00F005FF0922A0180C4900F000FF6F
:1095240001220B4904F10C0000F0FAFE21460D2241
:10953400084800F0F5FE2046BDE8104000F07CBE6F
:1095440044210020472100205821002041210020EF
:109554004A2100204B21002030B593B059231B4CE5
:10956400ADF80030FFF7C4FF194B029300250D231B
:109574003C22002103A8ADF8043000F0FAFE0423D5
:109584001822294620468DF80F308DF80C50CDF85E
:1095940030D000F0EEFE052323704FF4F073A36087
:1095A4000C4B65601A1D1968257503A8A58100F088
:1095B40089F908B1FDF7B6FC044A06490648FFF7E5
:1095C400E3FE08B1FDF7AEFC13B030BD7C210020F2
:1095D4004B210020FC1800200C1900200E2808B58F
:1095E40021D14FF0A0420120D2F80435D94301F42F
:1095F400002103F40023C2F80815C2F80C35FFF764
:1096040057FF0020FFF7C4FEFFF7A6FFFFF7C4FED5
:1096140000224FF420310448FDF716FF18B1BDE8CD
:109624000840FDF77FBC08BD5C21002070B500F048
:1096340067FE064600F064FE054600F061FE0B235B
:10964400044696FBF3F003FB10604630FFF7B8FEC8
:10965400152395FBF3F003FB10506430FFF7CEFEA7
:10966400634203F0030304F0030058BF584246303A
:10967400FFF7E2FE40F26D10BDE87040FFF7FABE5E
:1096840008B50020FFF784FEFFF7D0FFFFF764FF63
:10969400BDE80840FFF780BE07B59DF80030012201
:1096A40062F347038DF80030FF238DF801308DF805
:1096B40002308DF803308DF80430CC238DF805305A
:1096C4006846DF238DF80630FFF75AFE08B1FDF730
:1096D40029FC6846FFF756FE08B1FDF723FC03B0EA
:1096E4005DF804FB07B54FF400410020FCF7B0FF20
:1096F40008B1FDF717FCFCF7DBFEFDF763FE08B1CC
:10970400FDF710FC2D4A2E480121FDF78BFE08B110
:10971400FDF708FC2B4A2C480021FDF783FE08B115
:10972400FDF700FC29490320FFF7DCFD08B1FDF734
:10973400F9FBFEF719FA08B1FDF7F4FB00F0CAFAD9
:1097440008B1FDF7EFFB02AC002344F8043D01200F
:10975400214600F04DFB08B1FDF7E4FB204600F084
:10976400F1FB08B1FDF7DEFB0120FFF795FFFFF7E2
:109774005DFFFFF7F1FE6FF0130200210120FFF7F8
:1097840009FE08B1FDF7CEFB114B124918880004FD
:1097940040F00300FDF724F900224FF400410E4885
:1097A400FDF752FE08B1FDF7BDFBFFF7F5FDFCF731
:1097B400B5FF0028FBD1FEF7EDF9F8E78596020026
:1097C400E0AB0200D1940200C4AB0200E1950200B8
:1097D400BC180020C8AB0200B42100206DDF704724
:1097E40079DF70477DDF704764DF70472DE9F74FFD
:1097F4000C9CBDF834B02788002580468A469146E3
:109804002E46B8F80020B2420BDC35B12288013A6A
:10981400D21B92B2FF2A39D8DA55002003B0BDE832
:10982400F08FD8F8042052F82600019000220DF1A0
:10983400030101A8FFF7D8FF0028EFD19DF803200A
:109844004A4521D12288002D14BF0020022002EBBA
:1098540009010144594519DC3DB9013292B2228013
:1098640003F802A022880132228022880DF103012C
:109874001A4401A8FFF7B8FF0028CFD121889DF82A
:1098840003200A44228001250136BAE70C20C5E7EB
:109894002DE9F341089CBDF824501746CDE9004555
:1098A40002220646FFF7A2FF48B910223946304685
:1098B400CDE9084502B0BDE8F041FFF797BF02B01B
:1098C400BDE8F0812DE9F04F00231688138090F84D
:1098D4002D3085B007460D46144653B3082E01D8E3
:1098E4000C2004E102A8FFF779FF002840F0FF8074
:1098F40013880822CA54238801339BB21B22238075
:10990400CA542088013080B2208006220DF109015A
:10991400284400F005FD23889DF8082006339BB2F7
:1099240012F0FE0218BF01222380EA542388013377
:109934002380BB78FBB123880433B342D0D802A878
:10994400FFF74EFF002840F0D28023880322EA5418
:10995400238801339BB219222380EA542388BDF85B
:10996400082001339BB2E9182380EA54120A4A7092
:10997400238802332380FA789AB12388D91CB14210
:10998400AED80221E954238801339BB201212380FC
:10999400E95423880B449BB22380EA5423880B4464
:1099A40023807A68AAB12388D91CB14298D80221AD
:1099B40092F90020E954238801339BB20A212380C1
:1099C400E954238801339BB22380EA54238801336A
:1099D40023803B89002B7ED13B8A53B1CDE90046DD
:1099E4002B460722032107F11000FFF751FF00283F
:1099F4007DD13B8B53B1CDE900462B461522142172
:109A040007F11800FFF744FF002870D13A6A002AD2
:109A140070D1D7F82480B8F1000F30D0B8F80430F2
:109A24002188981C8A1C0244B2423FF659AFFE2892
:109A34003FF656AF03336B54238801339BB2FF22A6
:109A44002380EA54238801339BB22380B8F8002092
:109A5400EA54E918120A4A702088023080B2208041
:109A6400B8F804205AB1D8F8081000294CD028447A
:109A740000F056FC2388B8F804201344238097F898
:109A84002C30002B7BD1387888B33B88012B3BD01A
:109A940021888A1CB2423FF623AF012805D17B7886
:109AA40002330B449E42FFF41BAF023E761A04A914
:109AB400B6B221F8086DA818FFF794FEB8B93B7840
:109AC400022B40F09F80BDF80830B34240F2B680CC
:109AD400ADF808609FE0CDE900462B46062202213E
:109AE40007F10800FFF7D4FE00283FF475AF05B076
:109AF400BDE8F08FB4F800C00CF10603B3423FF6A2
:109B0400EFAE1188052901D80720F0E76FF4486EFD
:109B140001EB0E039BB24FF27D3E7345F4D953889B
:109B2400052BF1D96FF44860181880B27045EBD951
:109B34004FF6FF70814203D0834201D09942E3D8AB
:109B4400052305F80C30238801339BB212212380AE
:109B5400E954238801339BB223801188E954E8181F
:109B6400090A4170238802339BB223805288EA5445
:109B7400E918120A4A7023880233238049E7BB6A32
:109B8400002BC1D04FF000094FF00C0A4FF0160B18
:109B940097F82C305FFA89F293427FF674AFB96A72
:109BA4000AFB02F201EB0208B8F80430981CFE2804
:109BB4003FF696AE208803332B54238801339BB29F
:109BC400238005F803B0238801339BB223808A5A8B
:109BD400EA54E918120A4A702088023080B22080C0
:109BE400B8F804205AB1D8F8081000298CD02844B9
:109BF40000F096FB2388B8F804201344238009F16D
:109C04000109C5E7012B7FF463AF7B789E42FFF423
:109C14005FAFADF808300821BDF80830FE2B3FF6E1
:109C24005FAE22880133AB542288013292B2228083
:109C3400A954228813442380002058E70921EBE724
:109C440010DF704713B5044609496846FDF7C8FF9D
:109C5400019808B902B010BDD0E9003120469847F8
:109C640018B16846FDF7C6FFF2E71120F2E700BF1E
:109C7400E8AB020013B5044607496846FDF7B0FF98
:109C8400019B0BB902B010BD2046D3E900219047D7
:109C94006846FDF7AFFFF3E700AC02000B4A92F809
:109CA40016335B09012B08D9042B06D0084B99689D
:109CB40039B94FF480031360704742F20200FDF794
:109CC40031B91A6842F480021A60704700E100E07A
:109CD400C81F0020F7B51B4F3C788CBB1A4E0125DA
:109CE40020463570FFF7AEFF112826D02046FFF737
:109CF400C1FF164B1868019002A800F8054DFDF746
:109D0400F7FB134901A8FFF79BFF0446B0FA80F064
:109D1400400938709DF80300FDF70EFC6CB90D4B3B
:109D240034701C700C4BE02283F8162383F815233F
:109D3400FFF7B4FF2846FFF79DFF204603B0F0BDB0
:109D44000824FAE7D5210020D4210020E4AB020046
:109D5400456F0200D621002000E100E0014B187895
:109D6400704700BFD521002007B508496846FDF7B4
:109D740037FF019B13B903B05DF804FBD3E900205E
:109D840090476846FDF736FFF3E700BFF4AB0200E7
:109D9400FFF7EABF60DF704769DF704761DF704734
:109DA40030B5114B1B7891B0E3B1104D34240DF153
:109DB400020103A8ADF80240FFF7F0FF70B929468D
:109DC40001A8FDF70DFF029B002BF0D003A8D3E9F7
:109DD4000021904701A8FDF70DFFF4E7052801D005
:109DE400FDF7A0F811B030BDD721002040AE02002D
:109DF40030B5054685B00C46002900F092804A4BE8
:109E04000B600C22002101A800F0B3FA01238DF8A5
:109E1400063022688DF80450062301A92020ADF8ED
:109E24000830FFF7B9FF58B1404B1D88FDF70CFF10
:109E34002D0445F0010502463D492846FCF7D4FDB2
:109E44000C22002101A800F094FA002322688DF866
:109E5400053001A940208DF806308DF80730FFF752
:109E64009BFF58B1314B1D88FDF7EEFE2D0445F0E4
:109E7400010502462F492846FCF7B6FD0C220021B5
:109E840001A800F076FA002322688DF8043001A9B5
:109E94000120FFF781FF58B1244B1D88FDF7D4FE44
:109EA4002D0445F00105024623492846FCF79CFD94
:109EB4000C22002101A800F05CFAF8232268019327
:109EC40001A9A120FFF768FF58B1184B1D88FDF7C1
:109ED400BBFE2D0445F00105024618492846FCF74F
:109EE40083FD0C22002101A800F043FA9DF8043000
:109EF40022686FF3000301A9A0208DF80430FFF756
:109F04004BFF60B1094B1C88FDF79EFE240444F00E
:109F1400010402460A492046FCF766FD002005B00C
:109F240030BD0E20FBE700BFA8180020CC1800208D
:109F340014AC02005AAC0200A6AC0200F2AC02005F
:109F440043AD0200F8B504460768FFF723FF236812
:109F5400BB42054620D91A4E1A493088000440F005
:109F64000200FCF73DFD30882368174900043A4697
:109F740040F00200FCF742FD4FF080533088D3F8E4
:109F84000C31226811499B0203F1005300049A1A10
:109F940040F00200FCF728FD25B90D4B01221A7090
:109FA4002846F8BD064B28461C88FDF74DFE2404C0
:109FB40044F00104024607492046FCF715FDEFE78B
:109FC400CC18002096AD0200C5AD0200F6AD02002B
:109FD400D721002020AE02004BDF70471FB50D4C87
:109FE40001A8FFF7F9FF70B9214602A8FDF7F8FDB3
:109FF400039B002BF4D00198D3E90021904702A8D9
:10A00400FDF7F8FDF4E7052801D0FCF78BFF04B059
:10A0140010BD00BF58AE020053EA020C61D02DE916
:10A02400F04BB3FA83F51E0007BFB2FA82F502FAC9
:10A0340005F403FA05F41646C5F120051EBF22FAFD
:10A0440005F73C43203556EA044C4FEA144418BF44
:10A054000134A3464FF00009C846904271EB030C4B
:10A0640039D3094207BFB0FA80F700FA07F6B1FA0C
:10A0740081F701FA07F6C7F120071EBF20FA07FC93
:10A0840046EA0C062037B6FBFBFC7F1B103F07F0AB
:10A094001F04C4F120060CFA04F42CFA06F644BF9B
:10A0A40034460026202FA4BF2646002454EA060C7A
:10A0B40008BF012418EB040849EB0609A4FB027C41
:10A0C400C01B06FB02CC04FB03CC71EB0C019042D9
:10A0D40071EB030CC5D20B46024649464046BDE827
:10A0E400F08BB2FBF3F200007F2805D8034B185C19
:10A0F400034B5B5C184070470020704770AE020051
:10A10400F0AE0200A0F16103192B98BF203870470C
:10A11400A0F14103192B98BF203070477F2805D840
:10A12400034B185C034B5B5C18407047002070477E
:10A1340070AE0200F0AE0200A0F16103192B98BFCB
:10A1440020387047A0F14103192B98BF2030704785
:10A154007F299ABF017001206FF02E0070475AB119
:10A164000A787F2A0AD800B1026000211960596078
:10A17400501A18BF01207047002070476FF02E005E
:10A184007047000008B5034B5B689B681B689847E1
:10A1940008BD00BF1019002008B50921FFF7F2FF20
:10A1A40008BD000038B5214B214A9B1A102B3BD91E
:10A1B400044600F041F904F1130020F00F021D4B96
:10A1C400196869B34B689A420CD04FF0FF340025EC
:10A1D40013E041B103680B60044644F8042B00F01B
:10A1E4002CF91BE008460168124B1960F4E7086873
:10A1F40050B143689342ECD001469A42F7D2A3424D
:10A204003CBF1C460D46F2E755B16B689B1A6B6068
:10A21400A31AEC18EA5000F010F90434204638BDB3
:10A2240000F00BF90024F9E70024F7E7D8410020F7
:10A23400D82100202819002000285AD038B5044617
:10A244002C4A90423BD32C4A904238D800F0F4F880
:10A25400211F32D054F8040C284B1A68A2B18A4248
:10A264001AD344F8042C2060244B196000250844B8
:10A27400904225D12A46236845682B44236003680D
:10A2840044F8043CAAB918E01C4B1960002344F8B4
:10A29400043C206011E01A461368E3B19942FAD8ED
:10A2A40044F8043C2060EAB1116013B108448342CD
:10A2B400E1D05368D018814204D000F0BEF838BD14
:10A2C4002A46DFE721680B44536054F8043C1360CA
:10A2D400F3E71160EDE7002344F8043C2060002A12
:10A2E400F7D11346054D2960002BE6D015461A46D2
:10A2F400BDE77047D8210020D8410020281900204C
:10A30400054B1868054943F2390201FB0020186027
:10A31400C0F30E40704700BF241900206D4EC641A3
:10A32400844640EA010313F0030F18D18446202A1F
:10A334000BD32DE9F007B1E8F807A0E8F807A2F17C
:10A344002002202AF7D2BDE8F007042A07D351F8E7
:10A35400043B40F8043BA2F10402042AF7D2002A89
:10A3640005D011F8013B00F8013B013AF9D16046F0
:10A3740070478446002A2DD010F0030F04D000F853
:10A38400011B013A26D0F7E7C9B241EA012141EAAB
:10A394000141202A12D3A2F120022DE9F0030B4639
:10A3A4000C460D460E460F4688468946A0E8FA0339
:10A3B400203AFBD2BDE8F00320320BD0042A05D3A7
:10A3C40040F8041B043A05D0042AF9D200F8011B12
:10A3D400013AFBD16046704700F1010110F0030F10
:10A3E40011D010F8012B002A23D010F0030F0AD04B
:10A3F40010F8012B002A1CD010F0030F03D010F822
:10A40400012B002A15D02DE970004FF001324FF0D6
:10A41400803350F8044BA4EB020525EA04051D40E3
:10A4240000D1F6E7A0F1040070BC10F8012B002A5B
:0CA43400FBD1A0EB01007047704770479F
:08A4400085800200000000000D
:10A448007CAB02000000000082AB020000000000AC
:10A4580089AB0200000000008DAB02000000000084
:10A4680092AB02000000000045A5020000000303B3
:10A4780049A502000000000376AB020000000000BE
:10A488000CAC0200000003034CAE02000000030302
:10A4980064AE02000000030374A60200000000007E
:10A4A80070190020381A0020401A0020781900205E
:08A4B800C0180020180000008C
:08A4C000018102000000000010
:10A4C800A59D020000000000E19F020000000000BE
:10A4D8000000000000000000000000000000000074
:10A4E8000000000000000000000000000000000064
:10A4F8000000000000000000000000000000000054
:10A50800FFFFFFFFFFFFFFFFFFFFFFFFFFFFFFFF53
:10A5180000000000000000000000D6010701000054
:10A528001D64020081640200CD6302004261636B16
:10A53800656E647320666C7573686564006170701D
:10A548000062616C6C6F632E6C6F675F6D656D7018
:10A558006F6F6C008FA50200D8A5020097A50200B6
:10A56800E0A50200E8A50200F0A50200F8A5020097
:10A5780000A6020008A6020020253032780020201C
:10A5880020007C002563001B5B306D002573001BD9
:10A598005B313B33316D0025734C6F6773206472F8
:10A5A8006F70706564202825642925730D0A003CA6
:10A5B80025733E2025733A200000000000000000AB
:10A5C8002EA6020010A6020018A602001DA6020070
:10A5D8001B5B313B33306D001B5B313B33326D000D
:10A5E8001B5B313B33336D001B5B313B33346D00F8
:10A5F8001B5B313B33356D001B5B313B33366D00E4
:10A608001B5B313B33376D007761726E696E670093
:10A61800696E666F00646562756700006C1E0020D5
:10A62800466174616C206572726F7200537973743D
:10A63800656D2072657365740000000000000000FD
:10A6480000000000000000000338FDD870473031DA
:10A6580032333435363738394142434445460000B1
:10A6680048A4020048A40200040000007077725F4A
:10A678006D676D7400556E6B6E6F776E20657272C4
:10A688006F7220636F64650000000000B8A70200C5
:10A6980001000000C4A7020002000000E2A70200B7
:10A6A8000300000003A802000400000016A802002E
:10A6B8000500000027A80200060000003BA80200D1
:10A6C8000700000053A80200080000006BA8020061
:10A6D8000900000083A802000A0000009CA80200EC
:10A6E8000B000000B4A802000C000000CBA8020078
:10A6F8000D000000DFA802000E000000F1A8020013
:10A708000F00000000A902001000000014A90200B8
:10A71800110000002BA90200120000003AA9020053
:10A72800130000004FA902008000000063A9020086
:10A738008100000084A9020082000000A0A9020094
:10A7480083000000BCA9020084000000DAA902000E
:10A7580085000000FBA902008600000020AA020074
:10A768009000000037AA02009100000055AA0200DC
:10A778009200000073AA02000082000088AA02006A
:10A7880001820000A6AA020002820000C2AA0200FA
:10A7980000840000DEAA02000184000002AB02006F
:10A7A800028400002CAB02000384000051AB0200BD
:10A7B8004E52465F53554343455353004E52465FEE
:10A7C8004552524F525F5356435F48414E444C45A1
:10A7D800525F4D495353494E47004E52465F4552CA
:10A7E800524F525F534F46544445564943455F4E76
:10A7F8004F545F454E41424C4544004E52465F45DA
:10A8080052524F525F494E5445524E414C004E529F
:10A81800465F4552524F525F4E4F5F4D454D004E79
:10A8280052465F4552524F525F4E4F545F464F5506
:10A838004E44004E52465F4552524F525F4E4F545F
:10A848005F535550504F52544544004E52465F4551
:10A8580052524F525F494E56414C49445F50415203
:10A86800414D004E52465F4552524F525F494E5637
:10A87800414C49445F5354415445004E52465F454C
:10A8880052524F525F494E56414C49445F4C454ED7
:10A89800475448004E52465F4552524F525F494E08
:10A8A80056414C49445F464C414753004E52465F1F
:10A8B8004552524F525F494E56414C49445F4441BC
:10A8C8005441004E52465F4552524F525F444154E4
:10A8D800415F53495A45004E52465F4552524F52C6
:10A8E8005F54494D454F5554004E52465F455252AC
:10A8F8004F525F4E554C4C004E52465F4552524F98
:10A90800525F464F5242494444454E004E52465FBC
:10A918004552524F525F494E56414C49445F41445B
:10A928004452004E52465F4552524F525F42555371
:10A9380059004E52465F4552524F525F434F4E4E5A
:10A948005F434F554E54004E52465F4552524F5248
:10A958005F5245534F5552434553004E52465F454B
:10A9680052524F525F4D4F44554C455F4E4F545FC6
:10A97800494E495449414C495A4544004E52465F54
:10A988004552524F525F4D555445585F494E4954B0
:10A998005F4641494C4544004E52465F4552524F2E
:10A9A800525F4D555445585F4C4F434B5F464149A4
:10A9B8004C4544004E52465F4552524F525F4D55EA
:10A9C8005445585F554E4C4F434B5F4641494C45A3
:10A9D80044004E52465F4552524F525F4D555445C2
:10A9E800585F434F4E445F494E49545F4641494C76
:10A9F8004544004E52465F4552524F525F4D4F44B8
:10AA0800554C455F414C52454144595F494E495464
:10AA180049414C495A4544004E52465F4552524FAF
:10AA2800525F53544F524147455F46554C4C004E78
:10AA380052465F4552524F525F4150495F4E4F5404
:10AA48005F494D504C454D454E544544004E524685
:10AA58005F4552524F525F464541545552455F4EED
:10AA68004F545F454E41424C4544004E52465F4567
:10AA780052524F525F494F5F50454E44494E47002E
:10AA88004E52465F4552524F525F4452565F54579A
:10AA9800495F4552525F4F56455252554E004E52ED
:10AAA800465F4552524F525F4452565F5457495F72
:10AAB8004552525F414E41434B004E52465F45520C
:10AAC800524F525F4452565F5457495F4552525F46
:10AAD800444E41434B004E52465F4552524F525FDF
:10AAE800424C455F495053505F52585F504B545F3A
:10AAF8005452554E4341544544004E52465F4552C8
:10AB0800524F525F424C455F495053505F43484152
:10AB18004E4E454C5F414C52454144595F4558495A
:10AB2800535453004E52465F4552524F525F424C67
:10AB3800455F495053505F4C494E4B5F444953431E
:10AB48004F4E4E4543544544004E52465F4552527F
:10AB58004F525F424C455F495053505F50454552F4
:10AB68005F52454A45435445440011121314636C1F
:10AB78006F636B00434C4F434B004750494F54455C
:10AB8800005052530055415254005541525445000B
:10AB98000D000300E98F02000E000300E98F020098
:10ABA8000F000300E98F020010000300E98F020084
:10ABB800C4200020E4200020042100205C21002083
:10ABC800426561636F6E206578616D706C65207396
:10ABD8007461727465642E00B421002001000007BE
:10ABE800D8A40200D8A4020008000000C8A40200EB
:10ABF800D8A4020008000000C0A40200C8A40200F3
:10AC0800080000006E72665F7364680073645F62B8
:10AC18006C655F6366675F73657428292072657465
:10AC280075726E6564202573207768656E2061747F
:10AC380074656D7074696E6720746F207365742015
:10AC4800424C455F434F4E4E5F4346475F47415036
:10AC58002E0073645F626C655F6366675F7365741B
:10AC680028292072657475726E65642025732077B3
:10AC780068656E20617474656D7074696E672074A0
:10AC88006F2073657420424C455F4741505F4346CF
:10AC9800475F524F4C455F434F554E542E007364E7
:10ACA8005F626C655F6366675F73657428292072ED
:10ACB800657475726E6564202573207768656E20EB
:10ACC800617474656D7074696E6720746F20736544
:10ACD8007420424C455F434F4D4D4F4E5F434647AE
:10ACE8005F56535F555549442E0073645F626C6527
:10ACF8005F6366675F73657428292072657475726F
:10AD08006E6564202573207768656E2061747465AC
:10AD18006D7074696E6720746F2073657420424C7F
:10AD2800455F47415454535F4346475F415454522B
:10AD38005F5441425F53495A452E0073645F626C09
:10AD4800655F6366675F736574282920726574752B
:10AD5800726E6564202573207768656E206174744F
:10AD6800656D7074696E6720746F20736574204216
:10AD78004C455F47415454535F4346475F534552E0
:10AD8800564943455F4348414E4745442E00496E66
:10AD980073756666696369656E742052414D2061FA
:10ADA8006C6C6F636174656420666F72207468658B
:10ADB80020536F66744465766963652E0043686145
:10ADC8006E6765207468652052414D207374617206
:10ADD80074206C6F636174696F6E2066726F6D208A
:10ADE8003078257820746F20307825782E004D61D2
:10ADF80078696D756D2052414D2073697A652066BA
:10AE08006F72206170706C69636174696F6E20691C
:10AE18007320307825782E0073645F626C655F65F7
:10AE28006E61626C6528292072657475726E65643E
:10AE38002025732E0000000048A4020048A4020048
:10AE4800080000006E72665F7364685F626C65007C
:10AE580040A4020048A40200080000006E72665F69
:10AE68007364685F736F63002020202020202020F7
:10AE78002068282828282020202020202020202062
:10AE88002020202020202020481010101010101002
:10AE9800101010101010101084848484848484840A
:10AEA800848410101010101010818181818181011B
:10AEB800010101010101010101010101010101017A
:10AEC8000101011010101010108282828282820209
:10AED800020202020202020202020202020202024A
:10AEE80002020210101010200007032004170201AC
:10AEF8000857104080000000A4B0020068AF0200AC
:10AF08007CB0020053756E004D6F6E00547565007D
:10AF1800576564005468750046726900536174008F
:10AF2800000000004A616E00466562004D617200D3
:10AF3800417072004D6179004A756E004A756C0067
:10AF480041756700536570004F6374004E6F76005B
:10AF58004465630000000000414D00504D000000B2
:10AF6800A0B002009CB002009CB002009CB002009D
:10AF78009CB002009CB002009CB002009CB0020091
:10AF88009CB002009CB00200FFFFFFFFFFFFFFFF25
:10AF9800FFFFFFFFFFFF0000DCAF02000CAF020065
:10AFA80018B002002CAF020060AF0200C0AF020070
:10AFB80070B00200CCAF0200256D2F25642F2579D3
:10AFC80000000000256120256220256520255420E9
:10AFD8002559000053756E646179004D6F6E646188
:10AFE800790054756573646179005765646E65739B
:10AFF8006461790054687572736461790046726996
:10B0080064617900536174757264617900000000AD
:10B018004A616E756172790046656272756172790E
:10B02800004D6172636800417072696C004D61790E
:10B03800004A756E65004A756C79004175677573CD
:10B04800740053657074656D626572004F63746F48
:10B05800626572004E6F76656D6265720044656365
:10B06800656D62657200000025483A254D3A255302
:10B0780000000000EDA0020009A1020015A10200D5
:10B0880021A102003DA1020049A1020055A1020030
:10B0980063A10200000000002E0000004300000031
:08B0A800504F5349580000000D
:10B0B00000000000002000400000000000200040D0
:10B0C0000000000028A502000000000000000000B1
:10B0D0000090D003942100201F0000000000000019
:10B0E00000000000FF00000000AF020000AF0200FF
:10B0F00000AF020000AF020000AF0200010000003C
:04B10000D821002032
:040000032000623D3A
:00000001FF
